{"contracts/lending.sol":{"DecentralizedP2PLending":{"abi":[{"inputs":[{"internalType":"address","name":"_weth","type":"address"},{"internalType":"address","name":"_usdc","type":"address"},{"internalType":"address","name":"_usdt","type":"address"},{"internalType":"address","name":"_ethPriceFeed","type":"address"},{"internalType":"address","name":"_ethPriceFeedBackup","type":"address"}],"stateMutability":"nonpayable","type":"constructor"},{"inputs":[],"name":"EnforcedPause","type":"error"},{"inputs":[],"name":"ExpectedPause","type":"error"},{"inputs":[{"internalType":"address","name":"owner","type":"address"}],"name":"OwnableInvalidOwner","type":"error"},{"inputs":[{"internalType":"address","name":"account","type":"address"}],"name":"OwnableUnauthorizedAccount","type":"error"},{"inputs":[],"name":"ReentrancyGuardReentrantCall","type":"error"},{"inputs":[{"internalType":"address","name":"token","type":"address"}],"name":"SafeERC20FailedOperation","type":"error"},{"anonymous":false,"inputs":[{"indexed":true,"internalType":"uint256","name":"loanId","type":"uint256"},{"indexed":false,"internalType":"uint256","name":"amount","type":"uint256"}],"name":"CollateralAdded","type":"event"},{"anonymous":false,"inputs":[{"indexed":true,"internalType":"uint256","name":"loanId","type":"uint256"},{"indexed":false,"internalType":"uint256","name":"amount","type":"uint256"},{"indexed":false,"internalType":"address","name":"to","type":"address"}],"name":"CollateralReleased","type":"event"},{"anonymous":false,"inputs":[{"indexed":true,"internalType":"uint256","name":"loanId","type":"uint256"},{"indexed":false,"internalType":"uint256","name":"amount","type":"uint256"}],"name":"ExcessCollateralWithdrawn","type":"event"},{"anonymous":false,"inputs":[{"indexed":true,"internalType":"uint256","name":"loanId","type":"uint256"},{"indexed":true,"internalType":"address","name":"lender","type":"address"}],"name":"LoanAccepted","type":"event"},{"anonymous":false,"inputs":[{"indexed":true,"internalType":"uint256","name":"loanId","type":"uint256"}],"name":"LoanActivated","type":"event"},{"anonymous":false,"inputs":[{"indexed":true,"internalType":"uint256","name":"loanId","type":"uint256"}],"name":"LoanCancelled","type":"event"},{"anonymous":false,"inputs":[{"indexed":true,"internalType":"uint256","name":"loanId","type":"uint256"}],"name":"LoanCompleted","type":"event"},{"anonymous":false,"inputs":[{"indexed":true,"internalType":"uint256","name":"loanId","type":"uint256"},{"indexed":true,"internalType":"address","name":"borrower","type":"address"},{"indexed":false,"internalType":"uint256","name":"amount","type":"uint256"},{"indexed":false,"internalType":"uint256","name":"collateral","type":"uint256"}],"name":"LoanProposed","type":"event"},{"anonymous":false,"inputs":[{"indexed":true,"internalType":"address","name":"previousOwner","type":"address"},{"indexed":true,"internalType":"address","name":"newOwner","type":"address"}],"name":"OwnershipTransferred","type":"event"},{"anonymous":false,"inputs":[{"indexed":true,"internalType":"uint256","name":"loanId","type":"uint256"},{"indexed":false,"internalType":"uint256","name":"collateralLiquidated","type":"uint256"},{"indexed":false,"internalType":"uint256","name":"debtReduced","type":"uint256"}],"name":"PartialLiquidation","type":"event"},{"anonymous":false,"inputs":[{"indexed":false,"internalType":"address","name":"account","type":"address"}],"name":"Paused","type":"event"},{"anonymous":false,"inputs":[{"indexed":true,"internalType":"uint256","name":"loanId","type":"uint256"},{"indexed":false,"internalType":"uint256","name":"amount","type":"uint256"},{"indexed":false,"internalType":"uint256","name":"remainingDebt","type":"uint256"}],"name":"PaymentMade","type":"event"},{"anonymous":false,"inputs":[{"indexed":false,"internalType":"address","name":"account","type":"address"}],"name":"Unpaused","type":"event"},{"inputs":[],"name":"EXCELLENT_CREDIT","outputs":[{"internalType":"uint256","name":"","type":"uint256"}],"stateMutability":"view","type":"function"},{"inputs":[],"name":"FAIR_CREDIT","outputs":[{"internalType":"uint256","name":"","type":"uint256"}],"stateMutability":"view","type":"function"},{"inputs":[],"name":"GOOD_CREDIT","outputs":[{"internalType":"uint256","name":"","type":"uint256"}],"stateMutability":"view","type":"function"},{"inputs":[],"name":"LIQUIDATION_COOLDOWN","outputs":[{"internalType":"uint256","name":"","type":"uint256"}],"stateMutability":"view","type":"function"},{"inputs":[],"name":"LIQUIDATION_THRESHOLD","outputs":[{"internalType":"uint256","name":"","type":"uint256"}],"stateMutability":"view","type":"function"},{"inputs":[],"name":"MAX_LIQUIDATION_DISCOUNT","outputs":[{"internalType":"uint256","name":"","type":"uint256"}],"stateMutability":"view","type":"function"},{"inputs":[],"name":"MAX_ORACLE_STALENESS","outputs":[{"internalType":"uint256","name":"","type":"uint256"}],"stateMutability":"view","type":"function"},{"inputs":[],"name":"MIN_HEALTH_FACTOR","outputs":[{"internalType":"uint256","name":"","type":"uint256"}],"stateMutability":"view","type":"function"},{"inputs":[],"name":"PERCENTAGE_PRECISION","outputs":[{"internalType":"uint256","name":"","type":"uint256"}],"stateMutability":"view","type":"function"},{"inputs":[],"name":"PRECISION","outputs":[{"internalType":"uint256","name":"","type":"uint256"}],"stateMutability":"view","type":"function"},{"inputs":[],"name":"PROPOSAL_EXPIRATION","outputs":[{"internalType":"uint256","name":"","type":"uint256"}],"stateMutability":"view","type":"function"},{"inputs":[],"name":"TARGET_HEALTH_FACTOR","outputs":[{"internalType":"uint256","name":"","type":"uint256"}],"stateMutability":"view","type":"function"},{"inputs":[{"internalType":"uint256","name":"loanId","type":"uint256"}],"name":"acceptLoan","outputs":[],"stateMutability":"nonpayable","type":"function"},{"inputs":[{"internalType":"uint256","name":"loanId","type":"uint256"}],"name":"activateLoan","outputs":[],"stateMutability":"payable","type":"function"},{"inputs":[{"internalType":"uint256","name":"","type":"uint256"}],"name":"activeLoanRequests","outputs":[{"internalType":"uint256","name":"","type":"uint256"}],"stateMutability":"view","type":"function"},{"inputs":[{"internalType":"uint256","name":"loanId","type":"uint256"}],"name":"addCollateral","outputs":[],"stateMutability":"payable","type":"function"},{"inputs":[{"internalType":"address","name":"","type":"address"},{"internalType":"uint256","name":"","type":"uint256"}],"name":"borrowerLoans","outputs":[{"internalType":"uint256","name":"","type":"uint256"}],"stateMutability":"view","type":"function"},{"inputs":[{"internalType":"uint256","name":"creditScore","type":"uint256"}],"name":"calculateInterestRate","outputs":[{"internalType":"uint256","name":"","type":"uint256"}],"stateMutability":"pure","type":"function"},{"inputs":[{"internalType":"uint256","name":"loanId","type":"uint256"}],"name":"calculateLTV","outputs":[{"internalType":"uint256","name":"ltv","type":"uint256"},{"internalType":"uint256","name":"healthFactor","type":"uint256"}],"stateMutability":"view","type":"function"},{"inputs":[{"internalType":"uint256","name":"borrowAmount","type":"uint256"},{"internalType":"uint256","name":"creditScore","type":"uint256"}],"name":"calculateRequiredCollateral","outputs":[{"internalType":"uint256","name":"","type":"uint256"}],"stateMutability":"pure","type":"function"},{"inputs":[{"internalType":"uint256","name":"loanId","type":"uint256"}],"name":"cancelLoan","outputs":[],"stateMutability":"nonpayable","type":"function"},{"inputs":[{"internalType":"address","name":"","type":"address"}],"name":"creditScores","outputs":[{"internalType":"uint256","name":"","type":"uint256"}],"stateMutability":"view","type":"function"},{"inputs":[],"name":"ethPriceFeed","outputs":[{"internalType":"contract AggregatorV3Interface","name":"","type":"address"}],"stateMutability":"view","type":"function"},{"inputs":[],"name":"ethPriceFeedBackup","outputs":[{"internalType":"contract AggregatorV3Interface","name":"","type":"address"}],"stateMutability":"view","type":"function"},{"inputs":[],"name":"getActiveLoanRequests","outputs":[{"internalType":"uint256[]","name":"","type":"uint256[]"}],"stateMutability":"view","type":"function"},{"inputs":[],"name":"getETHPrice","outputs":[{"internalType":"uint256","name":"","type":"uint256"}],"stateMutability":"view","type":"function"},{"inputs":[{"internalType":"uint256","name":"loanId","type":"uint256"}],"name":"getLoanDetails","outputs":[{"internalType":"address","name":"borrower","type":"address"},{"internalType":"address","name":"lender","type":"address"},{"internalType":"uint256","name":"collateralAmount","type":"uint256"},{"internalType":"uint256","name":"outstandingDebt","type":"uint256"},{"internalType":"uint256","name":"currentLTV","type":"uint256"},{"internalType":"uint256","name":"healthFactor","type":"uint256"},{"internalType":"enum DecentralizedP2PLending.LoanStatus","name":"status","type":"uint8"},{"internalType":"bool","name":"collateralDeposited","type":"bool"},{"internalType":"uint256","name":"proposalExpiration","type":"uint256"}],"stateMutability":"view","type":"function"},{"inputs":[{"internalType":"uint256","name":"loanId","type":"uint256"}],"name":"isEligibleForLiquidation","outputs":[{"internalType":"bool","name":"eligible","type":"bool"},{"internalType":"uint256","name":"healthFactor","type":"uint256"}],"stateMutability":"view","type":"function"},{"inputs":[{"internalType":"uint256","name":"","type":"uint256"}],"name":"lastLiquidationTime","outputs":[{"internalType":"uint256","name":"","type":"uint256"}],"stateMutability":"view","type":"function"},{"inputs":[{"internalType":"address","name":"","type":"address"},{"internalType":"uint256","name":"","type":"uint256"}],"name":"lenderLoans","outputs":[{"internalType":"uint256","name":"","type":"uint256"}],"stateMutability":"view","type":"function"},{"inputs":[],"name":"loanCounter","outputs":[{"internalType":"uint256","name":"","type":"uint256"}],"stateMutability":"view","type":"function"},{"inputs":[{"internalType":"uint256","name":"","type":"uint256"}],"name":"loanVaults","outputs":[{"internalType":"address","name":"borrower","type":"address"},{"internalType":"address","name":"lender","type":"address"},{"internalType":"uint256","name":"collateralAmount","type":"uint256"},{"internalType":"uint256","name":"principalAmount","type":"uint256"},{"internalType":"uint256","name":"outstandingDebt","type":"uint256"},{"internalType":"uint256","name":"interestRate","type":"uint256"},{"internalType":"uint256","name":"monthlyPayment","type":"uint256"},{"internalType":"uint256","name":"duration","type":"uint256"},{"internalType":"uint256","name":"proposalTime","type":"uint256"},{"internalType":"uint256","name":"startTime","type":"uint256"},{"internalType":"uint256","name":"lastPaymentTime","type":"uint256"},{"internalType":"uint256","name":"proposalExpiration","type":"uint256"},{"internalType":"uint256","name":"creditScore","type":"uint256"},{"internalType":"address","name":"stablecoin","type":"address"},{"internalType":"enum DecentralizedP2PLending.LoanStatus","name":"status","type":"uint8"},{"internalType":"uint256","name":"totalRepaid","type":"uint256"},{"internalType":"uint256","name":"liquidatedAmount","type":"uint256"},{"internalType":"bool","name":"collateralDeposited","type":"bool"},{"internalType":"address","name":"collateralHolder","type":"address"}],"stateMutability":"view","type":"function"},{"inputs":[{"internalType":"uint256","name":"loanId","type":"uint256"}],"name":"makePayment","outputs":[],"stateMutability":"nonpayable","type":"function"},{"inputs":[{"internalType":"uint256","name":"","type":"uint256"}],"name":"openLoanRequests","outputs":[{"internalType":"bool","name":"","type":"bool"}],"stateMutability":"view","type":"function"},{"inputs":[],"name":"owner","outputs":[{"internalType":"address","name":"","type":"address"}],"stateMutability":"view","type":"function"},{"inputs":[{"internalType":"uint256","name":"loanId","type":"uint256"}],"name":"partialLiquidation","outputs":[],"stateMutability":"nonpayable","type":"function"},{"inputs":[],"name":"pause","outputs":[],"stateMutability":"nonpayable","type":"function"},{"inputs":[],"name":"paused","outputs":[{"internalType":"bool","name":"","type":"bool"}],"stateMutability":"view","type":"function"},{"inputs":[{"internalType":"uint256","name":"borrowAmount","type":"uint256"},{"internalType":"uint256","name":"duration","type":"uint256"},{"internalType":"address","name":"stablecoin","type":"address"},{"internalType":"uint256","name":"creditScore","type":"uint256"}],"name":"proposeLoan","outputs":[{"internalType":"uint256","name":"loanId","type":"uint256"}],"stateMutability":"nonpayable","type":"function"},{"inputs":[],"name":"renounceOwnership","outputs":[],"stateMutability":"nonpayable","type":"function"},{"inputs":[{"internalType":"address","name":"newOwner","type":"address"}],"name":"transferOwnership","outputs":[],"stateMutability":"nonpayable","type":"function"},{"inputs":[],"name":"unpause","outputs":[],"stateMutability":"nonpayable","type":"function"},{"inputs":[],"name":"usdc","outputs":[{"internalType":"contract IERC20","name":"","type":"address"}],"stateMutability":"view","type":"function"},{"inputs":[],"name":"usdt","outputs":[{"internalType":"contract IERC20","name":"","type":"address"}],"stateMutability":"view","type":"function"},{"inputs":[],"name":"weth","outputs":[{"internalType":"contract IWETH","name":"","type":"address"}],"stateMutability":"view","type":"function"},{"inputs":[{"internalType":"uint256","name":"loanId","type":"uint256"},{"internalType":"uint256","name":"amount","type":"uint256"}],"name":"withdrawExcessCollateral","outputs":[],"stateMutability":"nonpayable","type":"function"},{"stateMutability":"payable","type":"receive"}],"evm":{"bytecode":{"linkReferences":{},"object":"610120346200033257601f6200332138819003918201601f1916830191906001600160401b0383118484101762000337578160a09285926040958652833981010312620003325762000051826200034d565b602092620000618482016200034d565b6200006e8483016200034d565b906200008b608062000083606086016200034d565b94016200034d565b93600160005533156200031a5760018054610100600160a81b0319811633600881811b610100600160a81b0316929092179093558851946001600160a01b03949093859391929091901c83167f8be0079c531659141344cd1fd0a4f28419497f9722a3daafe3b4186f6b6457e0600080a316928315620002d85750811692831562000294578116938415620002505781169485156200020c5716958615620001bf575060805260a05260c05260e05261010091825251612fbe91826200036383396080518281816105970152818161141a015281816115a60152818161175a0152818161294801528181612b3b0152612d77015260a05182818161180a01526118ef015260c051828181611d900152611e1f015260e05182818161070301526125c7015251818181610dc101526126090152f35b60849086519062461bcd60e51b82526004820152602160248201527f496e76616c6964206261636b75702070726963652066656564206164647265736044820152607360f81b6064820152fd5b865162461bcd60e51b815260048101899052601a60248201527f496e76616c6964207072696365206665656420616464726573730000000000006044820152606490fd5b865162461bcd60e51b815260048101899052601460248201527f496e76616c6964205553445420616464726573730000000000000000000000006044820152606490fd5b865162461bcd60e51b815260048101899052601460248201527f496e76616c6964205553444320616464726573730000000000000000000000006044820152606490fd5b62461bcd60e51b815260048101899052601460248201527f496e76616c6964205745544820616464726573730000000000000000000000006044820152606490fd5b8551631e4fbdf760e01b815260006004820152602490fd5b600080fd5b634e487b7160e01b600052604160045260246000fd5b51906001600160a01b0382168203620003325756fe60e0806040526004361015610060575b50361561001b57600080fd5b60405162461bcd60e51b815260206004820152601760248201527f44697265637420455448206e6f742061636365707465640000000000000000006044820152606490fd5b600090813560e01c908163015895c914611e79575080630a1d138e14611e4e5780632f48ab7d14611e09578063317e5f05146118ad57806334d9289e1461188f5780633cdb72f1146118395780633e413bee146117f45780633f4ba83a146117895780633fc8cef3146117445780634644004d1461150657806347a4a7cf146112f45780635114cb52146111985780635178f7bc146110325780635aeb44fd146110055780635c975abb14610fe25780635dc565c214610fc55780635fd1a5f514610faa5780636120706f14610f8d57806366877b8d14610df0578063677fd55414610dab57806369679f5a14610d7c578063698eec2914610d5f578063715018a614610cfd57806374c7ce7514610ce057806380bb727314610ca75780638456cb5914610c4d5780638da5cb5b14610c2057806390a8ae9b14610c0357806390d3b37914610be45780639772d7ee14610acc578063a02d8c3a14610aa1578063a5905b5514610a84578063a607a8d914610a61578063aaf5eb6814610a3e578063adfbe22f14610732578063af7665ce146106ed578063b5627e42146106d0578063b66dc774146106a6578063bcc46e8314610542578063bdbfa3de146103e3578063c4cca327146103af578063cc60441214610391578063e256888f14610374578063e3ed19021461031d578063e8f90360146103005763f2fde38b0361000f57346102fd5760203660031901126102fd5761027c611efa565b610284612be6565b6001600160a01b038181169182156102e45760018054610100600160a81b03198116600893841b610100600160a81b031617909155901c167f8be0079c531659141344cd1fd0a4f28419497f9722a3daafe3b4186f6b6457e0600080a380f35b604051631e4fbdf760e01b815260048101859052602490fd5b80fd5b50346102fd57806003193601126102fd57602060405161028a8152f35b50346102fd5760403660031901126102fd57610337611efa565b6001600160a01b03168152600360205260408120805460243592908310156102fd5760206103658484611ee2565b90549060031b1c604051908152f35b50346102fd57806003193601126102fd5760206040516127108152f35b50346102fd57806003193601126102fd57602060405162093a808152f35b50346102fd5760203660031901126102fd576103c9612c15565b6103d1612bc8565b6103dc600435612809565b6001815580f35b50346102fd5760203660031901126102fd57600435610400612bc8565b808252600260205260408220600d81019081549060ff8260a01c16600681101561052e576001036104e9578054336001600160a01b03918216149081156104d9575b50156104a35760ff601061045992015416156120aa565b60ff60a01b1916600560a01b179055808252600760205260408220805460ff191690557fb71becc91961a6b43bcc5b3b630f3dce02c7fd444cf3738c4f188062b1caf5bc8280a280f35b60405162461bcd60e51b815260206004820152600e60248201526d139bdd08185d5d1a1bdc9a5e995960921b6044820152606490fd5b9050600182015416331438610442565b60405162461bcd60e51b815260206004820152601960248201527f43616e6e6f742063616e63656c20616374697665206c6f616e000000000000006044820152606490fd5b634e487b7160e01b86526021600452602486fd5b5060203660031901126102fd5760043561055a612c15565b610562612bc8565b80825260026020526040822060ff600d82015460a01c16600681101561069257600261058e911461213a565b341561065457827f00000000000000000000000000000000000000000000000000000000000000006001600160a01b0316803b15610650578160049160405192838092630d0e30db60e41b825234905af180156106455761062d575b50506002016105fa348254611fb8565b90557f244160b15e69cc411f041d94ae7fab6f6bba85dade8403216c05ff4b920d54496020604051348152a26001815580f35b61063690611ff8565b6106415782386105ea565b8280fd5b6040513d84823e3d90fd5b5080fd5b60405162461bcd60e51b8152602060048201526016602482015275139bc818dbdb1b185d195c985b081c1c9bdd9a59195960521b6044820152606490fd5b634e487b7160e01b84526021600452602484fd5b50346102fd5760203660031901126102fd5760406020916004358152600683522054604051908152f35b50346102fd57806003193601126102fd576020604051612cec8152f35b50346102fd57806003193601126102fd576040517f00000000000000000000000000000000000000000000000000000000000000006001600160a01b03168152602090f35b50346102fd576020806003193601126106505760043590610751612c15565b610759612bc8565b8183526002815260408320600d81015460ff8160a01c16600681101561052e57600103610a0457600182018054909290916001600160a01b03908184166109c757818354163314610982576107b4600b8401544211156120f6565b16604051916370a0823160e01b83523360048401528583602481855afa928315610977578893610947575b506003015480921061090b57604051636eb1769f60e11b8152336004820152306024820152908590829060449082905afa9081156109005787916108ce575b501061089057906007929133906bffffffffffffffffffffffff60a01b1617905533845260048152610853836040862061203a565b8284525260408220805460ff1916905533907f3ad02261725390771e704d06848ed8e414d628daf1b8dbffe111f437c848d6208380a36001815580f35b60405162461bcd60e51b8152600481018490526016602482015275496e73756666696369656e7420616c6c6f77616e636560501b6044820152606490fd5b90508481813d83116108f9575b6108e5818361200c565b810103126108f457513861081e565b600080fd5b503d6108db565b6040513d89823e3d90fd5b60405162461bcd60e51b8152600481018690526014602482015273496e73756666696369656e742062616c616e636560601b6044820152606490fd5b9092508581813d8311610970575b61095f818361200c565b810103126108f457519160036107df565b503d610955565b6040513d8a823e3d90fd5b60405162461bcd60e51b815260048101879052601760248201527f43616e6e6f74206c656e6420746f20796f757273656c660000000000000000006044820152606490fd5b60405162461bcd60e51b8152600481018790526015602482015274131bd85b88185b1c9958591e481858d8d95c1d1959605a1b6044820152606490fd5b60405162461bcd60e51b81526004810184905260126024820152714c6f616e206e6f7420617661696c61626c6560701b6044820152606490fd5b50346102fd57806003193601126102fd576020604051670de0b6b3a76400008152f35b50346102fd57806003193601126102fd576020610a7c6125a1565b604051908152f35b50346102fd57806003193601126102fd5760206040516154608152f35b50346102fd5760203660031901126102fd576040610ac06004356123b4565b82519182526020820152f35b50346102fd57806003193601126102fd5760085490610aea8261236e565b8192825b818110610b76575050610b008361236e565b92825b818110610b52575050506040519182916020808401906020855283518092526020604086019401925b828110610b3b57505050500390f35b835185528695509381019392810192600101610b2c565b80610b616001928597956123a0565b51610b6c82866123a0565b5201939193610b03565b80610b85600192969496611e95565b90549060031b1c80865260206007815260ff6040882054169081610bce575b50610bb4575b5001939193610aee565b610bc7610bc086611fa9565b95886123a0565b5238610baa565b6002915052600b60408720015442111538610ba4565b50346102fd5760203660031901126102fd576020610a7c600435612320565b50346102fd57806003193601126102fd576020604051612af88152f35b50346102fd57806003193601126102fd5760015460405160089190911c6001600160a01b03168152602090f35b50346102fd57806003193601126102fd57610c66612be6565b610c6e612bc8565b600160ff19815416176001557f62e78cea01bee320cd4e420270b5ea74000d11b0c9f74754ebdbfc544b05a2586020604051338152a180f35b50346102fd5760203660031901126102fd576020906040906001600160a01b03610ccf611efa565b168152600583522054604051908152f35b50346102fd57806003193601126102fd5760206040516101f48152f35b50346102fd57806003193601126102fd57610d16612be6565b60018054610100600160a81b0319811690915560009060081c6001600160a01b03167f8be0079c531659141344cd1fd0a4f28419497f9722a3daafe3b4186f6b6457e08280a380f35b50346102fd57806003193601126102fd5760206040516130d48152f35b50346102fd5760203660031901126102fd5760ff60406020926004358152600784522054166040519015158152f35b50346102fd57806003193601126102fd576040517f00000000000000000000000000000000000000000000000000000000000000006001600160a01b03168152602090f35b50346102fd5760203660031901126102fd576004358082526002602052604082209060405190610e1f82611fc5565b60018060a01b0391828454168152826001850154169260208201938452600285015492604083019384526003860154606084015260048601549160808401928352600587015460a0850152600687015460c0850152600787015460e085015260088701549361010094858201526009880154976101209889830152600a810154610140830152600b810154946101608301958652600c82015461018084015283610f1f6010600d850154948386166101a0880152610ee860ff6101c089019760a01c168761202e565b600e8101546101e0880152600f8101546102008801520154968261022087019860ff811615158a5260081c166102408701526123b4565b9590945116995116975190519151946006861015610f795790610f6f95949392915115159651986040519a8b5260208b015260408a01526060890152608088015260a087015260c0860190611f26565b60e0840152820152f35b634e487b7160e01b8c52602160045260248cfd5b50346102fd57806003193601126102fd5760206040516102ee8152f35b50346102fd576020610a7c610fbe36611f10565b90506122ec565b50346102fd57806003193601126102fd576020604051610e108152f35b50346102fd57806003193601126102fd57602060ff600154166040519015158152f35b50346102fd5760203660031901126102fd576040611024600435612185565b825191151582526020820152f35b50346102fd5760203660031901126102fd5760043581526002602052604090208080600160a01b60019003815416600160a01b6001900360018301541660c05260028201546003830154600484015460058501546006860154600787015490600888015492600989015494600a8a015496600b8b015498600c8c01549a600d8d01549c600e01549d600f01549e6010015460805260405160a05260a0515260c05160a0516020015260a0516040015260a0516060015260a0516080015260a05160a0015260a05160c0015260a05160e0015260a051610100015260a051610120015260a051610140015260a051610160015260a0516101800152600160a01b60019003811660a0516101a0015260a0516101c0019060a01c60ff169061115791611f26565b60a0516101e0015260a051610200015260805160ff16151560a0516102200152600160a01b6001900360805160081c1660a051610240015260a05161026090f35b50346102fd5760203660031901126102fd576004356111b5612c15565b6111bd612bc8565b808252600260205260408220600d81015460ff8160a01c1660068110156112e05760026111ea911461213a565b600482019182549182156112a55784928260409260067fcf358e925a8e033c6db877f18d10df6f21cd04ef165537bad5fc814eb23af9609501549280841161129b575b50600182015461124d9184916001600160a01b0390811691339116612c38565b611258828754612178565b809655600e810161126a838254611fb8565b9055600a429101558151908152846020820152a21561128c575b506001815580f35b61129590612ce1565b38611284565b925061124d61122d565b60405162461bcd60e51b8152602060048201526013602482015272131bd85b88185b1c9958591e481c995c185a59606a1b6044820152606490fd5b634e487b7160e01b85526021600452602485fd5b50346102fd5761130336611f10565b61130b612c15565b611313612bc8565b8183526002602052604083209060ff600d83015460a01c1660068110156112e0576002611340911461213a565b81546001600160a01b039190611359908316331461206f565b80156114c1576113676125a1565b61271061138461137a600c8701546122ec565b6004870154611f76565b04670de0b6b3a7640000908181029181830414901517156114ad57906113a991611f89565b606981029080820460691490151715611499576064600291049301805493808511600014611492576113db9085612178565b821161144d578160209361143f92611414837f418fa546da9a59e023019f8534c2637a41893ae085076065f69f0a493dd12e0398612178565b905533907f000000000000000000000000000000000000000000000000000000000000000016612c91565b604051908152a26001815580f35b60405162461bcd60e51b815260206004820152601b60248201527f4578636565647320776974686472617761626c6520616d6f756e7400000000006044820152606490fd5b50856113db565b634e487b7160e01b86526011600452602486fd5b634e487b7160e01b87526011600452602487fd5b60405162461bcd60e51b815260206004820152601d60248201527f416d6f756e74206d7573742062652067726561746572207468616e20300000006044820152606490fd5b5060203660031901126102fd5760043561151e612c15565b611526612bc8565b80825260026020526040822080546001600160a01b039061154a908216331461206f565b600d82019060ff825460a01c16600681101561052e5760010361170e57600183019080825416156116d457600284018054341061168f576010850161159360ff825416156120aa565b6115a3600b8701544211156120f6565b827f00000000000000000000000000000000000000000000000000000000000000001688813b156102fd57604051630d0e30db60e41b8152918290600490829034905af1801561168457611669575b50805460ff19166001179055349055825491548454600386015461161f9490939182169282169116612c38565b805460ff60a01b1916600160a11b1790554260098201819055600a909101557fcb4c701313b0db2ed5902d923d21b853d01e3a14cb2af2dce00e309eaa0e134c8280a26001815580f35b9761167a61161f9594939299611ff8565b97909192936115f2565b6040513d8b823e3d90fd5b60405162461bcd60e51b815260206004820152601760248201527f496e73756666696369656e7420636f6c6c61746572616c0000000000000000006044820152606490fd5b60405162461bcd60e51b8152602060048201526012602482015271139bc81b195b99195c88185cdcda59db995960721b6044820152606490fd5b60405162461bcd60e51b815260206004820152600e60248201526d496e76616c69642073746174757360901b6044820152606490fd5b50346102fd57806003193601126102fd576040517f00000000000000000000000000000000000000000000000000000000000000006001600160a01b03168152602090f35b50346102fd57806003193601126102fd576117a2612be6565b60015460ff8116156117e25760ff19166001557f5db9ee0a495bf2e6ff9c91a7834c1ba4fdd244a5e8aa4e537bd38aeae4b073aa6020604051338152a180f35b604051638dfc202b60e01b8152600490fd5b50346102fd57806003193601126102fd576040517f00000000000000000000000000000000000000000000000000000000000000006001600160a01b03168152602090f35b50346102fd5760403660031901126102fd57611853611efa565b6001600160a01b03168152600460205260408120805460243592908310156102fd5760206118818484611ee2565b90546040519160031b1c8152f35b50346102fd57806003193601126102fd576020600954604051908152f35b50346102fd5760803660031901126102fd576044356001600160a01b0381168103610650576118da612bc8565b60043515611db8576001600160a01b038181167f0000000000000000000000000000000000000000000000000000000000000000909116148015611d82575b15611d485761012c606435101580611d3a575b15611cfe5762278d0080602435101580611cee575b15611cb6576119516064356122ec565b61271061196861195f6125a1565b92600435611f76565b04670de0b6b3a764000090818102918183041490151715611ca2579061198d91611f89565b90611999606435612320565b926119d16119c664496cebb8006119bd6024356119b889600435611f76565b611f76565b04600435611fb8565b926024350483611f89565b6119dc600954611fa9565b948560095562093a80420142116114ad57604051936119fa85611fc5565b3385528760208601528560408601526004356060860152608085015260a084015260c083015260243560e083015242610100830152846101208301528461014083015262093a80420161016083015260643561018083015260018060a01b03166101a082015260016101c0820152836101e082015283610200820152836102208201523061024082015282845260026020526040842060018060a01b038251166bffffffffffffffffffffffff60a01b9081835416178255600182019060018060a01b036020850151169082541617905560408201516002820155606082015160038201556080820151600482015560a0820151600582015560c0820151600682015560e0820151600782015561010082015160088201556101208201516009820155610140820151600a820155610160820151600b820155610180820151600c820155600d81019060018060a01b036101a0840151169180546101c0850151936006851015611c8e579060109392916affffffffffffffffffffff60a81b809660ff60a01b9060a01b169216171790556101e0840151600e820155610200840151600f820155019161022081015115159160ff845492610240610100600160a81b0391015160081b1693169116171790553383526003602052611be1826040852061203a565b818352600760205260408320805460ff19166001179055600854600160401b811015611c7a5792611c1a84600160209601600855611e95565b81549060031b9085821b91600019901b191617905533815260058452604060643591205560405190600435825283820152817fb95b715564424faaea3405321c2fca777cec2d0cce8026437155361f28211e9060403393a3604051908152f35b634e487b7160e01b84526041600452602484fd5b634e487b7160e01b89526021600452602489fd5b634e487b7160e01b85526011600452602485fd5b60405162461bcd60e51b815260206004820152601060248201526f24b73b30b634b210323ab930ba34b7b760811b6044820152606490fd5b506301e133806024351115611941565b60405162461bcd60e51b8152602060048201526014602482015273496e76616c6964206372656469742073636f726560601b6044820152606490fd5b50610352606435111561192c565b60405162461bcd60e51b815260206004820152601260248201527124b73b30b634b21039ba30b13632b1b7b4b760711b6044820152606490fd5b506001600160a01b038181167f000000000000000000000000000000000000000000000000000000000000000090911614611919565b60405162461bcd60e51b8152602060048201526024808201527f426f72726f7720616d6f756e74206d75737420626520677265617465722074686044820152630616e20360e41b6064820152608490fd5b50346102fd57806003193601126102fd576040517f00000000000000000000000000000000000000000000000000000000000000006001600160a01b03168152602090f35b50346102fd5760203660031901126102fd57600435906008548210156102fd57602061188183611e95565b9050346106505781600319360112610650578061022660209252f35b600854811015611ecc5760086000527ff3f7a9fe364faab93b216da50a3214154f22a0a2b415b23a84c8169e8b636ee30190600090565b634e487b7160e01b600052603260045260246000fd5b8054821015611ecc5760005260206000200190600090565b600435906001600160a01b03821682036108f457565b60409060031901126108f4576004359060243590565b906006821015611f335752565b634e487b7160e01b600052602160045260246000fd5b9061251c91828102928184041490151715611f6057565b634e487b7160e01b600052601160045260246000fd5b81810292918115918404141715611f6057565b8115611f93570490565b634e487b7160e01b600052601260045260246000fd5b6000198114611f605760010190565b91908201809211611f6057565b610260810190811067ffffffffffffffff821117611fe257604052565b634e487b7160e01b600052604160045260246000fd5b67ffffffffffffffff8111611fe257604052565b90601f8019910116810190811067ffffffffffffffff821117611fe257604052565b6006821015611f335752565b8054600160401b811015611fe25761205791600182018155611ee2565b819291549060031b91821b91600019901b1916179055565b1561207657565b60405162461bcd60e51b815260206004820152600c60248201526b2737ba103137b93937bbb2b960a11b6044820152606490fd5b156120b157565b60405162461bcd60e51b815260206004820152601c60248201527f436f6c6c61746572616c20616c7265616479206465706f7369746564000000006044820152606490fd5b156120fd57565b60405162461bcd60e51b8152602060048201526015602482015274131bd85b881c1c9bdc1bdcd85b08195e1c1a5c9959605a1b6044820152606490fd5b1561214157565b60405162461bcd60e51b815260206004820152600f60248201526e4c6f616e206e6f742061637469766560881b6044820152606490fd5b91908203918211611f6057565b906000918083526002602052604083206040516121a181611fc5565b61024060018060a01b03808454168352806001850154166020840152600284015460408401526003840154606084015260048401546080840152600584015460a0840152600684015460c0840152600784015460e084015260088401546101008401526009840154610120840152600a840154610140840152600b840154610160840152600c8401546101808401526010600d850154948286166101a086015261225660ff6101c087019760a01c168761202e565b600e8101546101e0860152600f810154610200860152015460ff8116151561022085015260081c16910152516006811015610692576002036122e75761229b816123b4565b939050612af8841091826122b0575b50509190565b8152600660205260408120546154608101925082106122d35750421138806122aa565b634e487b7160e01b81526011600452602490fd5b508190565b6102ee81106122fc57506132c890565b61028a811061230c57506136b090565b6102261161231a57613a9890565b61445c90565b6102ee908181106123335750506101f490565b61028a8110612340575090565b610226119050612350576103e890565b6105dc90565b67ffffffffffffffff8111611fe25760051b60200190565b9061237882612356565b612385604051918261200c565b8281528092612396601f1991612356565b0190602036910137565b8051821015611ecc5760209160051b010190565b9060009182526002602052604082206040516123cf81611fc5565b60018060a01b0391828154168252826001820154166020830152600281015491604081019283526003820154606082015261024060048301549460808301958652600584015460a0840152600684015460c0840152600784015460e084015260088401546101008401526009840154610120840152600a840154610140840152600b840154610160840152600c8401546101808401526010600d850154948286166101a086015261248b60ff6101c087019760a01c168761202e565b600e8101546101e0860152600f810154610200860152015460ff8116151561022085015260081c169101525160068110156112e057600203612552576124e3670de0b6b3a7640000916124dc6125a1565b9051611f76565b0490805193841561254757821561253c57612710948581029081048603612528578361250e91611f89565b94808402938404036122d357505161252591611f89565b90565b634e487b7160e01b82526011600452602482fd5b600019945092915050565b935060001992915050565b50508190565b519069ffffffffffffffffffff821682036108f457565b908160a09103126108f45761258381612558565b91602082015191604081015191612525608060608401519301612558565b60408051633fabe5a360e21b80825260a09260049290916001600160a01b0391858186817f000000000000000000000000000000000000000000000000000000000000000087165afa8060009283926127e2575b5061274057505084908484518094819382527f0000000000000000000000000000000000000000000000000000000000000000165afa9081156127355760009485926126fd575b505060008413156126c357612654610e109142612178565b101561268b57506402540be40091828102928184041490151715612676575090565b601190634e487b7160e01b6000525260246000fd5b906020606492519162461bcd60e51b835282015260126024820152715374616c65206261636b757020707269636560701b6044820152fd5b815162461bcd60e51b81526020818501526014602482015273496e76616c6964206261636b757020707269636560601b6044820152606490fd5b61272193955080919250903d1061272e575b612719818361200c565b81019061256f565b509492505092388061263c565b503d61270f565b82513d6000823e3d90fd5b92508095506000915013156127af5761275c610e109142612178565b101561277e57506402540be40091828102928184041490151715612676575090565b906020606492519162461bcd60e51b8352820152600b60248201526a5374616c6520707269636560a81b6044820152fd5b815162461bcd60e51b8152602081850152600d60248201526c496e76616c696420707269636560981b6044820152606490fd5b9092506127fc9150873d891161272e57612719818361200c565b50939250509190386125f5565b906000918083526020926002845260409384822094600d86019160ff835460a01c1660068110156112e0576002612840911461213a565b84845260068152818420546154608101809111611ca257421115612b86576128688588612dc4565b9291949094612ac4575483516370a0823160e01b81523360048201526001600160a01b03918216908381602481855afa908115612a39579085918991612a93575b5010612a43578451636eb1769f60e11b81523360048201523060248201528381604481855afa908115612a39579085918991612a04575b50106129b15783828b60048b9c9d9b9a9b019a838c549061290091612178565b8c55600282018a81549061291391612178565b9055600f82018a81549061292691611fb8565b90558a815260068752884291205560010154163361294393612c38565b8433917f0000000000000000000000000000000000000000000000000000000000000000169161297292612c91565b82519384528301527f34656211e4d5cc1a3c219c74290bcf60ea54c774a8d5594bcd378723721640ce91a254156129a65750565b6129af90612ce1565b565b845162461bcd60e51b815260048101849052602660248201527f496e73756666696369656e7420616c6c6f77616e636520666f72206c697175696044820152653230ba34b7b760d11b6064820152608490fd5b809250858092503d8311612a32575b612a1d818361200c565b81010312612a2e57849051386128e0565b8780fd5b503d612a13565b86513d8a823e3d90fd5b845162461bcd60e51b8152600481018490526024808201527f496e73756666696369656e742062616c616e636520666f72206c6971756964616044820152633a34b7b760e11b6064820152608490fd5b809250858092503d8311612abd575b612aac818361200c565b81010312612a2e57849051386128a9565b503d612aa2565b509050847f054ec7ece823327cac62b619c1ad0d5ec021821029747486a9635b77a351be6095969750846002939594505252612b81828220600281019280845494556004820155600d8101600160a21b60ff60a01b1982541617905582600f8201556001808060a01b039101612b608483835416847f000000000000000000000000000000000000000000000000000000000000000016612c91565b5493519283529092166001600160a01b031660208201529081906040820190565b0390a2565b606491519062461bcd60e51b82526004820152601b60248201527f4c69717569646174696f6e20636f6f6c646f776e2061637469766500000000006044820152fd5b60ff60015416612bd457565b60405163d93c066560e01b8152600490fd5b60015460081c6001600160a01b03163303612bfd57565b60405163118cdaa760e01b8152336004820152602490fd5b600260005414612c26576002600055565b604051633ee5aeb560e01b8152600490fd5b6040516323b872dd60e01b60208201526001600160a01b03928316602482015292909116604483015260648083019390935291815260a081019181831067ffffffffffffffff841117611fe2576129af92604052612f20565b60405163a9059cbb60e01b60208201526001600160a01b039092166024830152604480830193909352918152608081019167ffffffffffffffff831182841017611fe2576129af92604052612f20565b600081815260026020819052604082209081018054929055600d8101805460ff60a01b1916600360a01b179055829180612d40575b5050507f02ca5489b37dd363d1302bac719e8ee40e540ffbe8c12253570fea63e11cad71600080a2565b81547f054ec7ece823327cac62b619c1ad0d5ec021821029747486a9635b77a351be60926001600160a01b0391612d9d90849084167f00000000000000000000000000000000000000000000000000000000000000008516612c91565b546040805193845291166001600160a01b03166020830152819081010390a2803880612d16565b9190612dd2612af8916123b4565b90501015612edb57612de26125a1565b906004830154916130d49081840284159285820414831715611f605760029561271080920490612e1f84670de0b6b3a7640000998a930154611f76565b0481811115612ec85790612e3291612178565b86810290808204881490151715611f605782612e4d91611f89565b9569021e19e0c9bab240000080612e6c612e67868b611f76565b611f49565b0496808811612e83575b5050505050506000929190565b919395975091939550809583820293828504141715611f605702918183041490151715611f6057612eb6612ebc92611f49565b90611f89565b91388080808080612e76565b5050505050915050600190600090600090565b60405162461bcd60e51b815260206004820152601860248201527f4c69717569646174696f6e206e6f7420726571756972656400000000000000006044820152606490fd5b906000602091828151910182855af115612f7c576000513d612f7357506001600160a01b0381163b155b612f515750565b604051635274afe760e01b81526001600160a01b039091166004820152602490fd5b60011415612f4a565b6040513d6000823e3d90fdfea26469706673582212203b1651446c649e61c8e944958deea5b2afd714d6b37ce6785e00ba8780e1c5ca64736f6c63430008180033","opcodes":"PUSH2 0x120 CALLVALUE PUSH3 0x332 JUMPI PUSH1 0x1F PUSH3 0x3321 CODESIZE DUP2 SWAP1 SUB SWAP2 DUP3 ADD PUSH1 0x1F NOT AND DUP4 ADD SWAP2 SWAP1 PUSH1 0x1 PUSH1 0x1 PUSH1 0x40 SHL SUB DUP4 GT DUP5 DUP5 LT OR PUSH3 0x337 JUMPI DUP2 PUSH1 0xA0 SWAP3 DUP6 SWAP3 PUSH1 0x40 SWAP6 DUP7 MSTORE DUP4 CODECOPY DUP2 ADD SUB SLT PUSH3 0x332 JUMPI PUSH3 0x51 DUP3 PUSH3 0x34D JUMP JUMPDEST PUSH1 0x20 SWAP3 PUSH3 0x61 DUP5 DUP3 ADD PUSH3 0x34D JUMP JUMPDEST PUSH3 0x6E DUP5 DUP4 ADD PUSH3 0x34D JUMP JUMPDEST SWAP1 PUSH3 0x8B PUSH1 0x80 PUSH3 0x83 PUSH1 0x60 DUP7 ADD PUSH3 0x34D JUMP JUMPDEST SWAP5 ADD PUSH3 0x34D JUMP JUMPDEST SWAP4 PUSH1 0x1 PUSH1 0x0 SSTORE CALLER ISZERO PUSH3 0x31A JUMPI PUSH1 0x1 DUP1 SLOAD PUSH2 0x100 PUSH1 0x1 PUSH1 0xA8 SHL SUB NOT DUP2 AND CALLER PUSH1 0x8 DUP2 DUP2 SHL PUSH2 0x100 PUSH1 0x1 PUSH1 0xA8 SHL SUB AND SWAP3 SWAP1 SWAP3 OR SWAP1 SWAP4 SSTORE DUP9 MLOAD SWAP5 PUSH1 0x1 PUSH1 0x1 PUSH1 0xA0 SHL SUB SWAP5 SWAP1 SWAP4 DUP6 SWAP4 SWAP2 SWAP3 SWAP1 SWAP2 SWAP1 SHR DUP4 AND PUSH32 0x8BE0079C531659141344CD1FD0A4F28419497F9722A3DAAFE3B4186F6B6457E0 PUSH1 0x0 DUP1 LOG3 AND SWAP3 DUP4 ISZERO PUSH3 0x2D8 JUMPI POP DUP2 AND SWAP3 DUP4 ISZERO PUSH3 0x294 JUMPI DUP2 AND SWAP4 DUP5 ISZERO PUSH3 0x250 JUMPI DUP2 AND SWAP5 DUP6 ISZERO PUSH3 0x20C JUMPI AND SWAP6 DUP7 ISZERO PUSH3 0x1BF JUMPI POP PUSH1 0x80 MSTORE PUSH1 0xA0 MSTORE PUSH1 0xC0 MSTORE PUSH1 0xE0 MSTORE PUSH2 0x100 SWAP2 DUP3 MSTORE MLOAD PUSH2 0x2FBE SWAP2 DUP3 PUSH3 0x363 DUP4 CODECOPY PUSH1 0x80 MLOAD DUP3 DUP2 DUP2 PUSH2 0x597 ADD MSTORE DUP2 DUP2 PUSH2 0x141A ADD MSTORE DUP2 DUP2 PUSH2 0x15A6 ADD MSTORE DUP2 DUP2 PUSH2 0x175A ADD MSTORE DUP2 DUP2 PUSH2 0x2948 ADD MSTORE DUP2 DUP2 PUSH2 0x2B3B ADD MSTORE PUSH2 0x2D77 ADD MSTORE PUSH1 0xA0 MLOAD DUP3 DUP2 DUP2 PUSH2 0x180A ADD MSTORE PUSH2 0x18EF ADD MSTORE PUSH1 0xC0 MLOAD DUP3 DUP2 DUP2 PUSH2 0x1D90 ADD MSTORE PUSH2 0x1E1F ADD MSTORE PUSH1 0xE0 MLOAD DUP3 DUP2 DUP2 PUSH2 0x703 ADD MSTORE PUSH2 0x25C7 ADD MSTORE MLOAD DUP2 DUP2 DUP2 PUSH2 0xDC1 ADD MSTORE PUSH2 0x2609 ADD MSTORE RETURN JUMPDEST PUSH1 0x84 SWAP1 DUP7 MLOAD SWAP1 PUSH3 0x461BCD PUSH1 0xE5 SHL DUP3 MSTORE PUSH1 0x4 DUP3 ADD MSTORE PUSH1 0x21 PUSH1 0x24 DUP3 ADD MSTORE PUSH32 0x496E76616C6964206261636B7570207072696365206665656420616464726573 PUSH1 0x44 DUP3 ADD MSTORE PUSH1 0x73 PUSH1 0xF8 SHL PUSH1 0x64 DUP3 ADD MSTORE REVERT JUMPDEST DUP7 MLOAD PUSH3 0x461BCD PUSH1 0xE5 SHL DUP2 MSTORE PUSH1 0x4 DUP2 ADD DUP10 SWAP1 MSTORE PUSH1 0x1A PUSH1 0x24 DUP3 ADD MSTORE PUSH32 0x496E76616C696420707269636520666565642061646472657373000000000000 PUSH1 0x44 DUP3 ADD MSTORE PUSH1 0x64 SWAP1 REVERT JUMPDEST DUP7 MLOAD PUSH3 0x461BCD PUSH1 0xE5 SHL DUP2 MSTORE PUSH1 0x4 DUP2 ADD DUP10 SWAP1 MSTORE PUSH1 0x14 PUSH1 0x24 DUP3 ADD MSTORE PUSH32 0x496E76616C696420555344542061646472657373000000000000000000000000 PUSH1 0x44 DUP3 ADD MSTORE PUSH1 0x64 SWAP1 REVERT JUMPDEST DUP7 MLOAD PUSH3 0x461BCD PUSH1 0xE5 SHL DUP2 MSTORE PUSH1 0x4 DUP2 ADD DUP10 SWAP1 MSTORE PUSH1 0x14 PUSH1 0x24 DUP3 ADD MSTORE PUSH32 0x496E76616C696420555344432061646472657373000000000000000000000000 PUSH1 0x44 DUP3 ADD MSTORE PUSH1 0x64 SWAP1 REVERT JUMPDEST PUSH3 0x461BCD PUSH1 0xE5 SHL DUP2 MSTORE PUSH1 0x4 DUP2 ADD DUP10 SWAP1 MSTORE PUSH1 0x14 PUSH1 0x24 DUP3 ADD MSTORE PUSH32 0x496E76616C696420574554482061646472657373000000000000000000000000 PUSH1 0x44 DUP3 ADD MSTORE PUSH1 0x64 SWAP1 REVERT JUMPDEST DUP6 MLOAD PUSH4 0x1E4FBDF7 PUSH1 0xE0 SHL DUP2 MSTORE PUSH1 0x0 PUSH1 0x4 DUP3 ADD MSTORE PUSH1 0x24 SWAP1 REVERT JUMPDEST PUSH1 0x0 DUP1 REVERT JUMPDEST PUSH4 0x4E487B71 PUSH1 0xE0 SHL PUSH1 0x0 MSTORE PUSH1 0x41 PUSH1 0x4 MSTORE PUSH1 0x24 PUSH1 0x0 REVERT JUMPDEST MLOAD SWAP1 PUSH1 0x1 PUSH1 0x1 PUSH1 0xA0 SHL SUB DUP3 AND DUP3 SUB PUSH3 0x332 JUMPI JUMP INVALID PUSH1 0xE0 DUP1 PUSH1 0x40 MSTORE PUSH1 0x4 CALLDATASIZE LT ISZERO PUSH2 0x60 JUMPI JUMPDEST POP CALLDATASIZE ISZERO PUSH2 0x1B JUMPI PUSH1 0x0 DUP1 REVERT JUMPDEST PUSH1 0x40 MLOAD PUSH3 0x461BCD PUSH1 0xE5 SHL DUP2 MSTORE PUSH1 0x20 PUSH1 0x4 DUP3 ADD MSTORE PUSH1 0x17 PUSH1 0x24 DUP3 ADD MSTORE PUSH32 0x44697265637420455448206E6F74206163636570746564000000000000000000 PUSH1 0x44 DUP3 ADD MSTORE PUSH1 0x64 SWAP1 REVERT JUMPDEST PUSH1 0x0 SWAP1 DUP2 CALLDATALOAD PUSH1 0xE0 SHR SWAP1 DUP2 PUSH4 0x15895C9 EQ PUSH2 0x1E79 JUMPI POP DUP1 PUSH4 0xA1D138E EQ PUSH2 0x1E4E JUMPI DUP1 PUSH4 0x2F48AB7D EQ PUSH2 0x1E09 JUMPI DUP1 PUSH4 0x317E5F05 EQ PUSH2 0x18AD JUMPI DUP1 PUSH4 0x34D9289E EQ PUSH2 0x188F JUMPI DUP1 PUSH4 0x3CDB72F1 EQ PUSH2 0x1839 JUMPI DUP1 PUSH4 0x3E413BEE EQ PUSH2 0x17F4 JUMPI DUP1 PUSH4 0x3F4BA83A EQ PUSH2 0x1789 JUMPI DUP1 PUSH4 0x3FC8CEF3 EQ PUSH2 0x1744 JUMPI DUP1 PUSH4 0x4644004D EQ PUSH2 0x1506 JUMPI DUP1 PUSH4 0x47A4A7CF EQ PUSH2 0x12F4 JUMPI DUP1 PUSH4 0x5114CB52 EQ PUSH2 0x1198 JUMPI DUP1 PUSH4 0x5178F7BC EQ PUSH2 0x1032 JUMPI DUP1 PUSH4 0x5AEB44FD EQ PUSH2 0x1005 JUMPI DUP1 PUSH4 0x5C975ABB EQ PUSH2 0xFE2 JUMPI DUP1 PUSH4 0x5DC565C2 EQ PUSH2 0xFC5 JUMPI DUP1 PUSH4 0x5FD1A5F5 EQ PUSH2 0xFAA JUMPI DUP1 PUSH4 0x6120706F EQ PUSH2 0xF8D JUMPI DUP1 PUSH4 0x66877B8D EQ PUSH2 0xDF0 JUMPI DUP1 PUSH4 0x677FD554 EQ PUSH2 0xDAB JUMPI DUP1 PUSH4 0x69679F5A EQ PUSH2 0xD7C JUMPI DUP1 PUSH4 0x698EEC29 EQ PUSH2 0xD5F JUMPI DUP1 PUSH4 0x715018A6 EQ PUSH2 0xCFD JUMPI DUP1 PUSH4 0x74C7CE75 EQ PUSH2 0xCE0 JUMPI DUP1 PUSH4 0x80BB7273 EQ PUSH2 0xCA7 JUMPI DUP1 PUSH4 0x8456CB59 EQ PUSH2 0xC4D JUMPI DUP1 PUSH4 0x8DA5CB5B EQ PUSH2 0xC20 JUMPI DUP1 PUSH4 0x90A8AE9B EQ PUSH2 0xC03 JUMPI DUP1 PUSH4 0x90D3B379 EQ PUSH2 0xBE4 JUMPI DUP1 PUSH4 0x9772D7EE EQ PUSH2 0xACC JUMPI DUP1 PUSH4 0xA02D8C3A EQ PUSH2 0xAA1 JUMPI DUP1 PUSH4 0xA5905B55 EQ PUSH2 0xA84 JUMPI DUP1 PUSH4 0xA607A8D9 EQ PUSH2 0xA61 JUMPI DUP1 PUSH4 0xAAF5EB68 EQ PUSH2 0xA3E JUMPI DUP1 PUSH4 0xADFBE22F EQ PUSH2 0x732 JUMPI DUP1 PUSH4 0xAF7665CE EQ PUSH2 0x6ED JUMPI DUP1 PUSH4 0xB5627E42 EQ PUSH2 0x6D0 JUMPI DUP1 PUSH4 0xB66DC774 EQ PUSH2 0x6A6 JUMPI DUP1 PUSH4 0xBCC46E83 EQ PUSH2 0x542 JUMPI DUP1 PUSH4 0xBDBFA3DE EQ PUSH2 0x3E3 JUMPI DUP1 PUSH4 0xC4CCA327 EQ PUSH2 0x3AF JUMPI DUP1 PUSH4 0xCC604412 EQ PUSH2 0x391 JUMPI DUP1 PUSH4 0xE256888F EQ PUSH2 0x374 JUMPI DUP1 PUSH4 0xE3ED1902 EQ PUSH2 0x31D JUMPI DUP1 PUSH4 0xE8F90360 EQ PUSH2 0x300 JUMPI PUSH4 0xF2FDE38B SUB PUSH2 0xF JUMPI CALLVALUE PUSH2 0x2FD JUMPI PUSH1 0x20 CALLDATASIZE PUSH1 0x3 NOT ADD SLT PUSH2 0x2FD JUMPI PUSH2 0x27C PUSH2 0x1EFA JUMP JUMPDEST PUSH2 0x284 PUSH2 0x2BE6 JUMP JUMPDEST PUSH1 0x1 PUSH1 0x1 PUSH1 0xA0 SHL SUB DUP2 DUP2 AND SWAP2 DUP3 ISZERO PUSH2 0x2E4 JUMPI PUSH1 0x1 DUP1 SLOAD PUSH2 0x100 PUSH1 0x1 PUSH1 0xA8 SHL SUB NOT DUP2 AND PUSH1 0x8 SWAP4 DUP5 SHL PUSH2 0x100 PUSH1 0x1 PUSH1 0xA8 SHL SUB AND OR SWAP1 SWAP2 SSTORE SWAP1 SHR AND PUSH32 0x8BE0079C531659141344CD1FD0A4F28419497F9722A3DAAFE3B4186F6B6457E0 PUSH1 0x0 DUP1 LOG3 DUP1 RETURN JUMPDEST PUSH1 0x40 MLOAD PUSH4 0x1E4FBDF7 PUSH1 0xE0 SHL DUP2 MSTORE PUSH1 0x4 DUP2 ADD DUP6 SWAP1 MSTORE PUSH1 0x24 SWAP1 REVERT JUMPDEST DUP1 REVERT JUMPDEST POP CALLVALUE PUSH2 0x2FD JUMPI DUP1 PUSH1 0x3 NOT CALLDATASIZE ADD SLT PUSH2 0x2FD JUMPI PUSH1 0x20 PUSH1 0x40 MLOAD PUSH2 0x28A DUP2 MSTORE RETURN JUMPDEST POP CALLVALUE PUSH2 0x2FD JUMPI PUSH1 0x40 CALLDATASIZE PUSH1 0x3 NOT ADD SLT PUSH2 0x2FD JUMPI PUSH2 0x337 PUSH2 0x1EFA JUMP JUMPDEST PUSH1 0x1 PUSH1 0x1 PUSH1 0xA0 SHL SUB AND DUP2 MSTORE PUSH1 0x3 PUSH1 0x20 MSTORE PUSH1 0x40 DUP2 KECCAK256 DUP1 SLOAD PUSH1 0x24 CALLDATALOAD SWAP3 SWAP1 DUP4 LT ISZERO PUSH2 0x2FD JUMPI PUSH1 0x20 PUSH2 0x365 DUP5 DUP5 PUSH2 0x1EE2 JUMP JUMPDEST SWAP1 SLOAD SWAP1 PUSH1 0x3 SHL SHR PUSH1 0x40 MLOAD SWAP1 DUP2 MSTORE RETURN JUMPDEST POP CALLVALUE PUSH2 0x2FD JUMPI DUP1 PUSH1 0x3 NOT CALLDATASIZE ADD SLT PUSH2 0x2FD JUMPI PUSH1 0x20 PUSH1 0x40 MLOAD PUSH2 0x2710 DUP2 MSTORE RETURN JUMPDEST POP CALLVALUE PUSH2 0x2FD JUMPI DUP1 PUSH1 0x3 NOT CALLDATASIZE ADD SLT PUSH2 0x2FD JUMPI PUSH1 0x20 PUSH1 0x40 MLOAD PUSH3 0x93A80 DUP2 MSTORE RETURN JUMPDEST POP CALLVALUE PUSH2 0x2FD JUMPI PUSH1 0x20 CALLDATASIZE PUSH1 0x3 NOT ADD SLT PUSH2 0x2FD JUMPI PUSH2 0x3C9 PUSH2 0x2C15 JUMP JUMPDEST PUSH2 0x3D1 PUSH2 0x2BC8 JUMP JUMPDEST PUSH2 0x3DC PUSH1 0x4 CALLDATALOAD PUSH2 0x2809 JUMP JUMPDEST PUSH1 0x1 DUP2 SSTORE DUP1 RETURN JUMPDEST POP CALLVALUE PUSH2 0x2FD JUMPI PUSH1 0x20 CALLDATASIZE PUSH1 0x3 NOT ADD SLT PUSH2 0x2FD JUMPI PUSH1 0x4 CALLDATALOAD PUSH2 0x400 PUSH2 0x2BC8 JUMP JUMPDEST DUP1 DUP3 MSTORE PUSH1 0x2 PUSH1 0x20 MSTORE PUSH1 0x40 DUP3 KECCAK256 PUSH1 0xD DUP2 ADD SWAP1 DUP2 SLOAD SWAP1 PUSH1 0xFF DUP3 PUSH1 0xA0 SHR AND PUSH1 0x6 DUP2 LT ISZERO PUSH2 0x52E JUMPI PUSH1 0x1 SUB PUSH2 0x4E9 JUMPI DUP1 SLOAD CALLER PUSH1 0x1 PUSH1 0x1 PUSH1 0xA0 SHL SUB SWAP2 DUP3 AND EQ SWAP1 DUP2 ISZERO PUSH2 0x4D9 JUMPI JUMPDEST POP ISZERO PUSH2 0x4A3 JUMPI PUSH1 0xFF PUSH1 0x10 PUSH2 0x459 SWAP3 ADD SLOAD AND ISZERO PUSH2 0x20AA JUMP JUMPDEST PUSH1 0xFF PUSH1 0xA0 SHL NOT AND PUSH1 0x5 PUSH1 0xA0 SHL OR SWAP1 SSTORE DUP1 DUP3 MSTORE PUSH1 0x7 PUSH1 0x20 MSTORE PUSH1 0x40 DUP3 KECCAK256 DUP1 SLOAD PUSH1 0xFF NOT AND SWAP1 SSTORE PUSH32 0xB71BECC91961A6B43BCC5B3B630F3DCE02C7FD444CF3738C4F188062B1CAF5BC DUP3 DUP1 LOG2 DUP1 RETURN JUMPDEST PUSH1 0x40 MLOAD PUSH3 0x461BCD PUSH1 0xE5 SHL DUP2 MSTORE PUSH1 0x20 PUSH1 0x4 DUP3 ADD MSTORE PUSH1 0xE PUSH1 0x24 DUP3 ADD MSTORE PUSH14 0x139BDD08185D5D1A1BDC9A5E9959 PUSH1 0x92 SHL PUSH1 0x44 DUP3 ADD MSTORE PUSH1 0x64 SWAP1 REVERT JUMPDEST SWAP1 POP PUSH1 0x1 DUP3 ADD SLOAD AND CALLER EQ CODESIZE PUSH2 0x442 JUMP JUMPDEST PUSH1 0x40 MLOAD PUSH3 0x461BCD PUSH1 0xE5 SHL DUP2 MSTORE PUSH1 0x20 PUSH1 0x4 DUP3 ADD MSTORE PUSH1 0x19 PUSH1 0x24 DUP3 ADD MSTORE PUSH32 0x43616E6E6F742063616E63656C20616374697665206C6F616E00000000000000 PUSH1 0x44 DUP3 ADD MSTORE PUSH1 0x64 SWAP1 REVERT JUMPDEST PUSH4 0x4E487B71 PUSH1 0xE0 SHL DUP7 MSTORE PUSH1 0x21 PUSH1 0x4 MSTORE PUSH1 0x24 DUP7 REVERT JUMPDEST POP PUSH1 0x20 CALLDATASIZE PUSH1 0x3 NOT ADD SLT PUSH2 0x2FD JUMPI PUSH1 0x4 CALLDATALOAD PUSH2 0x55A PUSH2 0x2C15 JUMP JUMPDEST PUSH2 0x562 PUSH2 0x2BC8 JUMP JUMPDEST DUP1 DUP3 MSTORE PUSH1 0x2 PUSH1 0x20 MSTORE PUSH1 0x40 DUP3 KECCAK256 PUSH1 0xFF PUSH1 0xD DUP3 ADD SLOAD PUSH1 0xA0 SHR AND PUSH1 0x6 DUP2 LT ISZERO PUSH2 0x692 JUMPI PUSH1 0x2 PUSH2 0x58E SWAP2 EQ PUSH2 0x213A JUMP JUMPDEST CALLVALUE ISZERO PUSH2 0x654 JUMPI DUP3 PUSH32 0x0 PUSH1 0x1 PUSH1 0x1 PUSH1 0xA0 SHL SUB AND DUP1 EXTCODESIZE ISZERO PUSH2 0x650 JUMPI DUP2 PUSH1 0x4 SWAP2 PUSH1 0x40 MLOAD SWAP3 DUP4 DUP1 SWAP3 PUSH4 0xD0E30DB PUSH1 0xE4 SHL DUP3 MSTORE CALLVALUE SWAP1 GAS CALL DUP1 ISZERO PUSH2 0x645 JUMPI PUSH2 0x62D JUMPI JUMPDEST POP POP PUSH1 0x2 ADD PUSH2 0x5FA CALLVALUE DUP3 SLOAD PUSH2 0x1FB8 JUMP JUMPDEST SWAP1 SSTORE PUSH32 0x244160B15E69CC411F041D94AE7FAB6F6BBA85DADE8403216C05FF4B920D5449 PUSH1 0x20 PUSH1 0x40 MLOAD CALLVALUE DUP2 MSTORE LOG2 PUSH1 0x1 DUP2 SSTORE DUP1 RETURN JUMPDEST PUSH2 0x636 SWAP1 PUSH2 0x1FF8 JUMP JUMPDEST PUSH2 0x641 JUMPI DUP3 CODESIZE PUSH2 0x5EA JUMP JUMPDEST DUP3 DUP1 REVERT JUMPDEST PUSH1 0x40 MLOAD RETURNDATASIZE DUP5 DUP3 RETURNDATACOPY RETURNDATASIZE SWAP1 REVERT JUMPDEST POP DUP1 REVERT JUMPDEST PUSH1 0x40 MLOAD PUSH3 0x461BCD PUSH1 0xE5 SHL DUP2 MSTORE PUSH1 0x20 PUSH1 0x4 DUP3 ADD MSTORE PUSH1 0x16 PUSH1 0x24 DUP3 ADD MSTORE PUSH22 0x139BC818DBDB1B185D195C985B081C1C9BDD9A591959 PUSH1 0x52 SHL PUSH1 0x44 DUP3 ADD MSTORE PUSH1 0x64 SWAP1 REVERT JUMPDEST PUSH4 0x4E487B71 PUSH1 0xE0 SHL DUP5 MSTORE PUSH1 0x21 PUSH1 0x4 MSTORE PUSH1 0x24 DUP5 REVERT JUMPDEST POP CALLVALUE PUSH2 0x2FD JUMPI PUSH1 0x20 CALLDATASIZE PUSH1 0x3 NOT ADD SLT PUSH2 0x2FD JUMPI PUSH1 0x40 PUSH1 0x20 SWAP2 PUSH1 0x4 CALLDATALOAD DUP2 MSTORE PUSH1 0x6 DUP4 MSTORE KECCAK256 SLOAD PUSH1 0x40 MLOAD SWAP1 DUP2 MSTORE RETURN JUMPDEST POP CALLVALUE PUSH2 0x2FD JUMPI DUP1 PUSH1 0x3 NOT CALLDATASIZE ADD SLT PUSH2 0x2FD JUMPI PUSH1 0x20 PUSH1 0x40 MLOAD PUSH2 0x2CEC DUP2 MSTORE RETURN JUMPDEST POP CALLVALUE PUSH2 0x2FD JUMPI DUP1 PUSH1 0x3 NOT CALLDATASIZE ADD SLT PUSH2 0x2FD JUMPI PUSH1 0x40 MLOAD PUSH32 0x0 PUSH1 0x1 PUSH1 0x1 PUSH1 0xA0 SHL SUB AND DUP2 MSTORE PUSH1 0x20 SWAP1 RETURN JUMPDEST POP CALLVALUE PUSH2 0x2FD JUMPI PUSH1 0x20 DUP1 PUSH1 0x3 NOT CALLDATASIZE ADD SLT PUSH2 0x650 JUMPI PUSH1 0x4 CALLDATALOAD SWAP1 PUSH2 0x751 PUSH2 0x2C15 JUMP JUMPDEST PUSH2 0x759 PUSH2 0x2BC8 JUMP JUMPDEST DUP2 DUP4 MSTORE PUSH1 0x2 DUP2 MSTORE PUSH1 0x40 DUP4 KECCAK256 PUSH1 0xD DUP2 ADD SLOAD PUSH1 0xFF DUP2 PUSH1 0xA0 SHR AND PUSH1 0x6 DUP2 LT ISZERO PUSH2 0x52E JUMPI PUSH1 0x1 SUB PUSH2 0xA04 JUMPI PUSH1 0x1 DUP3 ADD DUP1 SLOAD SWAP1 SWAP3 SWAP1 SWAP2 PUSH1 0x1 PUSH1 0x1 PUSH1 0xA0 SHL SUB SWAP1 DUP2 DUP5 AND PUSH2 0x9C7 JUMPI DUP2 DUP4 SLOAD AND CALLER EQ PUSH2 0x982 JUMPI PUSH2 0x7B4 PUSH1 0xB DUP5 ADD SLOAD TIMESTAMP GT ISZERO PUSH2 0x20F6 JUMP JUMPDEST AND PUSH1 0x40 MLOAD SWAP2 PUSH4 0x70A08231 PUSH1 0xE0 SHL DUP4 MSTORE CALLER PUSH1 0x4 DUP5 ADD MSTORE DUP6 DUP4 PUSH1 0x24 DUP2 DUP6 GAS STATICCALL SWAP3 DUP4 ISZERO PUSH2 0x977 JUMPI DUP9 SWAP4 PUSH2 0x947 JUMPI JUMPDEST POP PUSH1 0x3 ADD SLOAD DUP1 SWAP3 LT PUSH2 0x90B JUMPI PUSH1 0x40 MLOAD PUSH4 0x6EB1769F PUSH1 0xE1 SHL DUP2 MSTORE CALLER PUSH1 0x4 DUP3 ADD MSTORE ADDRESS PUSH1 0x24 DUP3 ADD MSTORE SWAP1 DUP6 SWAP1 DUP3 SWAP1 PUSH1 0x44 SWAP1 DUP3 SWAP1 GAS STATICCALL SWAP1 DUP2 ISZERO PUSH2 0x900 JUMPI DUP8 SWAP2 PUSH2 0x8CE JUMPI JUMPDEST POP LT PUSH2 0x890 JUMPI SWAP1 PUSH1 0x7 SWAP3 SWAP2 CALLER SWAP1 PUSH12 0xFFFFFFFFFFFFFFFFFFFFFFFF PUSH1 0xA0 SHL AND OR SWAP1 SSTORE CALLER DUP5 MSTORE PUSH1 0x4 DUP2 MSTORE PUSH2 0x853 DUP4 PUSH1 0x40 DUP7 KECCAK256 PUSH2 0x203A JUMP JUMPDEST DUP3 DUP5 MSTORE MSTORE PUSH1 0x40 DUP3 KECCAK256 DUP1 SLOAD PUSH1 0xFF NOT AND SWAP1 SSTORE CALLER SWAP1 PUSH32 0x3AD02261725390771E704D06848ED8E414D628DAF1B8DBFFE111F437C848D620 DUP4 DUP1 LOG3 PUSH1 0x1 DUP2 SSTORE DUP1 RETURN JUMPDEST PUSH1 0x40 MLOAD PUSH3 0x461BCD PUSH1 0xE5 SHL DUP2 MSTORE PUSH1 0x4 DUP2 ADD DUP5 SWAP1 MSTORE PUSH1 0x16 PUSH1 0x24 DUP3 ADD MSTORE PUSH22 0x496E73756666696369656E7420616C6C6F77616E6365 PUSH1 0x50 SHL PUSH1 0x44 DUP3 ADD MSTORE PUSH1 0x64 SWAP1 REVERT JUMPDEST SWAP1 POP DUP5 DUP2 DUP2 RETURNDATASIZE DUP4 GT PUSH2 0x8F9 JUMPI JUMPDEST PUSH2 0x8E5 DUP2 DUP4 PUSH2 0x200C JUMP JUMPDEST DUP2 ADD SUB SLT PUSH2 0x8F4 JUMPI MLOAD CODESIZE PUSH2 0x81E JUMP JUMPDEST PUSH1 0x0 DUP1 REVERT JUMPDEST POP RETURNDATASIZE PUSH2 0x8DB JUMP JUMPDEST PUSH1 0x40 MLOAD RETURNDATASIZE DUP10 DUP3 RETURNDATACOPY RETURNDATASIZE SWAP1 REVERT JUMPDEST PUSH1 0x40 MLOAD PUSH3 0x461BCD PUSH1 0xE5 SHL DUP2 MSTORE PUSH1 0x4 DUP2 ADD DUP7 SWAP1 MSTORE PUSH1 0x14 PUSH1 0x24 DUP3 ADD MSTORE PUSH20 0x496E73756666696369656E742062616C616E6365 PUSH1 0x60 SHL PUSH1 0x44 DUP3 ADD MSTORE PUSH1 0x64 SWAP1 REVERT JUMPDEST SWAP1 SWAP3 POP DUP6 DUP2 DUP2 RETURNDATASIZE DUP4 GT PUSH2 0x970 JUMPI JUMPDEST PUSH2 0x95F DUP2 DUP4 PUSH2 0x200C JUMP JUMPDEST DUP2 ADD SUB SLT PUSH2 0x8F4 JUMPI MLOAD SWAP2 PUSH1 0x3 PUSH2 0x7DF JUMP JUMPDEST POP RETURNDATASIZE PUSH2 0x955 JUMP JUMPDEST PUSH1 0x40 MLOAD RETURNDATASIZE DUP11 DUP3 RETURNDATACOPY RETURNDATASIZE SWAP1 REVERT JUMPDEST PUSH1 0x40 MLOAD PUSH3 0x461BCD PUSH1 0xE5 SHL DUP2 MSTORE PUSH1 0x4 DUP2 ADD DUP8 SWAP1 MSTORE PUSH1 0x17 PUSH1 0x24 DUP3 ADD MSTORE PUSH32 0x43616E6E6F74206C656E6420746F20796F757273656C66000000000000000000 PUSH1 0x44 DUP3 ADD MSTORE PUSH1 0x64 SWAP1 REVERT JUMPDEST PUSH1 0x40 MLOAD PUSH3 0x461BCD PUSH1 0xE5 SHL DUP2 MSTORE PUSH1 0x4 DUP2 ADD DUP8 SWAP1 MSTORE PUSH1 0x15 PUSH1 0x24 DUP3 ADD MSTORE PUSH21 0x131BD85B88185B1C9958591E481858D8D95C1D1959 PUSH1 0x5A SHL PUSH1 0x44 DUP3 ADD MSTORE PUSH1 0x64 SWAP1 REVERT JUMPDEST PUSH1 0x40 MLOAD PUSH3 0x461BCD PUSH1 0xE5 SHL DUP2 MSTORE PUSH1 0x4 DUP2 ADD DUP5 SWAP1 MSTORE PUSH1 0x12 PUSH1 0x24 DUP3 ADD MSTORE PUSH18 0x4C6F616E206E6F7420617661696C61626C65 PUSH1 0x70 SHL PUSH1 0x44 DUP3 ADD MSTORE PUSH1 0x64 SWAP1 REVERT JUMPDEST POP CALLVALUE PUSH2 0x2FD JUMPI DUP1 PUSH1 0x3 NOT CALLDATASIZE ADD SLT PUSH2 0x2FD JUMPI PUSH1 0x20 PUSH1 0x40 MLOAD PUSH8 0xDE0B6B3A7640000 DUP2 MSTORE RETURN JUMPDEST POP CALLVALUE PUSH2 0x2FD JUMPI DUP1 PUSH1 0x3 NOT CALLDATASIZE ADD SLT PUSH2 0x2FD JUMPI PUSH1 0x20 PUSH2 0xA7C PUSH2 0x25A1 JUMP JUMPDEST PUSH1 0x40 MLOAD SWAP1 DUP2 MSTORE RETURN JUMPDEST POP CALLVALUE PUSH2 0x2FD JUMPI DUP1 PUSH1 0x3 NOT CALLDATASIZE ADD SLT PUSH2 0x2FD JUMPI PUSH1 0x20 PUSH1 0x40 MLOAD PUSH2 0x5460 DUP2 MSTORE RETURN JUMPDEST POP CALLVALUE PUSH2 0x2FD JUMPI PUSH1 0x20 CALLDATASIZE PUSH1 0x3 NOT ADD SLT PUSH2 0x2FD JUMPI PUSH1 0x40 PUSH2 0xAC0 PUSH1 0x4 CALLDATALOAD PUSH2 0x23B4 JUMP JUMPDEST DUP3 MLOAD SWAP2 DUP3 MSTORE PUSH1 0x20 DUP3 ADD MSTORE RETURN JUMPDEST POP CALLVALUE PUSH2 0x2FD JUMPI DUP1 PUSH1 0x3 NOT CALLDATASIZE ADD SLT PUSH2 0x2FD JUMPI PUSH1 0x8 SLOAD SWAP1 PUSH2 0xAEA DUP3 PUSH2 0x236E JUMP JUMPDEST DUP2 SWAP3 DUP3 JUMPDEST DUP2 DUP2 LT PUSH2 0xB76 JUMPI POP POP PUSH2 0xB00 DUP4 PUSH2 0x236E JUMP JUMPDEST SWAP3 DUP3 JUMPDEST DUP2 DUP2 LT PUSH2 0xB52 JUMPI POP POP POP PUSH1 0x40 MLOAD SWAP2 DUP3 SWAP2 PUSH1 0x20 DUP1 DUP5 ADD SWAP1 PUSH1 0x20 DUP6 MSTORE DUP4 MLOAD DUP1 SWAP3 MSTORE PUSH1 0x20 PUSH1 0x40 DUP7 ADD SWAP5 ADD SWAP3 JUMPDEST DUP3 DUP2 LT PUSH2 0xB3B JUMPI POP POP POP POP SUB SWAP1 RETURN JUMPDEST DUP4 MLOAD DUP6 MSTORE DUP7 SWAP6 POP SWAP4 DUP2 ADD SWAP4 SWAP3 DUP2 ADD SWAP3 PUSH1 0x1 ADD PUSH2 0xB2C JUMP JUMPDEST DUP1 PUSH2 0xB61 PUSH1 0x1 SWAP3 DUP6 SWAP8 SWAP6 PUSH2 0x23A0 JUMP JUMPDEST MLOAD PUSH2 0xB6C DUP3 DUP7 PUSH2 0x23A0 JUMP JUMPDEST MSTORE ADD SWAP4 SWAP2 SWAP4 PUSH2 0xB03 JUMP JUMPDEST DUP1 PUSH2 0xB85 PUSH1 0x1 SWAP3 SWAP7 SWAP5 SWAP7 PUSH2 0x1E95 JUMP JUMPDEST SWAP1 SLOAD SWAP1 PUSH1 0x3 SHL SHR DUP1 DUP7 MSTORE PUSH1 0x20 PUSH1 0x7 DUP2 MSTORE PUSH1 0xFF PUSH1 0x40 DUP9 KECCAK256 SLOAD AND SWAP1 DUP2 PUSH2 0xBCE JUMPI JUMPDEST POP PUSH2 0xBB4 JUMPI JUMPDEST POP ADD SWAP4 SWAP2 SWAP4 PUSH2 0xAEE JUMP JUMPDEST PUSH2 0xBC7 PUSH2 0xBC0 DUP7 PUSH2 0x1FA9 JUMP JUMPDEST SWAP6 DUP9 PUSH2 0x23A0 JUMP JUMPDEST MSTORE CODESIZE PUSH2 0xBAA JUMP JUMPDEST PUSH1 0x2 SWAP2 POP MSTORE PUSH1 0xB PUSH1 0x40 DUP8 KECCAK256 ADD SLOAD TIMESTAMP GT ISZERO CODESIZE PUSH2 0xBA4 JUMP JUMPDEST POP CALLVALUE PUSH2 0x2FD JUMPI PUSH1 0x20 CALLDATASIZE PUSH1 0x3 NOT ADD SLT PUSH2 0x2FD JUMPI PUSH1 0x20 PUSH2 0xA7C PUSH1 0x4 CALLDATALOAD PUSH2 0x2320 JUMP JUMPDEST POP CALLVALUE PUSH2 0x2FD JUMPI DUP1 PUSH1 0x3 NOT CALLDATASIZE ADD SLT PUSH2 0x2FD JUMPI PUSH1 0x20 PUSH1 0x40 MLOAD PUSH2 0x2AF8 DUP2 MSTORE RETURN JUMPDEST POP CALLVALUE PUSH2 0x2FD JUMPI DUP1 PUSH1 0x3 NOT CALLDATASIZE ADD SLT PUSH2 0x2FD JUMPI PUSH1 0x1 SLOAD PUSH1 0x40 MLOAD PUSH1 0x8 SWAP2 SWAP1 SWAP2 SHR PUSH1 0x1 PUSH1 0x1 PUSH1 0xA0 SHL SUB AND DUP2 MSTORE PUSH1 0x20 SWAP1 RETURN JUMPDEST POP CALLVALUE PUSH2 0x2FD JUMPI DUP1 PUSH1 0x3 NOT CALLDATASIZE ADD SLT PUSH2 0x2FD JUMPI PUSH2 0xC66 PUSH2 0x2BE6 JUMP JUMPDEST PUSH2 0xC6E PUSH2 0x2BC8 JUMP JUMPDEST PUSH1 0x1 PUSH1 0xFF NOT DUP2 SLOAD AND OR PUSH1 0x1 SSTORE PUSH32 0x62E78CEA01BEE320CD4E420270B5EA74000D11B0C9F74754EBDBFC544B05A258 PUSH1 0x20 PUSH1 0x40 MLOAD CALLER DUP2 MSTORE LOG1 DUP1 RETURN JUMPDEST POP CALLVALUE PUSH2 0x2FD JUMPI PUSH1 0x20 CALLDATASIZE PUSH1 0x3 NOT ADD SLT PUSH2 0x2FD JUMPI PUSH1 0x20 SWAP1 PUSH1 0x40 SWAP1 PUSH1 0x1 PUSH1 0x1 PUSH1 0xA0 SHL SUB PUSH2 0xCCF PUSH2 0x1EFA JUMP JUMPDEST AND DUP2 MSTORE PUSH1 0x5 DUP4 MSTORE KECCAK256 SLOAD PUSH1 0x40 MLOAD SWAP1 DUP2 MSTORE RETURN JUMPDEST POP CALLVALUE PUSH2 0x2FD JUMPI DUP1 PUSH1 0x3 NOT CALLDATASIZE ADD SLT PUSH2 0x2FD JUMPI PUSH1 0x20 PUSH1 0x40 MLOAD PUSH2 0x1F4 DUP2 MSTORE RETURN JUMPDEST POP CALLVALUE PUSH2 0x2FD JUMPI DUP1 PUSH1 0x3 NOT CALLDATASIZE ADD SLT PUSH2 0x2FD JUMPI PUSH2 0xD16 PUSH2 0x2BE6 JUMP JUMPDEST PUSH1 0x1 DUP1 SLOAD PUSH2 0x100 PUSH1 0x1 PUSH1 0xA8 SHL SUB NOT DUP2 AND SWAP1 SWAP2 SSTORE PUSH1 0x0 SWAP1 PUSH1 0x8 SHR PUSH1 0x1 PUSH1 0x1 PUSH1 0xA0 SHL SUB AND PUSH32 0x8BE0079C531659141344CD1FD0A4F28419497F9722A3DAAFE3B4186F6B6457E0 DUP3 DUP1 LOG3 DUP1 RETURN JUMPDEST POP CALLVALUE PUSH2 0x2FD JUMPI DUP1 PUSH1 0x3 NOT CALLDATASIZE ADD SLT PUSH2 0x2FD JUMPI PUSH1 0x20 PUSH1 0x40 MLOAD PUSH2 0x30D4 DUP2 MSTORE RETURN JUMPDEST POP CALLVALUE PUSH2 0x2FD JUMPI PUSH1 0x20 CALLDATASIZE PUSH1 0x3 NOT ADD SLT PUSH2 0x2FD JUMPI PUSH1 0xFF PUSH1 0x40 PUSH1 0x20 SWAP3 PUSH1 0x4 CALLDATALOAD DUP2 MSTORE PUSH1 0x7 DUP5 MSTORE KECCAK256 SLOAD AND PUSH1 0x40 MLOAD SWAP1 ISZERO ISZERO DUP2 MSTORE RETURN JUMPDEST POP CALLVALUE PUSH2 0x2FD JUMPI DUP1 PUSH1 0x3 NOT CALLDATASIZE ADD SLT PUSH2 0x2FD JUMPI PUSH1 0x40 MLOAD PUSH32 0x0 PUSH1 0x1 PUSH1 0x1 PUSH1 0xA0 SHL SUB AND DUP2 MSTORE PUSH1 0x20 SWAP1 RETURN JUMPDEST POP CALLVALUE PUSH2 0x2FD JUMPI PUSH1 0x20 CALLDATASIZE PUSH1 0x3 NOT ADD SLT PUSH2 0x2FD JUMPI PUSH1 0x4 CALLDATALOAD DUP1 DUP3 MSTORE PUSH1 0x2 PUSH1 0x20 MSTORE PUSH1 0x40 DUP3 KECCAK256 SWAP1 PUSH1 0x40 MLOAD SWAP1 PUSH2 0xE1F DUP3 PUSH2 0x1FC5 JUMP JUMPDEST PUSH1 0x1 DUP1 PUSH1 0xA0 SHL SUB SWAP2 DUP3 DUP5 SLOAD AND DUP2 MSTORE DUP3 PUSH1 0x1 DUP6 ADD SLOAD AND SWAP3 PUSH1 0x20 DUP3 ADD SWAP4 DUP5 MSTORE PUSH1 0x2 DUP6 ADD SLOAD SWAP3 PUSH1 0x40 DUP4 ADD SWAP4 DUP5 MSTORE PUSH1 0x3 DUP7 ADD SLOAD PUSH1 0x60 DUP5 ADD MSTORE PUSH1 0x4 DUP7 ADD SLOAD SWAP2 PUSH1 0x80 DUP5 ADD SWAP3 DUP4 MSTORE PUSH1 0x5 DUP8 ADD SLOAD PUSH1 0xA0 DUP6 ADD MSTORE PUSH1 0x6 DUP8 ADD SLOAD PUSH1 0xC0 DUP6 ADD MSTORE PUSH1 0x7 DUP8 ADD SLOAD PUSH1 0xE0 DUP6 ADD MSTORE PUSH1 0x8 DUP8 ADD SLOAD SWAP4 PUSH2 0x100 SWAP5 DUP6 DUP3 ADD MSTORE PUSH1 0x9 DUP9 ADD SLOAD SWAP8 PUSH2 0x120 SWAP9 DUP10 DUP4 ADD MSTORE PUSH1 0xA DUP2 ADD SLOAD PUSH2 0x140 DUP4 ADD MSTORE PUSH1 0xB DUP2 ADD SLOAD SWAP5 PUSH2 0x160 DUP4 ADD SWAP6 DUP7 MSTORE PUSH1 0xC DUP3 ADD SLOAD PUSH2 0x180 DUP5 ADD MSTORE DUP4 PUSH2 0xF1F PUSH1 0x10 PUSH1 0xD DUP6 ADD SLOAD SWAP5 DUP4 DUP7 AND PUSH2 0x1A0 DUP9 ADD MSTORE PUSH2 0xEE8 PUSH1 0xFF PUSH2 0x1C0 DUP10 ADD SWAP8 PUSH1 0xA0 SHR AND DUP8 PUSH2 0x202E JUMP JUMPDEST PUSH1 0xE DUP2 ADD SLOAD PUSH2 0x1E0 DUP9 ADD MSTORE PUSH1 0xF DUP2 ADD SLOAD PUSH2 0x200 DUP9 ADD MSTORE ADD SLOAD SWAP7 DUP3 PUSH2 0x220 DUP8 ADD SWAP9 PUSH1 0xFF DUP2 AND ISZERO ISZERO DUP11 MSTORE PUSH1 0x8 SHR AND PUSH2 0x240 DUP8 ADD MSTORE PUSH2 0x23B4 JUMP JUMPDEST SWAP6 SWAP1 SWAP5 MLOAD AND SWAP10 MLOAD AND SWAP8 MLOAD SWAP1 MLOAD SWAP2 MLOAD SWAP5 PUSH1 0x6 DUP7 LT ISZERO PUSH2 0xF79 JUMPI SWAP1 PUSH2 0xF6F SWAP6 SWAP5 SWAP4 SWAP3 SWAP2 MLOAD ISZERO ISZERO SWAP7 MLOAD SWAP9 PUSH1 0x40 MLOAD SWAP11 DUP12 MSTORE PUSH1 0x20 DUP12 ADD MSTORE PUSH1 0x40 DUP11 ADD MSTORE PUSH1 0x60 DUP10 ADD MSTORE PUSH1 0x80 DUP9 ADD MSTORE PUSH1 0xA0 DUP8 ADD MSTORE PUSH1 0xC0 DUP7 ADD SWAP1 PUSH2 0x1F26 JUMP JUMPDEST PUSH1 0xE0 DUP5 ADD MSTORE DUP3 ADD MSTORE RETURN JUMPDEST PUSH4 0x4E487B71 PUSH1 0xE0 SHL DUP13 MSTORE PUSH1 0x21 PUSH1 0x4 MSTORE PUSH1 0x24 DUP13 REVERT JUMPDEST POP CALLVALUE PUSH2 0x2FD JUMPI DUP1 PUSH1 0x3 NOT CALLDATASIZE ADD SLT PUSH2 0x2FD JUMPI PUSH1 0x20 PUSH1 0x40 MLOAD PUSH2 0x2EE DUP2 MSTORE RETURN JUMPDEST POP CALLVALUE PUSH2 0x2FD JUMPI PUSH1 0x20 PUSH2 0xA7C PUSH2 0xFBE CALLDATASIZE PUSH2 0x1F10 JUMP JUMPDEST SWAP1 POP PUSH2 0x22EC JUMP JUMPDEST POP CALLVALUE PUSH2 0x2FD JUMPI DUP1 PUSH1 0x3 NOT CALLDATASIZE ADD SLT PUSH2 0x2FD JUMPI PUSH1 0x20 PUSH1 0x40 MLOAD PUSH2 0xE10 DUP2 MSTORE RETURN JUMPDEST POP CALLVALUE PUSH2 0x2FD JUMPI DUP1 PUSH1 0x3 NOT CALLDATASIZE ADD SLT PUSH2 0x2FD JUMPI PUSH1 0x20 PUSH1 0xFF PUSH1 0x1 SLOAD AND PUSH1 0x40 MLOAD SWAP1 ISZERO ISZERO DUP2 MSTORE RETURN JUMPDEST POP CALLVALUE PUSH2 0x2FD JUMPI PUSH1 0x20 CALLDATASIZE PUSH1 0x3 NOT ADD SLT PUSH2 0x2FD JUMPI PUSH1 0x40 PUSH2 0x1024 PUSH1 0x4 CALLDATALOAD PUSH2 0x2185 JUMP JUMPDEST DUP3 MLOAD SWAP2 ISZERO ISZERO DUP3 MSTORE PUSH1 0x20 DUP3 ADD MSTORE RETURN JUMPDEST POP CALLVALUE PUSH2 0x2FD JUMPI PUSH1 0x20 CALLDATASIZE PUSH1 0x3 NOT ADD SLT PUSH2 0x2FD JUMPI PUSH1 0x4 CALLDATALOAD DUP2 MSTORE PUSH1 0x2 PUSH1 0x20 MSTORE PUSH1 0x40 SWAP1 KECCAK256 DUP1 DUP1 PUSH1 0x1 PUSH1 0xA0 SHL PUSH1 0x1 SWAP1 SUB DUP2 SLOAD AND PUSH1 0x1 PUSH1 0xA0 SHL PUSH1 0x1 SWAP1 SUB PUSH1 0x1 DUP4 ADD SLOAD AND PUSH1 0xC0 MSTORE PUSH1 0x2 DUP3 ADD SLOAD PUSH1 0x3 DUP4 ADD SLOAD PUSH1 0x4 DUP5 ADD SLOAD PUSH1 0x5 DUP6 ADD SLOAD PUSH1 0x6 DUP7 ADD SLOAD PUSH1 0x7 DUP8 ADD SLOAD SWAP1 PUSH1 0x8 DUP9 ADD SLOAD SWAP3 PUSH1 0x9 DUP10 ADD SLOAD SWAP5 PUSH1 0xA DUP11 ADD SLOAD SWAP7 PUSH1 0xB DUP12 ADD SLOAD SWAP9 PUSH1 0xC DUP13 ADD SLOAD SWAP11 PUSH1 0xD DUP14 ADD SLOAD SWAP13 PUSH1 0xE ADD SLOAD SWAP14 PUSH1 0xF ADD SLOAD SWAP15 PUSH1 0x10 ADD SLOAD PUSH1 0x80 MSTORE PUSH1 0x40 MLOAD PUSH1 0xA0 MSTORE PUSH1 0xA0 MLOAD MSTORE PUSH1 0xC0 MLOAD PUSH1 0xA0 MLOAD PUSH1 0x20 ADD MSTORE PUSH1 0xA0 MLOAD PUSH1 0x40 ADD MSTORE PUSH1 0xA0 MLOAD PUSH1 0x60 ADD MSTORE PUSH1 0xA0 MLOAD PUSH1 0x80 ADD MSTORE PUSH1 0xA0 MLOAD PUSH1 0xA0 ADD MSTORE PUSH1 0xA0 MLOAD PUSH1 0xC0 ADD MSTORE PUSH1 0xA0 MLOAD PUSH1 0xE0 ADD MSTORE PUSH1 0xA0 MLOAD PUSH2 0x100 ADD MSTORE PUSH1 0xA0 MLOAD PUSH2 0x120 ADD MSTORE PUSH1 0xA0 MLOAD PUSH2 0x140 ADD MSTORE PUSH1 0xA0 MLOAD PUSH2 0x160 ADD MSTORE PUSH1 0xA0 MLOAD PUSH2 0x180 ADD MSTORE PUSH1 0x1 PUSH1 0xA0 SHL PUSH1 0x1 SWAP1 SUB DUP2 AND PUSH1 0xA0 MLOAD PUSH2 0x1A0 ADD MSTORE PUSH1 0xA0 MLOAD PUSH2 0x1C0 ADD SWAP1 PUSH1 0xA0 SHR PUSH1 0xFF AND SWAP1 PUSH2 0x1157 SWAP2 PUSH2 0x1F26 JUMP JUMPDEST PUSH1 0xA0 MLOAD PUSH2 0x1E0 ADD MSTORE PUSH1 0xA0 MLOAD PUSH2 0x200 ADD MSTORE PUSH1 0x80 MLOAD PUSH1 0xFF AND ISZERO ISZERO PUSH1 0xA0 MLOAD PUSH2 0x220 ADD MSTORE PUSH1 0x1 PUSH1 0xA0 SHL PUSH1 0x1 SWAP1 SUB PUSH1 0x80 MLOAD PUSH1 0x8 SHR AND PUSH1 0xA0 MLOAD PUSH2 0x240 ADD MSTORE PUSH1 0xA0 MLOAD PUSH2 0x260 SWAP1 RETURN JUMPDEST POP CALLVALUE PUSH2 0x2FD JUMPI PUSH1 0x20 CALLDATASIZE PUSH1 0x3 NOT ADD SLT PUSH2 0x2FD JUMPI PUSH1 0x4 CALLDATALOAD PUSH2 0x11B5 PUSH2 0x2C15 JUMP JUMPDEST PUSH2 0x11BD PUSH2 0x2BC8 JUMP JUMPDEST DUP1 DUP3 MSTORE PUSH1 0x2 PUSH1 0x20 MSTORE PUSH1 0x40 DUP3 KECCAK256 PUSH1 0xD DUP2 ADD SLOAD PUSH1 0xFF DUP2 PUSH1 0xA0 SHR AND PUSH1 0x6 DUP2 LT ISZERO PUSH2 0x12E0 JUMPI PUSH1 0x2 PUSH2 0x11EA SWAP2 EQ PUSH2 0x213A JUMP JUMPDEST PUSH1 0x4 DUP3 ADD SWAP2 DUP3 SLOAD SWAP2 DUP3 ISZERO PUSH2 0x12A5 JUMPI DUP5 SWAP3 DUP3 PUSH1 0x40 SWAP3 PUSH1 0x6 PUSH32 0xCF358E925A8E033C6DB877F18D10DF6F21CD04EF165537BAD5FC814EB23AF960 SWAP6 ADD SLOAD SWAP3 DUP1 DUP5 GT PUSH2 0x129B JUMPI JUMPDEST POP PUSH1 0x1 DUP3 ADD SLOAD PUSH2 0x124D SWAP2 DUP5 SWAP2 PUSH1 0x1 PUSH1 0x1 PUSH1 0xA0 SHL SUB SWAP1 DUP2 AND SWAP2 CALLER SWAP2 AND PUSH2 0x2C38 JUMP JUMPDEST PUSH2 0x1258 DUP3 DUP8 SLOAD PUSH2 0x2178 JUMP JUMPDEST DUP1 SWAP7 SSTORE PUSH1 0xE DUP2 ADD PUSH2 0x126A DUP4 DUP3 SLOAD PUSH2 0x1FB8 JUMP JUMPDEST SWAP1 SSTORE PUSH1 0xA TIMESTAMP SWAP2 ADD SSTORE DUP2 MLOAD SWAP1 DUP2 MSTORE DUP5 PUSH1 0x20 DUP3 ADD MSTORE LOG2 ISZERO PUSH2 0x128C JUMPI JUMPDEST POP PUSH1 0x1 DUP2 SSTORE DUP1 RETURN JUMPDEST PUSH2 0x1295 SWAP1 PUSH2 0x2CE1 JUMP JUMPDEST CODESIZE PUSH2 0x1284 JUMP JUMPDEST SWAP3 POP PUSH2 0x124D PUSH2 0x122D JUMP JUMPDEST PUSH1 0x40 MLOAD PUSH3 0x461BCD PUSH1 0xE5 SHL DUP2 MSTORE PUSH1 0x20 PUSH1 0x4 DUP3 ADD MSTORE PUSH1 0x13 PUSH1 0x24 DUP3 ADD MSTORE PUSH19 0x131BD85B88185B1C9958591E481C995C185A59 PUSH1 0x6A SHL PUSH1 0x44 DUP3 ADD MSTORE PUSH1 0x64 SWAP1 REVERT JUMPDEST PUSH4 0x4E487B71 PUSH1 0xE0 SHL DUP6 MSTORE PUSH1 0x21 PUSH1 0x4 MSTORE PUSH1 0x24 DUP6 REVERT JUMPDEST POP CALLVALUE PUSH2 0x2FD JUMPI PUSH2 0x1303 CALLDATASIZE PUSH2 0x1F10 JUMP JUMPDEST PUSH2 0x130B PUSH2 0x2C15 JUMP JUMPDEST PUSH2 0x1313 PUSH2 0x2BC8 JUMP JUMPDEST DUP2 DUP4 MSTORE PUSH1 0x2 PUSH1 0x20 MSTORE PUSH1 0x40 DUP4 KECCAK256 SWAP1 PUSH1 0xFF PUSH1 0xD DUP4 ADD SLOAD PUSH1 0xA0 SHR AND PUSH1 0x6 DUP2 LT ISZERO PUSH2 0x12E0 JUMPI PUSH1 0x2 PUSH2 0x1340 SWAP2 EQ PUSH2 0x213A JUMP JUMPDEST DUP2 SLOAD PUSH1 0x1 PUSH1 0x1 PUSH1 0xA0 SHL SUB SWAP2 SWAP1 PUSH2 0x1359 SWAP1 DUP4 AND CALLER EQ PUSH2 0x206F JUMP JUMPDEST DUP1 ISZERO PUSH2 0x14C1 JUMPI PUSH2 0x1367 PUSH2 0x25A1 JUMP JUMPDEST PUSH2 0x2710 PUSH2 0x1384 PUSH2 0x137A PUSH1 0xC DUP8 ADD SLOAD PUSH2 0x22EC JUMP JUMPDEST PUSH1 0x4 DUP8 ADD SLOAD PUSH2 0x1F76 JUMP JUMPDEST DIV PUSH8 0xDE0B6B3A7640000 SWAP1 DUP2 DUP2 MUL SWAP2 DUP2 DUP4 DIV EQ SWAP1 ISZERO OR ISZERO PUSH2 0x14AD JUMPI SWAP1 PUSH2 0x13A9 SWAP2 PUSH2 0x1F89 JUMP JUMPDEST PUSH1 0x69 DUP2 MUL SWAP1 DUP1 DUP3 DIV PUSH1 0x69 EQ SWAP1 ISZERO OR ISZERO PUSH2 0x1499 JUMPI PUSH1 0x64 PUSH1 0x2 SWAP2 DIV SWAP4 ADD DUP1 SLOAD SWAP4 DUP1 DUP6 GT PUSH1 0x0 EQ PUSH2 0x1492 JUMPI PUSH2 0x13DB SWAP1 DUP6 PUSH2 0x2178 JUMP JUMPDEST DUP3 GT PUSH2 0x144D JUMPI DUP2 PUSH1 0x20 SWAP4 PUSH2 0x143F SWAP3 PUSH2 0x1414 DUP4 PUSH32 0x418FA546DA9A59E023019F8534C2637A41893AE085076065F69F0A493DD12E03 SWAP9 PUSH2 0x2178 JUMP JUMPDEST SWAP1 SSTORE CALLER SWAP1 PUSH32 0x0 AND PUSH2 0x2C91 JUMP JUMPDEST PUSH1 0x40 MLOAD SWAP1 DUP2 MSTORE LOG2 PUSH1 0x1 DUP2 SSTORE DUP1 RETURN JUMPDEST PUSH1 0x40 MLOAD PUSH3 0x461BCD PUSH1 0xE5 SHL DUP2 MSTORE PUSH1 0x20 PUSH1 0x4 DUP3 ADD MSTORE PUSH1 0x1B PUSH1 0x24 DUP3 ADD MSTORE PUSH32 0x4578636565647320776974686472617761626C6520616D6F756E740000000000 PUSH1 0x44 DUP3 ADD MSTORE PUSH1 0x64 SWAP1 REVERT JUMPDEST POP DUP6 PUSH2 0x13DB JUMP JUMPDEST PUSH4 0x4E487B71 PUSH1 0xE0 SHL DUP7 MSTORE PUSH1 0x11 PUSH1 0x4 MSTORE PUSH1 0x24 DUP7 REVERT JUMPDEST PUSH4 0x4E487B71 PUSH1 0xE0 SHL DUP8 MSTORE PUSH1 0x11 PUSH1 0x4 MSTORE PUSH1 0x24 DUP8 REVERT JUMPDEST PUSH1 0x40 MLOAD PUSH3 0x461BCD PUSH1 0xE5 SHL DUP2 MSTORE PUSH1 0x20 PUSH1 0x4 DUP3 ADD MSTORE PUSH1 0x1D PUSH1 0x24 DUP3 ADD MSTORE PUSH32 0x416D6F756E74206D7573742062652067726561746572207468616E2030000000 PUSH1 0x44 DUP3 ADD MSTORE PUSH1 0x64 SWAP1 REVERT JUMPDEST POP PUSH1 0x20 CALLDATASIZE PUSH1 0x3 NOT ADD SLT PUSH2 0x2FD JUMPI PUSH1 0x4 CALLDATALOAD PUSH2 0x151E PUSH2 0x2C15 JUMP JUMPDEST PUSH2 0x1526 PUSH2 0x2BC8 JUMP JUMPDEST DUP1 DUP3 MSTORE PUSH1 0x2 PUSH1 0x20 MSTORE PUSH1 0x40 DUP3 KECCAK256 DUP1 SLOAD PUSH1 0x1 PUSH1 0x1 PUSH1 0xA0 SHL SUB SWAP1 PUSH2 0x154A SWAP1 DUP3 AND CALLER EQ PUSH2 0x206F JUMP JUMPDEST PUSH1 0xD DUP3 ADD SWAP1 PUSH1 0xFF DUP3 SLOAD PUSH1 0xA0 SHR AND PUSH1 0x6 DUP2 LT ISZERO PUSH2 0x52E JUMPI PUSH1 0x1 SUB PUSH2 0x170E JUMPI PUSH1 0x1 DUP4 ADD SWAP1 DUP1 DUP3 SLOAD AND ISZERO PUSH2 0x16D4 JUMPI PUSH1 0x2 DUP5 ADD DUP1 SLOAD CALLVALUE LT PUSH2 0x168F JUMPI PUSH1 0x10 DUP6 ADD PUSH2 0x1593 PUSH1 0xFF DUP3 SLOAD AND ISZERO PUSH2 0x20AA JUMP JUMPDEST PUSH2 0x15A3 PUSH1 0xB DUP8 ADD SLOAD TIMESTAMP GT ISZERO PUSH2 0x20F6 JUMP JUMPDEST DUP3 PUSH32 0x0 AND DUP9 DUP2 EXTCODESIZE ISZERO PUSH2 0x2FD JUMPI PUSH1 0x40 MLOAD PUSH4 0xD0E30DB PUSH1 0xE4 SHL DUP2 MSTORE SWAP2 DUP3 SWAP1 PUSH1 0x4 SWAP1 DUP3 SWAP1 CALLVALUE SWAP1 GAS CALL DUP1 ISZERO PUSH2 0x1684 JUMPI PUSH2 0x1669 JUMPI JUMPDEST POP DUP1 SLOAD PUSH1 0xFF NOT AND PUSH1 0x1 OR SWAP1 SSTORE CALLVALUE SWAP1 SSTORE DUP3 SLOAD SWAP2 SLOAD DUP5 SLOAD PUSH1 0x3 DUP7 ADD SLOAD PUSH2 0x161F SWAP5 SWAP1 SWAP4 SWAP2 DUP3 AND SWAP3 DUP3 AND SWAP2 AND PUSH2 0x2C38 JUMP JUMPDEST DUP1 SLOAD PUSH1 0xFF PUSH1 0xA0 SHL NOT AND PUSH1 0x1 PUSH1 0xA1 SHL OR SWAP1 SSTORE TIMESTAMP PUSH1 0x9 DUP3 ADD DUP2 SWAP1 SSTORE PUSH1 0xA SWAP1 SWAP2 ADD SSTORE PUSH32 0xCB4C701313B0DB2ED5902D923D21B853D01E3A14CB2AF2DCE00E309EAA0E134C DUP3 DUP1 LOG2 PUSH1 0x1 DUP2 SSTORE DUP1 RETURN JUMPDEST SWAP8 PUSH2 0x167A PUSH2 0x161F SWAP6 SWAP5 SWAP4 SWAP3 SWAP10 PUSH2 0x1FF8 JUMP JUMPDEST SWAP8 SWAP1 SWAP2 SWAP3 SWAP4 PUSH2 0x15F2 JUMP JUMPDEST PUSH1 0x40 MLOAD RETURNDATASIZE DUP12 DUP3 RETURNDATACOPY RETURNDATASIZE SWAP1 REVERT JUMPDEST PUSH1 0x40 MLOAD PUSH3 0x461BCD PUSH1 0xE5 SHL DUP2 MSTORE PUSH1 0x20 PUSH1 0x4 DUP3 ADD MSTORE PUSH1 0x17 PUSH1 0x24 DUP3 ADD MSTORE PUSH32 0x496E73756666696369656E7420636F6C6C61746572616C000000000000000000 PUSH1 0x44 DUP3 ADD MSTORE PUSH1 0x64 SWAP1 REVERT JUMPDEST PUSH1 0x40 MLOAD PUSH3 0x461BCD PUSH1 0xE5 SHL DUP2 MSTORE PUSH1 0x20 PUSH1 0x4 DUP3 ADD MSTORE PUSH1 0x12 PUSH1 0x24 DUP3 ADD MSTORE PUSH18 0x139BC81B195B99195C88185CDCDA59DB9959 PUSH1 0x72 SHL PUSH1 0x44 DUP3 ADD MSTORE PUSH1 0x64 SWAP1 REVERT JUMPDEST PUSH1 0x40 MLOAD PUSH3 0x461BCD PUSH1 0xE5 SHL DUP2 MSTORE PUSH1 0x20 PUSH1 0x4 DUP3 ADD MSTORE PUSH1 0xE PUSH1 0x24 DUP3 ADD MSTORE PUSH14 0x496E76616C696420737461747573 PUSH1 0x90 SHL PUSH1 0x44 DUP3 ADD MSTORE PUSH1 0x64 SWAP1 REVERT JUMPDEST POP CALLVALUE PUSH2 0x2FD JUMPI DUP1 PUSH1 0x3 NOT CALLDATASIZE ADD SLT PUSH2 0x2FD JUMPI PUSH1 0x40 MLOAD PUSH32 0x0 PUSH1 0x1 PUSH1 0x1 PUSH1 0xA0 SHL SUB AND DUP2 MSTORE PUSH1 0x20 SWAP1 RETURN JUMPDEST POP CALLVALUE PUSH2 0x2FD JUMPI DUP1 PUSH1 0x3 NOT CALLDATASIZE ADD SLT PUSH2 0x2FD JUMPI PUSH2 0x17A2 PUSH2 0x2BE6 JUMP JUMPDEST PUSH1 0x1 SLOAD PUSH1 0xFF DUP2 AND ISZERO PUSH2 0x17E2 JUMPI PUSH1 0xFF NOT AND PUSH1 0x1 SSTORE PUSH32 0x5DB9EE0A495BF2E6FF9C91A7834C1BA4FDD244A5E8AA4E537BD38AEAE4B073AA PUSH1 0x20 PUSH1 0x40 MLOAD CALLER DUP2 MSTORE LOG1 DUP1 RETURN JUMPDEST PUSH1 0x40 MLOAD PUSH4 0x8DFC202B PUSH1 0xE0 SHL DUP2 MSTORE PUSH1 0x4 SWAP1 REVERT JUMPDEST POP CALLVALUE PUSH2 0x2FD JUMPI DUP1 PUSH1 0x3 NOT CALLDATASIZE ADD SLT PUSH2 0x2FD JUMPI PUSH1 0x40 MLOAD PUSH32 0x0 PUSH1 0x1 PUSH1 0x1 PUSH1 0xA0 SHL SUB AND DUP2 MSTORE PUSH1 0x20 SWAP1 RETURN JUMPDEST POP CALLVALUE PUSH2 0x2FD JUMPI PUSH1 0x40 CALLDATASIZE PUSH1 0x3 NOT ADD SLT PUSH2 0x2FD JUMPI PUSH2 0x1853 PUSH2 0x1EFA JUMP JUMPDEST PUSH1 0x1 PUSH1 0x1 PUSH1 0xA0 SHL SUB AND DUP2 MSTORE PUSH1 0x4 PUSH1 0x20 MSTORE PUSH1 0x40 DUP2 KECCAK256 DUP1 SLOAD PUSH1 0x24 CALLDATALOAD SWAP3 SWAP1 DUP4 LT ISZERO PUSH2 0x2FD JUMPI PUSH1 0x20 PUSH2 0x1881 DUP5 DUP5 PUSH2 0x1EE2 JUMP JUMPDEST SWAP1 SLOAD PUSH1 0x40 MLOAD SWAP2 PUSH1 0x3 SHL SHR DUP2 MSTORE RETURN JUMPDEST POP CALLVALUE PUSH2 0x2FD JUMPI DUP1 PUSH1 0x3 NOT CALLDATASIZE ADD SLT PUSH2 0x2FD JUMPI PUSH1 0x20 PUSH1 0x9 SLOAD PUSH1 0x40 MLOAD SWAP1 DUP2 MSTORE RETURN JUMPDEST POP CALLVALUE PUSH2 0x2FD JUMPI PUSH1 0x80 CALLDATASIZE PUSH1 0x3 NOT ADD SLT PUSH2 0x2FD JUMPI PUSH1 0x44 CALLDATALOAD PUSH1 0x1 PUSH1 0x1 PUSH1 0xA0 SHL SUB DUP2 AND DUP2 SUB PUSH2 0x650 JUMPI PUSH2 0x18DA PUSH2 0x2BC8 JUMP JUMPDEST PUSH1 0x4 CALLDATALOAD ISZERO PUSH2 0x1DB8 JUMPI PUSH1 0x1 PUSH1 0x1 PUSH1 0xA0 SHL SUB DUP2 DUP2 AND PUSH32 0x0 SWAP1 SWAP2 AND EQ DUP1 ISZERO PUSH2 0x1D82 JUMPI JUMPDEST ISZERO PUSH2 0x1D48 JUMPI PUSH2 0x12C PUSH1 0x64 CALLDATALOAD LT ISZERO DUP1 PUSH2 0x1D3A JUMPI JUMPDEST ISZERO PUSH2 0x1CFE JUMPI PUSH3 0x278D00 DUP1 PUSH1 0x24 CALLDATALOAD LT ISZERO DUP1 PUSH2 0x1CEE JUMPI JUMPDEST ISZERO PUSH2 0x1CB6 JUMPI PUSH2 0x1951 PUSH1 0x64 CALLDATALOAD PUSH2 0x22EC JUMP JUMPDEST PUSH2 0x2710 PUSH2 0x1968 PUSH2 0x195F PUSH2 0x25A1 JUMP JUMPDEST SWAP3 PUSH1 0x4 CALLDATALOAD PUSH2 0x1F76 JUMP JUMPDEST DIV PUSH8 0xDE0B6B3A7640000 SWAP1 DUP2 DUP2 MUL SWAP2 DUP2 DUP4 DIV EQ SWAP1 ISZERO OR ISZERO PUSH2 0x1CA2 JUMPI SWAP1 PUSH2 0x198D SWAP2 PUSH2 0x1F89 JUMP JUMPDEST SWAP1 PUSH2 0x1999 PUSH1 0x64 CALLDATALOAD PUSH2 0x2320 JUMP JUMPDEST SWAP3 PUSH2 0x19D1 PUSH2 0x19C6 PUSH5 0x496CEBB800 PUSH2 0x19BD PUSH1 0x24 CALLDATALOAD PUSH2 0x19B8 DUP10 PUSH1 0x4 CALLDATALOAD PUSH2 0x1F76 JUMP JUMPDEST PUSH2 0x1F76 JUMP JUMPDEST DIV PUSH1 0x4 CALLDATALOAD PUSH2 0x1FB8 JUMP JUMPDEST SWAP3 PUSH1 0x24 CALLDATALOAD DIV DUP4 PUSH2 0x1F89 JUMP JUMPDEST PUSH2 0x19DC PUSH1 0x9 SLOAD PUSH2 0x1FA9 JUMP JUMPDEST SWAP5 DUP6 PUSH1 0x9 SSTORE PUSH3 0x93A80 TIMESTAMP ADD TIMESTAMP GT PUSH2 0x14AD JUMPI PUSH1 0x40 MLOAD SWAP4 PUSH2 0x19FA DUP6 PUSH2 0x1FC5 JUMP JUMPDEST CALLER DUP6 MSTORE DUP8 PUSH1 0x20 DUP7 ADD MSTORE DUP6 PUSH1 0x40 DUP7 ADD MSTORE PUSH1 0x4 CALLDATALOAD PUSH1 0x60 DUP7 ADD MSTORE PUSH1 0x80 DUP6 ADD MSTORE PUSH1 0xA0 DUP5 ADD MSTORE PUSH1 0xC0 DUP4 ADD MSTORE PUSH1 0x24 CALLDATALOAD PUSH1 0xE0 DUP4 ADD MSTORE TIMESTAMP PUSH2 0x100 DUP4 ADD MSTORE DUP5 PUSH2 0x120 DUP4 ADD MSTORE DUP5 PUSH2 0x140 DUP4 ADD MSTORE PUSH3 0x93A80 TIMESTAMP ADD PUSH2 0x160 DUP4 ADD MSTORE PUSH1 0x64 CALLDATALOAD PUSH2 0x180 DUP4 ADD MSTORE PUSH1 0x1 DUP1 PUSH1 0xA0 SHL SUB AND PUSH2 0x1A0 DUP3 ADD MSTORE PUSH1 0x1 PUSH2 0x1C0 DUP3 ADD MSTORE DUP4 PUSH2 0x1E0 DUP3 ADD MSTORE DUP4 PUSH2 0x200 DUP3 ADD MSTORE DUP4 PUSH2 0x220 DUP3 ADD MSTORE ADDRESS PUSH2 0x240 DUP3 ADD MSTORE DUP3 DUP5 MSTORE PUSH1 0x2 PUSH1 0x20 MSTORE PUSH1 0x40 DUP5 KECCAK256 PUSH1 0x1 DUP1 PUSH1 0xA0 SHL SUB DUP3 MLOAD AND PUSH12 0xFFFFFFFFFFFFFFFFFFFFFFFF PUSH1 0xA0 SHL SWAP1 DUP2 DUP4 SLOAD AND OR DUP3 SSTORE PUSH1 0x1 DUP3 ADD SWAP1 PUSH1 0x1 DUP1 PUSH1 0xA0 SHL SUB PUSH1 0x20 DUP6 ADD MLOAD AND SWAP1 DUP3 SLOAD AND OR SWAP1 SSTORE PUSH1 0x40 DUP3 ADD MLOAD PUSH1 0x2 DUP3 ADD SSTORE PUSH1 0x60 DUP3 ADD MLOAD PUSH1 0x3 DUP3 ADD SSTORE PUSH1 0x80 DUP3 ADD MLOAD PUSH1 0x4 DUP3 ADD SSTORE PUSH1 0xA0 DUP3 ADD MLOAD PUSH1 0x5 DUP3 ADD SSTORE PUSH1 0xC0 DUP3 ADD MLOAD PUSH1 0x6 DUP3 ADD SSTORE PUSH1 0xE0 DUP3 ADD MLOAD PUSH1 0x7 DUP3 ADD SSTORE PUSH2 0x100 DUP3 ADD MLOAD PUSH1 0x8 DUP3 ADD SSTORE PUSH2 0x120 DUP3 ADD MLOAD PUSH1 0x9 DUP3 ADD SSTORE PUSH2 0x140 DUP3 ADD MLOAD PUSH1 0xA DUP3 ADD SSTORE PUSH2 0x160 DUP3 ADD MLOAD PUSH1 0xB DUP3 ADD SSTORE PUSH2 0x180 DUP3 ADD MLOAD PUSH1 0xC DUP3 ADD SSTORE PUSH1 0xD DUP2 ADD SWAP1 PUSH1 0x1 DUP1 PUSH1 0xA0 SHL SUB PUSH2 0x1A0 DUP5 ADD MLOAD AND SWAP2 DUP1 SLOAD PUSH2 0x1C0 DUP6 ADD MLOAD SWAP4 PUSH1 0x6 DUP6 LT ISZERO PUSH2 0x1C8E JUMPI SWAP1 PUSH1 0x10 SWAP4 SWAP3 SWAP2 PUSH11 0xFFFFFFFFFFFFFFFFFFFFFF PUSH1 0xA8 SHL DUP1 SWAP7 PUSH1 0xFF PUSH1 0xA0 SHL SWAP1 PUSH1 0xA0 SHL AND SWAP3 AND OR OR SWAP1 SSTORE PUSH2 0x1E0 DUP5 ADD MLOAD PUSH1 0xE DUP3 ADD SSTORE PUSH2 0x200 DUP5 ADD MLOAD PUSH1 0xF DUP3 ADD SSTORE ADD SWAP2 PUSH2 0x220 DUP2 ADD MLOAD ISZERO ISZERO SWAP2 PUSH1 0xFF DUP5 SLOAD SWAP3 PUSH2 0x240 PUSH2 0x100 PUSH1 0x1 PUSH1 0xA8 SHL SUB SWAP2 ADD MLOAD PUSH1 0x8 SHL AND SWAP4 AND SWAP2 AND OR OR SWAP1 SSTORE CALLER DUP4 MSTORE PUSH1 0x3 PUSH1 0x20 MSTORE PUSH2 0x1BE1 DUP3 PUSH1 0x40 DUP6 KECCAK256 PUSH2 0x203A JUMP JUMPDEST DUP2 DUP4 MSTORE PUSH1 0x7 PUSH1 0x20 MSTORE PUSH1 0x40 DUP4 KECCAK256 DUP1 SLOAD PUSH1 0xFF NOT AND PUSH1 0x1 OR SWAP1 SSTORE PUSH1 0x8 SLOAD PUSH1 0x1 PUSH1 0x40 SHL DUP2 LT ISZERO PUSH2 0x1C7A JUMPI SWAP3 PUSH2 0x1C1A DUP5 PUSH1 0x1 PUSH1 0x20 SWAP7 ADD PUSH1 0x8 SSTORE PUSH2 0x1E95 JUMP JUMPDEST DUP2 SLOAD SWAP1 PUSH1 0x3 SHL SWAP1 DUP6 DUP3 SHL SWAP2 PUSH1 0x0 NOT SWAP1 SHL NOT AND OR SWAP1 SSTORE CALLER DUP2 MSTORE PUSH1 0x5 DUP5 MSTORE PUSH1 0x40 PUSH1 0x64 CALLDATALOAD SWAP2 KECCAK256 SSTORE PUSH1 0x40 MLOAD SWAP1 PUSH1 0x4 CALLDATALOAD DUP3 MSTORE DUP4 DUP3 ADD MSTORE DUP2 PUSH32 0xB95B715564424FAAEA3405321C2FCA777CEC2D0CCE8026437155361F28211E90 PUSH1 0x40 CALLER SWAP4 LOG3 PUSH1 0x40 MLOAD SWAP1 DUP2 MSTORE RETURN JUMPDEST PUSH4 0x4E487B71 PUSH1 0xE0 SHL DUP5 MSTORE PUSH1 0x41 PUSH1 0x4 MSTORE PUSH1 0x24 DUP5 REVERT JUMPDEST PUSH4 0x4E487B71 PUSH1 0xE0 SHL DUP10 MSTORE PUSH1 0x21 PUSH1 0x4 MSTORE PUSH1 0x24 DUP10 REVERT JUMPDEST PUSH4 0x4E487B71 PUSH1 0xE0 SHL DUP6 MSTORE PUSH1 0x11 PUSH1 0x4 MSTORE PUSH1 0x24 DUP6 REVERT JUMPDEST PUSH1 0x40 MLOAD PUSH3 0x461BCD PUSH1 0xE5 SHL DUP2 MSTORE PUSH1 0x20 PUSH1 0x4 DUP3 ADD MSTORE PUSH1 0x10 PUSH1 0x24 DUP3 ADD MSTORE PUSH16 0x24B73B30B634B210323AB930BA34B7B7 PUSH1 0x81 SHL PUSH1 0x44 DUP3 ADD MSTORE PUSH1 0x64 SWAP1 REVERT JUMPDEST POP PUSH4 0x1E13380 PUSH1 0x24 CALLDATALOAD GT ISZERO PUSH2 0x1941 JUMP JUMPDEST PUSH1 0x40 MLOAD PUSH3 0x461BCD PUSH1 0xE5 SHL DUP2 MSTORE PUSH1 0x20 PUSH1 0x4 DUP3 ADD MSTORE PUSH1 0x14 PUSH1 0x24 DUP3 ADD MSTORE PUSH20 0x496E76616C6964206372656469742073636F7265 PUSH1 0x60 SHL PUSH1 0x44 DUP3 ADD MSTORE PUSH1 0x64 SWAP1 REVERT JUMPDEST POP PUSH2 0x352 PUSH1 0x64 CALLDATALOAD GT ISZERO PUSH2 0x192C JUMP JUMPDEST PUSH1 0x40 MLOAD PUSH3 0x461BCD PUSH1 0xE5 SHL DUP2 MSTORE PUSH1 0x20 PUSH1 0x4 DUP3 ADD MSTORE PUSH1 0x12 PUSH1 0x24 DUP3 ADD MSTORE PUSH18 0x24B73B30B634B21039BA30B13632B1B7B4B7 PUSH1 0x71 SHL PUSH1 0x44 DUP3 ADD MSTORE PUSH1 0x64 SWAP1 REVERT JUMPDEST POP PUSH1 0x1 PUSH1 0x1 PUSH1 0xA0 SHL SUB DUP2 DUP2 AND PUSH32 0x0 SWAP1 SWAP2 AND EQ PUSH2 0x1919 JUMP JUMPDEST PUSH1 0x40 MLOAD PUSH3 0x461BCD PUSH1 0xE5 SHL DUP2 MSTORE PUSH1 0x20 PUSH1 0x4 DUP3 ADD MSTORE PUSH1 0x24 DUP1 DUP3 ADD MSTORE PUSH32 0x426F72726F7720616D6F756E74206D7573742062652067726561746572207468 PUSH1 0x44 DUP3 ADD MSTORE PUSH4 0x616E203 PUSH1 0xE4 SHL PUSH1 0x64 DUP3 ADD MSTORE PUSH1 0x84 SWAP1 REVERT JUMPDEST POP CALLVALUE PUSH2 0x2FD JUMPI DUP1 PUSH1 0x3 NOT CALLDATASIZE ADD SLT PUSH2 0x2FD JUMPI PUSH1 0x40 MLOAD PUSH32 0x0 PUSH1 0x1 PUSH1 0x1 PUSH1 0xA0 SHL SUB AND DUP2 MSTORE PUSH1 0x20 SWAP1 RETURN JUMPDEST POP CALLVALUE PUSH2 0x2FD JUMPI PUSH1 0x20 CALLDATASIZE PUSH1 0x3 NOT ADD SLT PUSH2 0x2FD JUMPI PUSH1 0x4 CALLDATALOAD SWAP1 PUSH1 0x8 SLOAD DUP3 LT ISZERO PUSH2 0x2FD JUMPI PUSH1 0x20 PUSH2 0x1881 DUP4 PUSH2 0x1E95 JUMP JUMPDEST SWAP1 POP CALLVALUE PUSH2 0x650 JUMPI DUP2 PUSH1 0x3 NOT CALLDATASIZE ADD SLT PUSH2 0x650 JUMPI DUP1 PUSH2 0x226 PUSH1 0x20 SWAP3 MSTORE RETURN JUMPDEST PUSH1 0x8 SLOAD DUP2 LT ISZERO PUSH2 0x1ECC JUMPI PUSH1 0x8 PUSH1 0x0 MSTORE PUSH32 0xF3F7A9FE364FAAB93B216DA50A3214154F22A0A2B415B23A84C8169E8B636EE3 ADD SWAP1 PUSH1 0x0 SWAP1 JUMP JUMPDEST PUSH4 0x4E487B71 PUSH1 0xE0 SHL PUSH1 0x0 MSTORE PUSH1 0x32 PUSH1 0x4 MSTORE PUSH1 0x24 PUSH1 0x0 REVERT JUMPDEST DUP1 SLOAD DUP3 LT ISZERO PUSH2 0x1ECC JUMPI PUSH1 0x0 MSTORE PUSH1 0x20 PUSH1 0x0 KECCAK256 ADD SWAP1 PUSH1 0x0 SWAP1 JUMP JUMPDEST PUSH1 0x4 CALLDATALOAD SWAP1 PUSH1 0x1 PUSH1 0x1 PUSH1 0xA0 SHL SUB DUP3 AND DUP3 SUB PUSH2 0x8F4 JUMPI JUMP JUMPDEST PUSH1 0x40 SWAP1 PUSH1 0x3 NOT ADD SLT PUSH2 0x8F4 JUMPI PUSH1 0x4 CALLDATALOAD SWAP1 PUSH1 0x24 CALLDATALOAD SWAP1 JUMP JUMPDEST SWAP1 PUSH1 0x6 DUP3 LT ISZERO PUSH2 0x1F33 JUMPI MSTORE JUMP JUMPDEST PUSH4 0x4E487B71 PUSH1 0xE0 SHL PUSH1 0x0 MSTORE PUSH1 0x21 PUSH1 0x4 MSTORE PUSH1 0x24 PUSH1 0x0 REVERT JUMPDEST SWAP1 PUSH2 0x251C SWAP2 DUP3 DUP2 MUL SWAP3 DUP2 DUP5 DIV EQ SWAP1 ISZERO OR ISZERO PUSH2 0x1F60 JUMPI JUMP JUMPDEST PUSH4 0x4E487B71 PUSH1 0xE0 SHL PUSH1 0x0 MSTORE PUSH1 0x11 PUSH1 0x4 MSTORE PUSH1 0x24 PUSH1 0x0 REVERT JUMPDEST DUP2 DUP2 MUL SWAP3 SWAP2 DUP2 ISZERO SWAP2 DUP5 DIV EQ OR ISZERO PUSH2 0x1F60 JUMPI JUMP JUMPDEST DUP2 ISZERO PUSH2 0x1F93 JUMPI DIV SWAP1 JUMP JUMPDEST PUSH4 0x4E487B71 PUSH1 0xE0 SHL PUSH1 0x0 MSTORE PUSH1 0x12 PUSH1 0x4 MSTORE PUSH1 0x24 PUSH1 0x0 REVERT JUMPDEST PUSH1 0x0 NOT DUP2 EQ PUSH2 0x1F60 JUMPI PUSH1 0x1 ADD SWAP1 JUMP JUMPDEST SWAP2 SWAP1 DUP3 ADD DUP1 SWAP3 GT PUSH2 0x1F60 JUMPI JUMP JUMPDEST PUSH2 0x260 DUP2 ADD SWAP1 DUP2 LT PUSH8 0xFFFFFFFFFFFFFFFF DUP3 GT OR PUSH2 0x1FE2 JUMPI PUSH1 0x40 MSTORE JUMP JUMPDEST PUSH4 0x4E487B71 PUSH1 0xE0 SHL PUSH1 0x0 MSTORE PUSH1 0x41 PUSH1 0x4 MSTORE PUSH1 0x24 PUSH1 0x0 REVERT JUMPDEST PUSH8 0xFFFFFFFFFFFFFFFF DUP2 GT PUSH2 0x1FE2 JUMPI PUSH1 0x40 MSTORE JUMP JUMPDEST SWAP1 PUSH1 0x1F DUP1 NOT SWAP2 ADD AND DUP2 ADD SWAP1 DUP2 LT PUSH8 0xFFFFFFFFFFFFFFFF DUP3 GT OR PUSH2 0x1FE2 JUMPI PUSH1 0x40 MSTORE JUMP JUMPDEST PUSH1 0x6 DUP3 LT ISZERO PUSH2 0x1F33 JUMPI MSTORE JUMP JUMPDEST DUP1 SLOAD PUSH1 0x1 PUSH1 0x40 SHL DUP2 LT ISZERO PUSH2 0x1FE2 JUMPI PUSH2 0x2057 SWAP2 PUSH1 0x1 DUP3 ADD DUP2 SSTORE PUSH2 0x1EE2 JUMP JUMPDEST DUP2 SWAP3 SWAP2 SLOAD SWAP1 PUSH1 0x3 SHL SWAP2 DUP3 SHL SWAP2 PUSH1 0x0 NOT SWAP1 SHL NOT AND OR SWAP1 SSTORE JUMP JUMPDEST ISZERO PUSH2 0x2076 JUMPI JUMP JUMPDEST PUSH1 0x40 MLOAD PUSH3 0x461BCD PUSH1 0xE5 SHL DUP2 MSTORE PUSH1 0x20 PUSH1 0x4 DUP3 ADD MSTORE PUSH1 0xC PUSH1 0x24 DUP3 ADD MSTORE PUSH12 0x2737BA103137B93937BBB2B9 PUSH1 0xA1 SHL PUSH1 0x44 DUP3 ADD MSTORE PUSH1 0x64 SWAP1 REVERT JUMPDEST ISZERO PUSH2 0x20B1 JUMPI JUMP JUMPDEST PUSH1 0x40 MLOAD PUSH3 0x461BCD PUSH1 0xE5 SHL DUP2 MSTORE PUSH1 0x20 PUSH1 0x4 DUP3 ADD MSTORE PUSH1 0x1C PUSH1 0x24 DUP3 ADD MSTORE PUSH32 0x436F6C6C61746572616C20616C7265616479206465706F736974656400000000 PUSH1 0x44 DUP3 ADD MSTORE PUSH1 0x64 SWAP1 REVERT JUMPDEST ISZERO PUSH2 0x20FD JUMPI JUMP JUMPDEST PUSH1 0x40 MLOAD PUSH3 0x461BCD PUSH1 0xE5 SHL DUP2 MSTORE PUSH1 0x20 PUSH1 0x4 DUP3 ADD MSTORE PUSH1 0x15 PUSH1 0x24 DUP3 ADD MSTORE PUSH21 0x131BD85B881C1C9BDC1BDCD85B08195E1C1A5C9959 PUSH1 0x5A SHL PUSH1 0x44 DUP3 ADD MSTORE PUSH1 0x64 SWAP1 REVERT JUMPDEST ISZERO PUSH2 0x2141 JUMPI JUMP JUMPDEST PUSH1 0x40 MLOAD PUSH3 0x461BCD PUSH1 0xE5 SHL DUP2 MSTORE PUSH1 0x20 PUSH1 0x4 DUP3 ADD MSTORE PUSH1 0xF PUSH1 0x24 DUP3 ADD MSTORE PUSH15 0x4C6F616E206E6F7420616374697665 PUSH1 0x88 SHL PUSH1 0x44 DUP3 ADD MSTORE PUSH1 0x64 SWAP1 REVERT JUMPDEST SWAP2 SWAP1 DUP3 SUB SWAP2 DUP3 GT PUSH2 0x1F60 JUMPI JUMP JUMPDEST SWAP1 PUSH1 0x0 SWAP2 DUP1 DUP4 MSTORE PUSH1 0x2 PUSH1 0x20 MSTORE PUSH1 0x40 DUP4 KECCAK256 PUSH1 0x40 MLOAD PUSH2 0x21A1 DUP2 PUSH2 0x1FC5 JUMP JUMPDEST PUSH2 0x240 PUSH1 0x1 DUP1 PUSH1 0xA0 SHL SUB DUP1 DUP5 SLOAD AND DUP4 MSTORE DUP1 PUSH1 0x1 DUP6 ADD SLOAD AND PUSH1 0x20 DUP5 ADD MSTORE PUSH1 0x2 DUP5 ADD SLOAD PUSH1 0x40 DUP5 ADD MSTORE PUSH1 0x3 DUP5 ADD SLOAD PUSH1 0x60 DUP5 ADD MSTORE PUSH1 0x4 DUP5 ADD SLOAD PUSH1 0x80 DUP5 ADD MSTORE PUSH1 0x5 DUP5 ADD SLOAD PUSH1 0xA0 DUP5 ADD MSTORE PUSH1 0x6 DUP5 ADD SLOAD PUSH1 0xC0 DUP5 ADD MSTORE PUSH1 0x7 DUP5 ADD SLOAD PUSH1 0xE0 DUP5 ADD MSTORE PUSH1 0x8 DUP5 ADD SLOAD PUSH2 0x100 DUP5 ADD MSTORE PUSH1 0x9 DUP5 ADD SLOAD PUSH2 0x120 DUP5 ADD MSTORE PUSH1 0xA DUP5 ADD SLOAD PUSH2 0x140 DUP5 ADD MSTORE PUSH1 0xB DUP5 ADD SLOAD PUSH2 0x160 DUP5 ADD MSTORE PUSH1 0xC DUP5 ADD SLOAD PUSH2 0x180 DUP5 ADD MSTORE PUSH1 0x10 PUSH1 0xD DUP6 ADD SLOAD SWAP5 DUP3 DUP7 AND PUSH2 0x1A0 DUP7 ADD MSTORE PUSH2 0x2256 PUSH1 0xFF PUSH2 0x1C0 DUP8 ADD SWAP8 PUSH1 0xA0 SHR AND DUP8 PUSH2 0x202E JUMP JUMPDEST PUSH1 0xE DUP2 ADD SLOAD PUSH2 0x1E0 DUP7 ADD MSTORE PUSH1 0xF DUP2 ADD SLOAD PUSH2 0x200 DUP7 ADD MSTORE ADD SLOAD PUSH1 0xFF DUP2 AND ISZERO ISZERO PUSH2 0x220 DUP6 ADD MSTORE PUSH1 0x8 SHR AND SWAP2 ADD MSTORE MLOAD PUSH1 0x6 DUP2 LT ISZERO PUSH2 0x692 JUMPI PUSH1 0x2 SUB PUSH2 0x22E7 JUMPI PUSH2 0x229B DUP2 PUSH2 0x23B4 JUMP JUMPDEST SWAP4 SWAP1 POP PUSH2 0x2AF8 DUP5 LT SWAP2 DUP3 PUSH2 0x22B0 JUMPI JUMPDEST POP POP SWAP2 SWAP1 JUMP JUMPDEST DUP2 MSTORE PUSH1 0x6 PUSH1 0x20 MSTORE PUSH1 0x40 DUP2 KECCAK256 SLOAD PUSH2 0x5460 DUP2 ADD SWAP3 POP DUP3 LT PUSH2 0x22D3 JUMPI POP TIMESTAMP GT CODESIZE DUP1 PUSH2 0x22AA JUMP JUMPDEST PUSH4 0x4E487B71 PUSH1 0xE0 SHL DUP2 MSTORE PUSH1 0x11 PUSH1 0x4 MSTORE PUSH1 0x24 SWAP1 REVERT JUMPDEST POP DUP2 SWAP1 JUMP JUMPDEST PUSH2 0x2EE DUP2 LT PUSH2 0x22FC JUMPI POP PUSH2 0x32C8 SWAP1 JUMP JUMPDEST PUSH2 0x28A DUP2 LT PUSH2 0x230C JUMPI POP PUSH2 0x36B0 SWAP1 JUMP JUMPDEST PUSH2 0x226 GT PUSH2 0x231A JUMPI PUSH2 0x3A98 SWAP1 JUMP JUMPDEST PUSH2 0x445C SWAP1 JUMP JUMPDEST PUSH2 0x2EE SWAP1 DUP2 DUP2 LT PUSH2 0x2333 JUMPI POP POP PUSH2 0x1F4 SWAP1 JUMP JUMPDEST PUSH2 0x28A DUP2 LT PUSH2 0x2340 JUMPI POP SWAP1 JUMP JUMPDEST PUSH2 0x226 GT SWAP1 POP PUSH2 0x2350 JUMPI PUSH2 0x3E8 SWAP1 JUMP JUMPDEST PUSH2 0x5DC SWAP1 JUMP JUMPDEST PUSH8 0xFFFFFFFFFFFFFFFF DUP2 GT PUSH2 0x1FE2 JUMPI PUSH1 0x5 SHL PUSH1 0x20 ADD SWAP1 JUMP JUMPDEST SWAP1 PUSH2 0x2378 DUP3 PUSH2 0x2356 JUMP JUMPDEST PUSH2 0x2385 PUSH1 0x40 MLOAD SWAP2 DUP3 PUSH2 0x200C JUMP JUMPDEST DUP3 DUP2 MSTORE DUP1 SWAP3 PUSH2 0x2396 PUSH1 0x1F NOT SWAP2 PUSH2 0x2356 JUMP JUMPDEST ADD SWAP1 PUSH1 0x20 CALLDATASIZE SWAP2 ADD CALLDATACOPY JUMP JUMPDEST DUP1 MLOAD DUP3 LT ISZERO PUSH2 0x1ECC JUMPI PUSH1 0x20 SWAP2 PUSH1 0x5 SHL ADD ADD SWAP1 JUMP JUMPDEST SWAP1 PUSH1 0x0 SWAP2 DUP3 MSTORE PUSH1 0x2 PUSH1 0x20 MSTORE PUSH1 0x40 DUP3 KECCAK256 PUSH1 0x40 MLOAD PUSH2 0x23CF DUP2 PUSH2 0x1FC5 JUMP JUMPDEST PUSH1 0x1 DUP1 PUSH1 0xA0 SHL SUB SWAP2 DUP3 DUP2 SLOAD AND DUP3 MSTORE DUP3 PUSH1 0x1 DUP3 ADD SLOAD AND PUSH1 0x20 DUP4 ADD MSTORE PUSH1 0x2 DUP2 ADD SLOAD SWAP2 PUSH1 0x40 DUP2 ADD SWAP3 DUP4 MSTORE PUSH1 0x3 DUP3 ADD SLOAD PUSH1 0x60 DUP3 ADD MSTORE PUSH2 0x240 PUSH1 0x4 DUP4 ADD SLOAD SWAP5 PUSH1 0x80 DUP4 ADD SWAP6 DUP7 MSTORE PUSH1 0x5 DUP5 ADD SLOAD PUSH1 0xA0 DUP5 ADD MSTORE PUSH1 0x6 DUP5 ADD SLOAD PUSH1 0xC0 DUP5 ADD MSTORE PUSH1 0x7 DUP5 ADD SLOAD PUSH1 0xE0 DUP5 ADD MSTORE PUSH1 0x8 DUP5 ADD SLOAD PUSH2 0x100 DUP5 ADD MSTORE PUSH1 0x9 DUP5 ADD SLOAD PUSH2 0x120 DUP5 ADD MSTORE PUSH1 0xA DUP5 ADD SLOAD PUSH2 0x140 DUP5 ADD MSTORE PUSH1 0xB DUP5 ADD SLOAD PUSH2 0x160 DUP5 ADD MSTORE PUSH1 0xC DUP5 ADD SLOAD PUSH2 0x180 DUP5 ADD MSTORE PUSH1 0x10 PUSH1 0xD DUP6 ADD SLOAD SWAP5 DUP3 DUP7 AND PUSH2 0x1A0 DUP7 ADD MSTORE PUSH2 0x248B PUSH1 0xFF PUSH2 0x1C0 DUP8 ADD SWAP8 PUSH1 0xA0 SHR AND DUP8 PUSH2 0x202E JUMP JUMPDEST PUSH1 0xE DUP2 ADD SLOAD PUSH2 0x1E0 DUP7 ADD MSTORE PUSH1 0xF DUP2 ADD SLOAD PUSH2 0x200 DUP7 ADD MSTORE ADD SLOAD PUSH1 0xFF DUP2 AND ISZERO ISZERO PUSH2 0x220 DUP6 ADD MSTORE PUSH1 0x8 SHR AND SWAP2 ADD MSTORE MLOAD PUSH1 0x6 DUP2 LT ISZERO PUSH2 0x12E0 JUMPI PUSH1 0x2 SUB PUSH2 0x2552 JUMPI PUSH2 0x24E3 PUSH8 0xDE0B6B3A7640000 SWAP2 PUSH2 0x24DC PUSH2 0x25A1 JUMP JUMPDEST SWAP1 MLOAD PUSH2 0x1F76 JUMP JUMPDEST DIV SWAP1 DUP1 MLOAD SWAP4 DUP5 ISZERO PUSH2 0x2547 JUMPI DUP3 ISZERO PUSH2 0x253C JUMPI PUSH2 0x2710 SWAP5 DUP6 DUP2 MUL SWAP1 DUP2 DIV DUP7 SUB PUSH2 0x2528 JUMPI DUP4 PUSH2 0x250E SWAP2 PUSH2 0x1F89 JUMP JUMPDEST SWAP5 DUP1 DUP5 MUL SWAP4 DUP5 DIV SUB PUSH2 0x22D3 JUMPI POP MLOAD PUSH2 0x2525 SWAP2 PUSH2 0x1F89 JUMP JUMPDEST SWAP1 JUMP JUMPDEST PUSH4 0x4E487B71 PUSH1 0xE0 SHL DUP3 MSTORE PUSH1 0x11 PUSH1 0x4 MSTORE PUSH1 0x24 DUP3 REVERT JUMPDEST PUSH1 0x0 NOT SWAP5 POP SWAP3 SWAP2 POP POP JUMP JUMPDEST SWAP4 POP PUSH1 0x0 NOT SWAP3 SWAP2 POP POP JUMP JUMPDEST POP POP DUP2 SWAP1 JUMP JUMPDEST MLOAD SWAP1 PUSH10 0xFFFFFFFFFFFFFFFFFFFF DUP3 AND DUP3 SUB PUSH2 0x8F4 JUMPI JUMP JUMPDEST SWAP1 DUP2 PUSH1 0xA0 SWAP2 SUB SLT PUSH2 0x8F4 JUMPI PUSH2 0x2583 DUP2 PUSH2 0x2558 JUMP JUMPDEST SWAP2 PUSH1 0x20 DUP3 ADD MLOAD SWAP2 PUSH1 0x40 DUP2 ADD MLOAD SWAP2 PUSH2 0x2525 PUSH1 0x80 PUSH1 0x60 DUP5 ADD MLOAD SWAP4 ADD PUSH2 0x2558 JUMP JUMPDEST PUSH1 0x40 DUP1 MLOAD PUSH4 0x3FABE5A3 PUSH1 0xE2 SHL DUP1 DUP3 MSTORE PUSH1 0xA0 SWAP3 PUSH1 0x4 SWAP3 SWAP1 SWAP2 PUSH1 0x1 PUSH1 0x1 PUSH1 0xA0 SHL SUB SWAP2 DUP6 DUP2 DUP7 DUP2 PUSH32 0x0 DUP8 AND GAS STATICCALL DUP1 PUSH1 0x0 SWAP3 DUP4 SWAP3 PUSH2 0x27E2 JUMPI JUMPDEST POP PUSH2 0x2740 JUMPI POP POP DUP5 SWAP1 DUP5 DUP5 MLOAD DUP1 SWAP5 DUP2 SWAP4 DUP3 MSTORE PUSH32 0x0 AND GAS STATICCALL SWAP1 DUP2 ISZERO PUSH2 0x2735 JUMPI PUSH1 0x0 SWAP5 DUP6 SWAP3 PUSH2 0x26FD JUMPI JUMPDEST POP POP PUSH1 0x0 DUP5 SGT ISZERO PUSH2 0x26C3 JUMPI PUSH2 0x2654 PUSH2 0xE10 SWAP2 TIMESTAMP PUSH2 0x2178 JUMP JUMPDEST LT ISZERO PUSH2 0x268B JUMPI POP PUSH5 0x2540BE400 SWAP2 DUP3 DUP2 MUL SWAP3 DUP2 DUP5 DIV EQ SWAP1 ISZERO OR ISZERO PUSH2 0x2676 JUMPI POP SWAP1 JUMP JUMPDEST PUSH1 0x11 SWAP1 PUSH4 0x4E487B71 PUSH1 0xE0 SHL PUSH1 0x0 MSTORE MSTORE PUSH1 0x24 PUSH1 0x0 REVERT JUMPDEST SWAP1 PUSH1 0x20 PUSH1 0x64 SWAP3 MLOAD SWAP2 PUSH3 0x461BCD PUSH1 0xE5 SHL DUP4 MSTORE DUP3 ADD MSTORE PUSH1 0x12 PUSH1 0x24 DUP3 ADD MSTORE PUSH18 0x5374616C65206261636B7570207072696365 PUSH1 0x70 SHL PUSH1 0x44 DUP3 ADD MSTORE REVERT JUMPDEST DUP2 MLOAD PUSH3 0x461BCD PUSH1 0xE5 SHL DUP2 MSTORE PUSH1 0x20 DUP2 DUP6 ADD MSTORE PUSH1 0x14 PUSH1 0x24 DUP3 ADD MSTORE PUSH20 0x496E76616C6964206261636B7570207072696365 PUSH1 0x60 SHL PUSH1 0x44 DUP3 ADD MSTORE PUSH1 0x64 SWAP1 REVERT JUMPDEST PUSH2 0x2721 SWAP4 SWAP6 POP DUP1 SWAP2 SWAP3 POP SWAP1 RETURNDATASIZE LT PUSH2 0x272E JUMPI JUMPDEST PUSH2 0x2719 DUP2 DUP4 PUSH2 0x200C JUMP JUMPDEST DUP2 ADD SWAP1 PUSH2 0x256F JUMP JUMPDEST POP SWAP5 SWAP3 POP POP SWAP3 CODESIZE DUP1 PUSH2 0x263C JUMP JUMPDEST POP RETURNDATASIZE PUSH2 0x270F JUMP JUMPDEST DUP3 MLOAD RETURNDATASIZE PUSH1 0x0 DUP3 RETURNDATACOPY RETURNDATASIZE SWAP1 REVERT JUMPDEST SWAP3 POP DUP1 SWAP6 POP PUSH1 0x0 SWAP2 POP SGT ISZERO PUSH2 0x27AF JUMPI PUSH2 0x275C PUSH2 0xE10 SWAP2 TIMESTAMP PUSH2 0x2178 JUMP JUMPDEST LT ISZERO PUSH2 0x277E JUMPI POP PUSH5 0x2540BE400 SWAP2 DUP3 DUP2 MUL SWAP3 DUP2 DUP5 DIV EQ SWAP1 ISZERO OR ISZERO PUSH2 0x2676 JUMPI POP SWAP1 JUMP JUMPDEST SWAP1 PUSH1 0x20 PUSH1 0x64 SWAP3 MLOAD SWAP2 PUSH3 0x461BCD PUSH1 0xE5 SHL DUP4 MSTORE DUP3 ADD MSTORE PUSH1 0xB PUSH1 0x24 DUP3 ADD MSTORE PUSH11 0x5374616C65207072696365 PUSH1 0xA8 SHL PUSH1 0x44 DUP3 ADD MSTORE REVERT JUMPDEST DUP2 MLOAD PUSH3 0x461BCD PUSH1 0xE5 SHL DUP2 MSTORE PUSH1 0x20 DUP2 DUP6 ADD MSTORE PUSH1 0xD PUSH1 0x24 DUP3 ADD MSTORE PUSH13 0x496E76616C6964207072696365 PUSH1 0x98 SHL PUSH1 0x44 DUP3 ADD MSTORE PUSH1 0x64 SWAP1 REVERT JUMPDEST SWAP1 SWAP3 POP PUSH2 0x27FC SWAP2 POP DUP8 RETURNDATASIZE DUP10 GT PUSH2 0x272E JUMPI PUSH2 0x2719 DUP2 DUP4 PUSH2 0x200C JUMP JUMPDEST POP SWAP4 SWAP3 POP POP SWAP2 SWAP1 CODESIZE PUSH2 0x25F5 JUMP JUMPDEST SWAP1 PUSH1 0x0 SWAP2 DUP1 DUP4 MSTORE PUSH1 0x20 SWAP3 PUSH1 0x2 DUP5 MSTORE PUSH1 0x40 SWAP4 DUP5 DUP3 KECCAK256 SWAP5 PUSH1 0xD DUP7 ADD SWAP2 PUSH1 0xFF DUP4 SLOAD PUSH1 0xA0 SHR AND PUSH1 0x6 DUP2 LT ISZERO PUSH2 0x12E0 JUMPI PUSH1 0x2 PUSH2 0x2840 SWAP2 EQ PUSH2 0x213A JUMP JUMPDEST DUP5 DUP5 MSTORE PUSH1 0x6 DUP2 MSTORE DUP2 DUP5 KECCAK256 SLOAD PUSH2 0x5460 DUP2 ADD DUP1 SWAP2 GT PUSH2 0x1CA2 JUMPI TIMESTAMP GT ISZERO PUSH2 0x2B86 JUMPI PUSH2 0x2868 DUP6 DUP9 PUSH2 0x2DC4 JUMP JUMPDEST SWAP3 SWAP2 SWAP5 SWAP1 SWAP5 PUSH2 0x2AC4 JUMPI SLOAD DUP4 MLOAD PUSH4 0x70A08231 PUSH1 0xE0 SHL DUP2 MSTORE CALLER PUSH1 0x4 DUP3 ADD MSTORE PUSH1 0x1 PUSH1 0x1 PUSH1 0xA0 SHL SUB SWAP2 DUP3 AND SWAP1 DUP4 DUP2 PUSH1 0x24 DUP2 DUP6 GAS STATICCALL SWAP1 DUP2 ISZERO PUSH2 0x2A39 JUMPI SWAP1 DUP6 SWAP2 DUP10 SWAP2 PUSH2 0x2A93 JUMPI JUMPDEST POP LT PUSH2 0x2A43 JUMPI DUP5 MLOAD PUSH4 0x6EB1769F PUSH1 0xE1 SHL DUP2 MSTORE CALLER PUSH1 0x4 DUP3 ADD MSTORE ADDRESS PUSH1 0x24 DUP3 ADD MSTORE DUP4 DUP2 PUSH1 0x44 DUP2 DUP6 GAS STATICCALL SWAP1 DUP2 ISZERO PUSH2 0x2A39 JUMPI SWAP1 DUP6 SWAP2 DUP10 SWAP2 PUSH2 0x2A04 JUMPI JUMPDEST POP LT PUSH2 0x29B1 JUMPI DUP4 DUP3 DUP12 PUSH1 0x4 DUP12 SWAP13 SWAP14 SWAP12 SWAP11 SWAP12 ADD SWAP11 DUP4 DUP13 SLOAD SWAP1 PUSH2 0x2900 SWAP2 PUSH2 0x2178 JUMP JUMPDEST DUP13 SSTORE PUSH1 0x2 DUP3 ADD DUP11 DUP2 SLOAD SWAP1 PUSH2 0x2913 SWAP2 PUSH2 0x2178 JUMP JUMPDEST SWAP1 SSTORE PUSH1 0xF DUP3 ADD DUP11 DUP2 SLOAD SWAP1 PUSH2 0x2926 SWAP2 PUSH2 0x1FB8 JUMP JUMPDEST SWAP1 SSTORE DUP11 DUP2 MSTORE PUSH1 0x6 DUP8 MSTORE DUP9 TIMESTAMP SWAP2 KECCAK256 SSTORE PUSH1 0x1 ADD SLOAD AND CALLER PUSH2 0x2943 SWAP4 PUSH2 0x2C38 JUMP JUMPDEST DUP5 CALLER SWAP2 PUSH32 0x0 AND SWAP2 PUSH2 0x2972 SWAP3 PUSH2 0x2C91 JUMP JUMPDEST DUP3 MLOAD SWAP4 DUP5 MSTORE DUP4 ADD MSTORE PUSH32 0x34656211E4D5CC1A3C219C74290BCF60EA54C774A8D5594BCD378723721640CE SWAP2 LOG2 SLOAD ISZERO PUSH2 0x29A6 JUMPI POP JUMP JUMPDEST PUSH2 0x29AF SWAP1 PUSH2 0x2CE1 JUMP JUMPDEST JUMP JUMPDEST DUP5 MLOAD PUSH3 0x461BCD PUSH1 0xE5 SHL DUP2 MSTORE PUSH1 0x4 DUP2 ADD DUP5 SWAP1 MSTORE PUSH1 0x26 PUSH1 0x24 DUP3 ADD MSTORE PUSH32 0x496E73756666696369656E7420616C6C6F77616E636520666F72206C69717569 PUSH1 0x44 DUP3 ADD MSTORE PUSH6 0x3230BA34B7B7 PUSH1 0xD1 SHL PUSH1 0x64 DUP3 ADD MSTORE PUSH1 0x84 SWAP1 REVERT JUMPDEST DUP1 SWAP3 POP DUP6 DUP1 SWAP3 POP RETURNDATASIZE DUP4 GT PUSH2 0x2A32 JUMPI JUMPDEST PUSH2 0x2A1D DUP2 DUP4 PUSH2 0x200C JUMP JUMPDEST DUP2 ADD SUB SLT PUSH2 0x2A2E JUMPI DUP5 SWAP1 MLOAD CODESIZE PUSH2 0x28E0 JUMP JUMPDEST DUP8 DUP1 REVERT JUMPDEST POP RETURNDATASIZE PUSH2 0x2A13 JUMP JUMPDEST DUP7 MLOAD RETURNDATASIZE DUP11 DUP3 RETURNDATACOPY RETURNDATASIZE SWAP1 REVERT JUMPDEST DUP5 MLOAD PUSH3 0x461BCD PUSH1 0xE5 SHL DUP2 MSTORE PUSH1 0x4 DUP2 ADD DUP5 SWAP1 MSTORE PUSH1 0x24 DUP1 DUP3 ADD MSTORE PUSH32 0x496E73756666696369656E742062616C616E636520666F72206C697175696461 PUSH1 0x44 DUP3 ADD MSTORE PUSH4 0x3A34B7B7 PUSH1 0xE1 SHL PUSH1 0x64 DUP3 ADD MSTORE PUSH1 0x84 SWAP1 REVERT JUMPDEST DUP1 SWAP3 POP DUP6 DUP1 SWAP3 POP RETURNDATASIZE DUP4 GT PUSH2 0x2ABD JUMPI JUMPDEST PUSH2 0x2AAC DUP2 DUP4 PUSH2 0x200C JUMP JUMPDEST DUP2 ADD SUB SLT PUSH2 0x2A2E JUMPI DUP5 SWAP1 MLOAD CODESIZE PUSH2 0x28A9 JUMP JUMPDEST POP RETURNDATASIZE PUSH2 0x2AA2 JUMP JUMPDEST POP SWAP1 POP DUP5 PUSH32 0x54EC7ECE823327CAC62B619C1AD0D5EC021821029747486A9635B77A351BE60 SWAP6 SWAP7 SWAP8 POP DUP5 PUSH1 0x2 SWAP4 SWAP6 SWAP5 POP MSTORE MSTORE PUSH2 0x2B81 DUP3 DUP3 KECCAK256 PUSH1 0x2 DUP2 ADD SWAP3 DUP1 DUP5 SLOAD SWAP5 SSTORE PUSH1 0x4 DUP3 ADD SSTORE PUSH1 0xD DUP2 ADD PUSH1 0x1 PUSH1 0xA2 SHL PUSH1 0xFF PUSH1 0xA0 SHL NOT DUP3 SLOAD AND OR SWAP1 SSTORE DUP3 PUSH1 0xF DUP3 ADD SSTORE PUSH1 0x1 DUP1 DUP1 PUSH1 0xA0 SHL SUB SWAP2 ADD PUSH2 0x2B60 DUP5 DUP4 DUP4 SLOAD AND DUP5 PUSH32 0x0 AND PUSH2 0x2C91 JUMP JUMPDEST SLOAD SWAP4 MLOAD SWAP3 DUP4 MSTORE SWAP1 SWAP3 AND PUSH1 0x1 PUSH1 0x1 PUSH1 0xA0 SHL SUB AND PUSH1 0x20 DUP3 ADD MSTORE SWAP1 DUP2 SWAP1 PUSH1 0x40 DUP3 ADD SWAP1 JUMP JUMPDEST SUB SWAP1 LOG2 JUMP JUMPDEST PUSH1 0x64 SWAP2 MLOAD SWAP1 PUSH3 0x461BCD PUSH1 0xE5 SHL DUP3 MSTORE PUSH1 0x4 DUP3 ADD MSTORE PUSH1 0x1B PUSH1 0x24 DUP3 ADD MSTORE PUSH32 0x4C69717569646174696F6E20636F6F6C646F776E206163746976650000000000 PUSH1 0x44 DUP3 ADD MSTORE REVERT JUMPDEST PUSH1 0xFF PUSH1 0x1 SLOAD AND PUSH2 0x2BD4 JUMPI JUMP JUMPDEST PUSH1 0x40 MLOAD PUSH4 0xD93C0665 PUSH1 0xE0 SHL DUP2 MSTORE PUSH1 0x4 SWAP1 REVERT JUMPDEST PUSH1 0x1 SLOAD PUSH1 0x8 SHR PUSH1 0x1 PUSH1 0x1 PUSH1 0xA0 SHL SUB AND CALLER SUB PUSH2 0x2BFD JUMPI JUMP JUMPDEST PUSH1 0x40 MLOAD PUSH4 0x118CDAA7 PUSH1 0xE0 SHL DUP2 MSTORE CALLER PUSH1 0x4 DUP3 ADD MSTORE PUSH1 0x24 SWAP1 REVERT JUMPDEST PUSH1 0x2 PUSH1 0x0 SLOAD EQ PUSH2 0x2C26 JUMPI PUSH1 0x2 PUSH1 0x0 SSTORE JUMP JUMPDEST PUSH1 0x40 MLOAD PUSH4 0x3EE5AEB5 PUSH1 0xE0 SHL DUP2 MSTORE PUSH1 0x4 SWAP1 REVERT JUMPDEST PUSH1 0x40 MLOAD PUSH4 0x23B872DD PUSH1 0xE0 SHL PUSH1 0x20 DUP3 ADD MSTORE PUSH1 0x1 PUSH1 0x1 PUSH1 0xA0 SHL SUB SWAP3 DUP4 AND PUSH1 0x24 DUP3 ADD MSTORE SWAP3 SWAP1 SWAP2 AND PUSH1 0x44 DUP4 ADD MSTORE PUSH1 0x64 DUP1 DUP4 ADD SWAP4 SWAP1 SWAP4 MSTORE SWAP2 DUP2 MSTORE PUSH1 0xA0 DUP2 ADD SWAP2 DUP2 DUP4 LT PUSH8 0xFFFFFFFFFFFFFFFF DUP5 GT OR PUSH2 0x1FE2 JUMPI PUSH2 0x29AF SWAP3 PUSH1 0x40 MSTORE PUSH2 0x2F20 JUMP JUMPDEST PUSH1 0x40 MLOAD PUSH4 0xA9059CBB PUSH1 0xE0 SHL PUSH1 0x20 DUP3 ADD MSTORE PUSH1 0x1 PUSH1 0x1 PUSH1 0xA0 SHL SUB SWAP1 SWAP3 AND PUSH1 0x24 DUP4 ADD MSTORE PUSH1 0x44 DUP1 DUP4 ADD SWAP4 SWAP1 SWAP4 MSTORE SWAP2 DUP2 MSTORE PUSH1 0x80 DUP2 ADD SWAP2 PUSH8 0xFFFFFFFFFFFFFFFF DUP4 GT DUP3 DUP5 LT OR PUSH2 0x1FE2 JUMPI PUSH2 0x29AF SWAP3 PUSH1 0x40 MSTORE PUSH2 0x2F20 JUMP JUMPDEST PUSH1 0x0 DUP2 DUP2 MSTORE PUSH1 0x2 PUSH1 0x20 DUP2 SWAP1 MSTORE PUSH1 0x40 DUP3 KECCAK256 SWAP1 DUP2 ADD DUP1 SLOAD SWAP3 SWAP1 SSTORE PUSH1 0xD DUP2 ADD DUP1 SLOAD PUSH1 0xFF PUSH1 0xA0 SHL NOT AND PUSH1 0x3 PUSH1 0xA0 SHL OR SWAP1 SSTORE DUP3 SWAP2 DUP1 PUSH2 0x2D40 JUMPI JUMPDEST POP POP POP PUSH32 0x2CA5489B37DD363D1302BAC719E8EE40E540FFBE8C12253570FEA63E11CAD71 PUSH1 0x0 DUP1 LOG2 JUMP JUMPDEST DUP2 SLOAD PUSH32 0x54EC7ECE823327CAC62B619C1AD0D5EC021821029747486A9635B77A351BE60 SWAP3 PUSH1 0x1 PUSH1 0x1 PUSH1 0xA0 SHL SUB SWAP2 PUSH2 0x2D9D SWAP1 DUP5 SWAP1 DUP5 AND PUSH32 0x0 DUP6 AND PUSH2 0x2C91 JUMP JUMPDEST SLOAD PUSH1 0x40 DUP1 MLOAD SWAP4 DUP5 MSTORE SWAP2 AND PUSH1 0x1 PUSH1 0x1 PUSH1 0xA0 SHL SUB AND PUSH1 0x20 DUP4 ADD MSTORE DUP2 SWAP1 DUP2 ADD SUB SWAP1 LOG2 DUP1 CODESIZE DUP1 PUSH2 0x2D16 JUMP JUMPDEST SWAP2 SWAP1 PUSH2 0x2DD2 PUSH2 0x2AF8 SWAP2 PUSH2 0x23B4 JUMP JUMPDEST SWAP1 POP LT ISZERO PUSH2 0x2EDB JUMPI PUSH2 0x2DE2 PUSH2 0x25A1 JUMP JUMPDEST SWAP1 PUSH1 0x4 DUP4 ADD SLOAD SWAP2 PUSH2 0x30D4 SWAP1 DUP2 DUP5 MUL DUP5 ISZERO SWAP3 DUP6 DUP3 DIV EQ DUP4 OR ISZERO PUSH2 0x1F60 JUMPI PUSH1 0x2 SWAP6 PUSH2 0x2710 DUP1 SWAP3 DIV SWAP1 PUSH2 0x2E1F DUP5 PUSH8 0xDE0B6B3A7640000 SWAP10 DUP11 SWAP4 ADD SLOAD PUSH2 0x1F76 JUMP JUMPDEST DIV DUP2 DUP2 GT ISZERO PUSH2 0x2EC8 JUMPI SWAP1 PUSH2 0x2E32 SWAP2 PUSH2 0x2178 JUMP JUMPDEST DUP7 DUP2 MUL SWAP1 DUP1 DUP3 DIV DUP9 EQ SWAP1 ISZERO OR ISZERO PUSH2 0x1F60 JUMPI DUP3 PUSH2 0x2E4D SWAP2 PUSH2 0x1F89 JUMP JUMPDEST SWAP6 PUSH10 0x21E19E0C9BAB2400000 DUP1 PUSH2 0x2E6C PUSH2 0x2E67 DUP7 DUP12 PUSH2 0x1F76 JUMP JUMPDEST PUSH2 0x1F49 JUMP JUMPDEST DIV SWAP7 DUP1 DUP9 GT PUSH2 0x2E83 JUMPI JUMPDEST POP POP POP POP POP POP PUSH1 0x0 SWAP3 SWAP2 SWAP1 JUMP JUMPDEST SWAP2 SWAP4 SWAP6 SWAP8 POP SWAP2 SWAP4 SWAP6 POP DUP1 SWAP6 DUP4 DUP3 MUL SWAP4 DUP3 DUP6 DIV EQ OR ISZERO PUSH2 0x1F60 JUMPI MUL SWAP2 DUP2 DUP4 DIV EQ SWAP1 ISZERO OR ISZERO PUSH2 0x1F60 JUMPI PUSH2 0x2EB6 PUSH2 0x2EBC SWAP3 PUSH2 0x1F49 JUMP JUMPDEST SWAP1 PUSH2 0x1F89 JUMP JUMPDEST SWAP2 CODESIZE DUP1 DUP1 DUP1 DUP1 DUP1 PUSH2 0x2E76 JUMP JUMPDEST POP POP POP POP POP SWAP2 POP POP PUSH1 0x1 SWAP1 PUSH1 0x0 SWAP1 PUSH1 0x0 SWAP1 JUMP JUMPDEST PUSH1 0x40 MLOAD PUSH3 0x461BCD PUSH1 0xE5 SHL DUP2 MSTORE PUSH1 0x20 PUSH1 0x4 DUP3 ADD MSTORE PUSH1 0x18 PUSH1 0x24 DUP3 ADD MSTORE PUSH32 0x4C69717569646174696F6E206E6F742072657175697265640000000000000000 PUSH1 0x44 DUP3 ADD MSTORE PUSH1 0x64 SWAP1 REVERT JUMPDEST SWAP1 PUSH1 0x0 PUSH1 0x20 SWAP2 DUP3 DUP2 MLOAD SWAP2 ADD DUP3 DUP6 GAS CALL ISZERO PUSH2 0x2F7C JUMPI PUSH1 0x0 MLOAD RETURNDATASIZE PUSH2 0x2F73 JUMPI POP PUSH1 0x1 PUSH1 0x1 PUSH1 0xA0 SHL SUB DUP2 AND EXTCODESIZE ISZERO JUMPDEST PUSH2 0x2F51 JUMPI POP JUMP JUMPDEST PUSH1 0x40 MLOAD PUSH4 0x5274AFE7 PUSH1 0xE0 SHL DUP2 MSTORE PUSH1 0x1 PUSH1 0x1 PUSH1 0xA0 SHL SUB SWAP1 SWAP2 AND PUSH1 0x4 DUP3 ADD MSTORE PUSH1 0x24 SWAP1 REVERT JUMPDEST PUSH1 0x1 EQ ISZERO PUSH2 0x2F4A JUMP JUMPDEST PUSH1 0x40 MLOAD RETURNDATASIZE PUSH1 0x0 DUP3 RETURNDATACOPY RETURNDATASIZE SWAP1 REVERT INVALID LOG2 PUSH5 0x6970667358 0x22 SLT KECCAK256 EXTCODESIZE AND MLOAD PREVRANDAO PUSH13 0x649E61C8E944958DEEA5B2AFD7 EQ 0xD6 0xB3 PUSH29 0xE6785E00BA8780E1C5CA64736F6C634300081800330000000000000000 "},"methodIdentifiers":{"EXCELLENT_CREDIT()":"6120706f","FAIR_CREDIT()":"015895c9","GOOD_CREDIT()":"e8f90360","LIQUIDATION_COOLDOWN()":"a5905b55","LIQUIDATION_THRESHOLD()":"90a8ae9b","MAX_LIQUIDATION_DISCOUNT()":"74c7ce75","MAX_ORACLE_STALENESS()":"5dc565c2","MIN_HEALTH_FACTOR()":"b5627e42","PERCENTAGE_PRECISION()":"e256888f","PRECISION()":"aaf5eb68","PROPOSAL_EXPIRATION()":"cc604412","TARGET_HEALTH_FACTOR()":"698eec29","acceptLoan(uint256)":"adfbe22f","activateLoan(uint256)":"4644004d","activeLoanRequests(uint256)":"0a1d138e","addCollateral(uint256)":"bcc46e83","borrowerLoans(address,uint256)":"e3ed1902","calculateInterestRate(uint256)":"90d3b379","calculateLTV(uint256)":"a02d8c3a","calculateRequiredCollateral(uint256,uint256)":"5fd1a5f5","cancelLoan(uint256)":"bdbfa3de","creditScores(address)":"80bb7273","ethPriceFeed()":"af7665ce","ethPriceFeedBackup()":"677fd554","getActiveLoanRequests()":"9772d7ee","getETHPrice()":"a607a8d9","getLoanDetails(uint256)":"66877b8d","isEligibleForLiquidation(uint256)":"5aeb44fd","lastLiquidationTime(uint256)":"b66dc774","lenderLoans(address,uint256)":"3cdb72f1","loanCounter()":"34d9289e","loanVaults(uint256)":"5178f7bc","makePayment(uint256)":"5114cb52","openLoanRequests(uint256)":"69679f5a","owner()":"8da5cb5b","partialLiquidation(uint256)":"c4cca327","pause()":"8456cb59","paused()":"5c975abb","proposeLoan(uint256,uint256,address,uint256)":"317e5f05","renounceOwnership()":"715018a6","transferOwnership(address)":"f2fde38b","unpause()":"3f4ba83a","usdc()":"3e413bee","usdt()":"2f48ab7d","weth()":"3fc8cef3","withdrawExcessCollateral(uint256,uint256)":"47a4a7cf"}}}}}