{"contracts/mocks/MockChainlinkPriceFeed.sol":{"MockChainlinkPriceFeed":{"abi":[{"inputs":[{"internalType":"uint8","name":"_decimals","type":"uint8"},{"internalType":"string","name":"_description","type":"string"},{"internalType":"uint256","name":"_version","type":"uint256"},{"internalType":"int256","name":"_initialPrice","type":"int256"}],"stateMutability":"nonpayable","type":"constructor"},{"inputs":[],"name":"decimals","outputs":[{"internalType":"uint8","name":"","type":"uint8"}],"stateMutability":"view","type":"function"},{"inputs":[],"name":"description","outputs":[{"internalType":"string","name":"","type":"string"}],"stateMutability":"view","type":"function"},{"inputs":[{"internalType":"uint80","name":"_roundId","type":"uint80"}],"name":"getRoundData","outputs":[{"internalType":"uint80","name":"roundId","type":"uint80"},{"internalType":"int256","name":"answer","type":"int256"},{"internalType":"uint256","name":"startedAt","type":"uint256"},{"internalType":"uint256","name":"updatedAt","type":"uint256"},{"internalType":"uint80","name":"answeredInRound","type":"uint80"}],"stateMutability":"view","type":"function"},{"inputs":[],"name":"latestRoundData","outputs":[{"internalType":"uint80","name":"roundId","type":"uint80"},{"internalType":"int256","name":"answer","type":"int256"},{"internalType":"uint256","name":"startedAt","type":"uint256"},{"internalType":"uint256","name":"updatedAt","type":"uint256"},{"internalType":"uint80","name":"answeredInRound","type":"uint80"}],"stateMutability":"view","type":"function"},{"inputs":[{"internalType":"int256","name":"_answer","type":"int256"}],"name":"updateAnswer","outputs":[],"stateMutability":"nonpayable","type":"function"},{"inputs":[{"internalType":"uint256","name":"_timestamp","type":"uint256"}],"name":"updateTimestamp","outputs":[],"stateMutability":"nonpayable","type":"function"},{"inputs":[],"name":"version","outputs":[{"internalType":"uint256","name":"","type":"uint256"}],"stateMutability":"view","type":"function"}],"evm":{"bytecode":{"linkReferences":{},"object":"608060405234610239576105d2803803806100198161023e565b92833981019060808183031261023957805160ff8116809103610239576020828101519092906001600160401b039081811161023957820193601f9086828701121561023957855183811161020f57601f199661007b8285018916840161023e565b98828a5283838301011161023957829060005b83811061022557505060009189010152606060408501519401519460ff196000541617600055865192831161020f5760019586548781811c91168015610205575b838210146101ef578381116101a9575b5081928411600114610146575050819293949560009261013b575b5050600019600383901b1c191690841b1783555b60025560035542600455600580546001600160501b03191691909117905560405161036e90816102648239f35b0151905038806100fa565b6000878152828120918516989193925b8982106101925750508387989795969710610179575b505050811b01835561010e565b015160001960f88460031b161c1916905538808061016c565b808985968294968601518155019501930190610156565b87600052826000208480870160051c8201928588106101e6575b0160051c019088905b8281106101da5750506100df565b600081550188906101cc565b925081926101c3565b634e487b7160e01b600052602260045260246000fd5b90607f16906100cf565b634e487b7160e01b600052604160045260246000fd5b8181018301518b820184015284920161008e565b600080fd5b6040519190601f01601f191682016001600160401b0381118382101761020f5760405256fe60806040908082526004908136101561001757600080fd5b600090813560e01c908163313ce5671461031b5750806351ab28a91461030157806354fd4d50146102e25780637284e4161461017d5780639a6fc8f514610120578063a87a20ce146100bf5763feaf968c1461007257600080fd5b346100bc57806003193601126100bc5750600554600354915492516001600160501b039091168082526020820192909252604081018390526060810192909252608082015260a090f35b80fd5b50903461011c57602036600319011261011c578035600355428155600554906001600160501b039081831690828214610109575060010116906001600160501b0319161760055580f35b634e487b7160e01b855260119052602484fd5b5080fd5b50346100bc5760203660031901126100bc578135906001600160501b03821682036100bc5750600354915492516001600160501b03919091168082526020820192909252604081018390526060810192909252608082015260a090f35b5091346102de57826003193601126102de57805183600194600154908160011c600183169788156102d4575b6020938483108a146102c157848798999a84895291826000146102a5575050600114610251575b5050601f801995869203011683019583871067ffffffffffffffff88111761023e575085929391838652818452845191828186015281955b8387106102265750508394508582601f949501015201168101030190f35b86810182015189880189015295810195889550610208565b634e487b7160e01b835260419052602482fd5b600185528492507fb10e2d527612073b26eecdfd717e6a320cf44b4afac2b0732d9fcbe2b7fa0cf65b82841061028f575050508301810138806101d0565b805488850186015287965092840192810161027a565b925093505060ff191682860152151560051b84010138806101d0565b634e487b7160e01b865260228952602486fd5b90607f16906101a9565b8280fd5b50823461011c578160031936011261011c576020906002549051908152f35b50903461011c57602036600319011261011c578035905580f35b90503461011c578160031936011261011c5760ff60209254168152f3fea26469706673582212206f5601de1965171f089e4deafa02933438d055da040ccf8f4987fcdcd42824b664736f6c63430008180033","opcodes":"PUSH1 0x80 PUSH1 0x40 MSTORE CALLVALUE PUSH2 0x239 JUMPI PUSH2 0x5D2 DUP1 CODESIZE SUB DUP1 PUSH2 0x19 DUP2 PUSH2 0x23E JUMP JUMPDEST SWAP3 DUP4 CODECOPY DUP2 ADD SWAP1 PUSH1 0x80 DUP2 DUP4 SUB SLT PUSH2 0x239 JUMPI DUP1 MLOAD PUSH1 0xFF DUP2 AND DUP1 SWAP2 SUB PUSH2 0x239 JUMPI PUSH1 0x20 DUP3 DUP2 ADD MLOAD SWAP1 SWAP3 SWAP1 PUSH1 0x1 PUSH1 0x1 PUSH1 0x40 SHL SUB SWAP1 DUP2 DUP2 GT PUSH2 0x239 JUMPI DUP3 ADD SWAP4 PUSH1 0x1F SWAP1 DUP7 DUP3 DUP8 ADD SLT ISZERO PUSH2 0x239 JUMPI DUP6 MLOAD DUP4 DUP2 GT PUSH2 0x20F JUMPI PUSH1 0x1F NOT SWAP7 PUSH2 0x7B DUP3 DUP6 ADD DUP10 AND DUP5 ADD PUSH2 0x23E JUMP JUMPDEST SWAP9 DUP3 DUP11 MSTORE DUP4 DUP4 DUP4 ADD ADD GT PUSH2 0x239 JUMPI DUP3 SWAP1 PUSH1 0x0 JUMPDEST DUP4 DUP2 LT PUSH2 0x225 JUMPI POP POP PUSH1 0x0 SWAP2 DUP10 ADD ADD MSTORE PUSH1 0x60 PUSH1 0x40 DUP6 ADD MLOAD SWAP5 ADD MLOAD SWAP5 PUSH1 0xFF NOT PUSH1 0x0 SLOAD AND OR PUSH1 0x0 SSTORE DUP7 MLOAD SWAP3 DUP4 GT PUSH2 0x20F JUMPI PUSH1 0x1 SWAP6 DUP7 SLOAD DUP8 DUP2 DUP2 SHR SWAP2 AND DUP1 ISZERO PUSH2 0x205 JUMPI JUMPDEST DUP4 DUP3 LT EQ PUSH2 0x1EF JUMPI DUP4 DUP2 GT PUSH2 0x1A9 JUMPI JUMPDEST POP DUP2 SWAP3 DUP5 GT PUSH1 0x1 EQ PUSH2 0x146 JUMPI POP POP DUP2 SWAP3 SWAP4 SWAP5 SWAP6 PUSH1 0x0 SWAP3 PUSH2 0x13B JUMPI JUMPDEST POP POP PUSH1 0x0 NOT PUSH1 0x3 DUP4 SWAP1 SHL SHR NOT AND SWAP1 DUP5 SHL OR DUP4 SSTORE JUMPDEST PUSH1 0x2 SSTORE PUSH1 0x3 SSTORE TIMESTAMP PUSH1 0x4 SSTORE PUSH1 0x5 DUP1 SLOAD PUSH1 0x1 PUSH1 0x1 PUSH1 0x50 SHL SUB NOT AND SWAP2 SWAP1 SWAP2 OR SWAP1 SSTORE PUSH1 0x40 MLOAD PUSH2 0x36E SWAP1 DUP2 PUSH2 0x264 DUP3 CODECOPY RETURN JUMPDEST ADD MLOAD SWAP1 POP CODESIZE DUP1 PUSH2 0xFA JUMP JUMPDEST PUSH1 0x0 DUP8 DUP2 MSTORE DUP3 DUP2 KECCAK256 SWAP2 DUP6 AND SWAP9 SWAP2 SWAP4 SWAP3 JUMPDEST DUP10 DUP3 LT PUSH2 0x192 JUMPI POP POP DUP4 DUP8 SWAP9 SWAP8 SWAP6 SWAP7 SWAP8 LT PUSH2 0x179 JUMPI JUMPDEST POP POP POP DUP2 SHL ADD DUP4 SSTORE PUSH2 0x10E JUMP JUMPDEST ADD MLOAD PUSH1 0x0 NOT PUSH1 0xF8 DUP5 PUSH1 0x3 SHL AND SHR NOT AND SWAP1 SSTORE CODESIZE DUP1 DUP1 PUSH2 0x16C JUMP JUMPDEST DUP1 DUP10 DUP6 SWAP7 DUP3 SWAP5 SWAP7 DUP7 ADD MLOAD DUP2 SSTORE ADD SWAP6 ADD SWAP4 ADD SWAP1 PUSH2 0x156 JUMP JUMPDEST DUP8 PUSH1 0x0 MSTORE DUP3 PUSH1 0x0 KECCAK256 DUP5 DUP1 DUP8 ADD PUSH1 0x5 SHR DUP3 ADD SWAP3 DUP6 DUP9 LT PUSH2 0x1E6 JUMPI JUMPDEST ADD PUSH1 0x5 SHR ADD SWAP1 DUP9 SWAP1 JUMPDEST DUP3 DUP2 LT PUSH2 0x1DA JUMPI POP POP PUSH2 0xDF JUMP JUMPDEST PUSH1 0x0 DUP2 SSTORE ADD DUP9 SWAP1 PUSH2 0x1CC JUMP JUMPDEST SWAP3 POP DUP2 SWAP3 PUSH2 0x1C3 JUMP JUMPDEST PUSH4 0x4E487B71 PUSH1 0xE0 SHL PUSH1 0x0 MSTORE PUSH1 0x22 PUSH1 0x4 MSTORE PUSH1 0x24 PUSH1 0x0 REVERT JUMPDEST SWAP1 PUSH1 0x7F AND SWAP1 PUSH2 0xCF JUMP JUMPDEST PUSH4 0x4E487B71 PUSH1 0xE0 SHL PUSH1 0x0 MSTORE PUSH1 0x41 PUSH1 0x4 MSTORE PUSH1 0x24 PUSH1 0x0 REVERT JUMPDEST DUP2 DUP2 ADD DUP4 ADD MLOAD DUP12 DUP3 ADD DUP5 ADD MSTORE DUP5 SWAP3 ADD PUSH2 0x8E JUMP JUMPDEST PUSH1 0x0 DUP1 REVERT JUMPDEST PUSH1 0x40 MLOAD SWAP2 SWAP1 PUSH1 0x1F ADD PUSH1 0x1F NOT AND DUP3 ADD PUSH1 0x1 PUSH1 0x1 PUSH1 0x40 SHL SUB DUP2 GT DUP4 DUP3 LT OR PUSH2 0x20F JUMPI PUSH1 0x40 MSTORE JUMP INVALID PUSH1 0x80 PUSH1 0x40 SWAP1 DUP1 DUP3 MSTORE PUSH1 0x4 SWAP1 DUP2 CALLDATASIZE LT ISZERO PUSH2 0x17 JUMPI PUSH1 0x0 DUP1 REVERT JUMPDEST PUSH1 0x0 SWAP1 DUP2 CALLDATALOAD PUSH1 0xE0 SHR SWAP1 DUP2 PUSH4 0x313CE567 EQ PUSH2 0x31B JUMPI POP DUP1 PUSH4 0x51AB28A9 EQ PUSH2 0x301 JUMPI DUP1 PUSH4 0x54FD4D50 EQ PUSH2 0x2E2 JUMPI DUP1 PUSH4 0x7284E416 EQ PUSH2 0x17D JUMPI DUP1 PUSH4 0x9A6FC8F5 EQ PUSH2 0x120 JUMPI DUP1 PUSH4 0xA87A20CE EQ PUSH2 0xBF JUMPI PUSH4 0xFEAF968C EQ PUSH2 0x72 JUMPI PUSH1 0x0 DUP1 REVERT JUMPDEST CALLVALUE PUSH2 0xBC JUMPI DUP1 PUSH1 0x3 NOT CALLDATASIZE ADD SLT PUSH2 0xBC JUMPI POP PUSH1 0x5 SLOAD PUSH1 0x3 SLOAD SWAP2 SLOAD SWAP3 MLOAD PUSH1 0x1 PUSH1 0x1 PUSH1 0x50 SHL SUB SWAP1 SWAP2 AND DUP1 DUP3 MSTORE PUSH1 0x20 DUP3 ADD SWAP3 SWAP1 SWAP3 MSTORE PUSH1 0x40 DUP2 ADD DUP4 SWAP1 MSTORE PUSH1 0x60 DUP2 ADD SWAP3 SWAP1 SWAP3 MSTORE PUSH1 0x80 DUP3 ADD MSTORE PUSH1 0xA0 SWAP1 RETURN JUMPDEST DUP1 REVERT JUMPDEST POP SWAP1 CALLVALUE PUSH2 0x11C JUMPI PUSH1 0x20 CALLDATASIZE PUSH1 0x3 NOT ADD SLT PUSH2 0x11C JUMPI DUP1 CALLDATALOAD PUSH1 0x3 SSTORE TIMESTAMP DUP2 SSTORE PUSH1 0x5 SLOAD SWAP1 PUSH1 0x1 PUSH1 0x1 PUSH1 0x50 SHL SUB SWAP1 DUP2 DUP4 AND SWAP1 DUP3 DUP3 EQ PUSH2 0x109 JUMPI POP PUSH1 0x1 ADD AND SWAP1 PUSH1 0x1 PUSH1 0x1 PUSH1 0x50 SHL SUB NOT AND OR PUSH1 0x5 SSTORE DUP1 RETURN JUMPDEST PUSH4 0x4E487B71 PUSH1 0xE0 SHL DUP6 MSTORE PUSH1 0x11 SWAP1 MSTORE PUSH1 0x24 DUP5 REVERT JUMPDEST POP DUP1 REVERT JUMPDEST POP CALLVALUE PUSH2 0xBC JUMPI PUSH1 0x20 CALLDATASIZE PUSH1 0x3 NOT ADD SLT PUSH2 0xBC JUMPI DUP2 CALLDATALOAD SWAP1 PUSH1 0x1 PUSH1 0x1 PUSH1 0x50 SHL SUB DUP3 AND DUP3 SUB PUSH2 0xBC JUMPI POP PUSH1 0x3 SLOAD SWAP2 SLOAD SWAP3 MLOAD PUSH1 0x1 PUSH1 0x1 PUSH1 0x50 SHL SUB SWAP2 SWAP1 SWAP2 AND DUP1 DUP3 MSTORE PUSH1 0x20 DUP3 ADD SWAP3 SWAP1 SWAP3 MSTORE PUSH1 0x40 DUP2 ADD DUP4 SWAP1 MSTORE PUSH1 0x60 DUP2 ADD SWAP3 SWAP1 SWAP3 MSTORE PUSH1 0x80 DUP3 ADD MSTORE PUSH1 0xA0 SWAP1 RETURN JUMPDEST POP SWAP2 CALLVALUE PUSH2 0x2DE JUMPI DUP3 PUSH1 0x3 NOT CALLDATASIZE ADD SLT PUSH2 0x2DE JUMPI DUP1 MLOAD DUP4 PUSH1 0x1 SWAP5 PUSH1 0x1 SLOAD SWAP1 DUP2 PUSH1 0x1 SHR PUSH1 0x1 DUP4 AND SWAP8 DUP9 ISZERO PUSH2 0x2D4 JUMPI JUMPDEST PUSH1 0x20 SWAP4 DUP5 DUP4 LT DUP11 EQ PUSH2 0x2C1 JUMPI DUP5 DUP8 SWAP9 SWAP10 SWAP11 DUP5 DUP10 MSTORE SWAP2 DUP3 PUSH1 0x0 EQ PUSH2 0x2A5 JUMPI POP POP PUSH1 0x1 EQ PUSH2 0x251 JUMPI JUMPDEST POP POP PUSH1 0x1F DUP1 NOT SWAP6 DUP7 SWAP3 SUB ADD AND DUP4 ADD SWAP6 DUP4 DUP8 LT PUSH8 0xFFFFFFFFFFFFFFFF DUP9 GT OR PUSH2 0x23E JUMPI POP DUP6 SWAP3 SWAP4 SWAP2 DUP4 DUP7 MSTORE DUP2 DUP5 MSTORE DUP5 MLOAD SWAP2 DUP3 DUP2 DUP7 ADD MSTORE DUP2 SWAP6 JUMPDEST DUP4 DUP8 LT PUSH2 0x226 JUMPI POP POP DUP4 SWAP5 POP DUP6 DUP3 PUSH1 0x1F SWAP5 SWAP6 ADD ADD MSTORE ADD AND DUP2 ADD SUB ADD SWAP1 RETURN JUMPDEST DUP7 DUP2 ADD DUP3 ADD MLOAD DUP10 DUP9 ADD DUP10 ADD MSTORE SWAP6 DUP2 ADD SWAP6 DUP9 SWAP6 POP PUSH2 0x208 JUMP JUMPDEST PUSH4 0x4E487B71 PUSH1 0xE0 SHL DUP4 MSTORE PUSH1 0x41 SWAP1 MSTORE PUSH1 0x24 DUP3 REVERT JUMPDEST PUSH1 0x1 DUP6 MSTORE DUP5 SWAP3 POP PUSH32 0xB10E2D527612073B26EECDFD717E6A320CF44B4AFAC2B0732D9FCBE2B7FA0CF6 JUMPDEST DUP3 DUP5 LT PUSH2 0x28F JUMPI POP POP POP DUP4 ADD DUP2 ADD CODESIZE DUP1 PUSH2 0x1D0 JUMP JUMPDEST DUP1 SLOAD DUP9 DUP6 ADD DUP7 ADD MSTORE DUP8 SWAP7 POP SWAP3 DUP5 ADD SWAP3 DUP2 ADD PUSH2 0x27A JUMP JUMPDEST SWAP3 POP SWAP4 POP POP PUSH1 0xFF NOT AND DUP3 DUP7 ADD MSTORE ISZERO ISZERO PUSH1 0x5 SHL DUP5 ADD ADD CODESIZE DUP1 PUSH2 0x1D0 JUMP JUMPDEST PUSH4 0x4E487B71 PUSH1 0xE0 SHL DUP7 MSTORE PUSH1 0x22 DUP10 MSTORE PUSH1 0x24 DUP7 REVERT JUMPDEST SWAP1 PUSH1 0x7F AND SWAP1 PUSH2 0x1A9 JUMP JUMPDEST DUP3 DUP1 REVERT JUMPDEST POP DUP3 CALLVALUE PUSH2 0x11C JUMPI DUP2 PUSH1 0x3 NOT CALLDATASIZE ADD SLT PUSH2 0x11C JUMPI PUSH1 0x20 SWAP1 PUSH1 0x2 SLOAD SWAP1 MLOAD SWAP1 DUP2 MSTORE RETURN JUMPDEST POP SWAP1 CALLVALUE PUSH2 0x11C JUMPI PUSH1 0x20 CALLDATASIZE PUSH1 0x3 NOT ADD SLT PUSH2 0x11C JUMPI DUP1 CALLDATALOAD SWAP1 SSTORE DUP1 RETURN JUMPDEST SWAP1 POP CALLVALUE PUSH2 0x11C JUMPI DUP2 PUSH1 0x3 NOT CALLDATASIZE ADD SLT PUSH2 0x11C JUMPI PUSH1 0xFF PUSH1 0x20 SWAP3 SLOAD AND DUP2 MSTORE RETURN INVALID LOG2 PUSH5 0x6970667358 0x22 SLT KECCAK256 PUSH16 0x5601DE1965171F089E4DEAFA02933438 0xD0 SSTORE 0xDA DIV 0xC 0xCF DUP16 BLOBHASH DUP8 0xFC 0xDC 0xD4 0x28 0x24 0xB6 PUSH5 0x736F6C6343 STOP ADDMOD XOR STOP CALLER "},"methodIdentifiers":{"decimals()":"313ce567","description()":"7284e416","getRoundData(uint80)":"9a6fc8f5","latestRoundData()":"feaf968c","updateAnswer(int256)":"a87a20ce","updateTimestamp(uint256)":"51ab28a9","version()":"54fd4d50"}}}}}