{
  "_format": "hh-sol-artifact-1",
  "contractName": "DecentralizedP2PLending",
  "sourceName": "contracts/lending.sol",
  "abi": [
    {
      "inputs": [
        {
          "internalType": "address",
          "name": "_weth",
          "type": "address"
        },
        {
          "internalType": "address",
          "name": "_usdc",
          "type": "address"
        },
        {
          "internalType": "address",
          "name": "_usdt",
          "type": "address"
        },
        {
          "internalType": "address",
          "name": "_ethPriceFeed",
          "type": "address"
        },
        {
          "internalType": "address",
          "name": "_ethPriceFeedBackup",
          "type": "address"
        }
      ],
      "stateMutability": "nonpayable",
      "type": "constructor"
    },
    {
      "inputs": [],
      "name": "EnforcedPause",
      "type": "error"
    },
    {
      "inputs": [],
      "name": "ExpectedPause",
      "type": "error"
    },
    {
      "inputs": [
        {
          "internalType": "address",
          "name": "owner",
          "type": "address"
        }
      ],
      "name": "OwnableInvalidOwner",
      "type": "error"
    },
    {
      "inputs": [
        {
          "internalType": "address",
          "name": "account",
          "type": "address"
        }
      ],
      "name": "OwnableUnauthorizedAccount",
      "type": "error"
    },
    {
      "inputs": [],
      "name": "ReentrancyGuardReentrantCall",
      "type": "error"
    },
    {
      "inputs": [
        {
          "internalType": "address",
          "name": "token",
          "type": "address"
        }
      ],
      "name": "SafeERC20FailedOperation",
      "type": "error"
    },
    {
      "anonymous": false,
      "inputs": [
        {
          "indexed": true,
          "internalType": "uint256",
          "name": "loanId",
          "type": "uint256"
        },
        {
          "indexed": false,
          "internalType": "uint256",
          "name": "amount",
          "type": "uint256"
        }
      ],
      "name": "CollateralAdded",
      "type": "event"
    },
    {
      "anonymous": false,
      "inputs": [
        {
          "indexed": true,
          "internalType": "uint256",
          "name": "loanId",
          "type": "uint256"
        },
        {
          "indexed": false,
          "internalType": "uint256",
          "name": "amount",
          "type": "uint256"
        },
        {
          "indexed": false,
          "internalType": "address",
          "name": "to",
          "type": "address"
        }
      ],
      "name": "CollateralReleased",
      "type": "event"
    },
    {
      "anonymous": false,
      "inputs": [
        {
          "indexed": true,
          "internalType": "uint256",
          "name": "loanId",
          "type": "uint256"
        },
        {
          "indexed": false,
          "internalType": "uint256",
          "name": "amount",
          "type": "uint256"
        }
      ],
      "name": "ExcessCollateralWithdrawn",
      "type": "event"
    },
    {
      "anonymous": false,
      "inputs": [
        {
          "indexed": true,
          "internalType": "uint256",
          "name": "loanId",
          "type": "uint256"
        },
        {
          "indexed": true,
          "internalType": "address",
          "name": "lender",
          "type": "address"
        }
      ],
      "name": "LoanAccepted",
      "type": "event"
    },
    {
      "anonymous": false,
      "inputs": [
        {
          "indexed": true,
          "internalType": "uint256",
          "name": "loanId",
          "type": "uint256"
        }
      ],
      "name": "LoanActivated",
      "type": "event"
    },
    {
      "anonymous": false,
      "inputs": [
        {
          "indexed": true,
          "internalType": "uint256",
          "name": "loanId",
          "type": "uint256"
        }
      ],
      "name": "LoanCancelled",
      "type": "event"
    },
    {
      "anonymous": false,
      "inputs": [
        {
          "indexed": true,
          "internalType": "uint256",
          "name": "loanId",
          "type": "uint256"
        }
      ],
      "name": "LoanCompleted",
      "type": "event"
    },
    {
      "anonymous": false,
      "inputs": [
        {
          "indexed": true,
          "internalType": "uint256",
          "name": "loanId",
          "type": "uint256"
        },
        {
          "indexed": true,
          "internalType": "address",
          "name": "borrower",
          "type": "address"
        },
        {
          "indexed": false,
          "internalType": "uint256",
          "name": "amount",
          "type": "uint256"
        },
        {
          "indexed": false,
          "internalType": "uint256",
          "name": "collateral",
          "type": "uint256"
        }
      ],
      "name": "LoanProposed",
      "type": "event"
    },
    {
      "anonymous": false,
      "inputs": [
        {
          "indexed": true,
          "internalType": "address",
          "name": "previousOwner",
          "type": "address"
        },
        {
          "indexed": true,
          "internalType": "address",
          "name": "newOwner",
          "type": "address"
        }
      ],
      "name": "OwnershipTransferred",
      "type": "event"
    },
    {
      "anonymous": false,
      "inputs": [
        {
          "indexed": true,
          "internalType": "uint256",
          "name": "loanId",
          "type": "uint256"
        },
        {
          "indexed": false,
          "internalType": "uint256",
          "name": "collateralLiquidated",
          "type": "uint256"
        },
        {
          "indexed": false,
          "internalType": "uint256",
          "name": "debtReduced",
          "type": "uint256"
        }
      ],
      "name": "PartialLiquidation",
      "type": "event"
    },
    {
      "anonymous": false,
      "inputs": [
        {
          "indexed": false,
          "internalType": "address",
          "name": "account",
          "type": "address"
        }
      ],
      "name": "Paused",
      "type": "event"
    },
    {
      "anonymous": false,
      "inputs": [
        {
          "indexed": true,
          "internalType": "uint256",
          "name": "loanId",
          "type": "uint256"
        },
        {
          "indexed": false,
          "internalType": "uint256",
          "name": "amount",
          "type": "uint256"
        },
        {
          "indexed": false,
          "internalType": "uint256",
          "name": "remainingDebt",
          "type": "uint256"
        }
      ],
      "name": "PaymentMade",
      "type": "event"
    },
    {
      "anonymous": false,
      "inputs": [
        {
          "indexed": false,
          "internalType": "address",
          "name": "account",
          "type": "address"
        }
      ],
      "name": "Unpaused",
      "type": "event"
    },
    {
      "inputs": [],
      "name": "EXCELLENT_CREDIT",
      "outputs": [
        {
          "internalType": "uint256",
          "name": "",
          "type": "uint256"
        }
      ],
      "stateMutability": "view",
      "type": "function"
    },
    {
      "inputs": [],
      "name": "FAIR_CREDIT",
      "outputs": [
        {
          "internalType": "uint256",
          "name": "",
          "type": "uint256"
        }
      ],
      "stateMutability": "view",
      "type": "function"
    },
    {
      "inputs": [],
      "name": "GOOD_CREDIT",
      "outputs": [
        {
          "internalType": "uint256",
          "name": "",
          "type": "uint256"
        }
      ],
      "stateMutability": "view",
      "type": "function"
    },
    {
      "inputs": [],
      "name": "LIQUIDATION_COOLDOWN",
      "outputs": [
        {
          "internalType": "uint256",
          "name": "",
          "type": "uint256"
        }
      ],
      "stateMutability": "view",
      "type": "function"
    },
    {
      "inputs": [],
      "name": "LIQUIDATION_THRESHOLD",
      "outputs": [
        {
          "internalType": "uint256",
          "name": "",
          "type": "uint256"
        }
      ],
      "stateMutability": "view",
      "type": "function"
    },
    {
      "inputs": [],
      "name": "MAX_LIQUIDATION_DISCOUNT",
      "outputs": [
        {
          "internalType": "uint256",
          "name": "",
          "type": "uint256"
        }
      ],
      "stateMutability": "view",
      "type": "function"
    },
    {
      "inputs": [],
      "name": "MAX_ORACLE_STALENESS",
      "outputs": [
        {
          "internalType": "uint256",
          "name": "",
          "type": "uint256"
        }
      ],
      "stateMutability": "view",
      "type": "function"
    },
    {
      "inputs": [],
      "name": "MIN_HEALTH_FACTOR",
      "outputs": [
        {
          "internalType": "uint256",
          "name": "",
          "type": "uint256"
        }
      ],
      "stateMutability": "view",
      "type": "function"
    },
    {
      "inputs": [],
      "name": "PERCENTAGE_PRECISION",
      "outputs": [
        {
          "internalType": "uint256",
          "name": "",
          "type": "uint256"
        }
      ],
      "stateMutability": "view",
      "type": "function"
    },
    {
      "inputs": [],
      "name": "PRECISION",
      "outputs": [
        {
          "internalType": "uint256",
          "name": "",
          "type": "uint256"
        }
      ],
      "stateMutability": "view",
      "type": "function"
    },
    {
      "inputs": [],
      "name": "PROPOSAL_EXPIRATION",
      "outputs": [
        {
          "internalType": "uint256",
          "name": "",
          "type": "uint256"
        }
      ],
      "stateMutability": "view",
      "type": "function"
    },
    {
      "inputs": [],
      "name": "TARGET_HEALTH_FACTOR",
      "outputs": [
        {
          "internalType": "uint256",
          "name": "",
          "type": "uint256"
        }
      ],
      "stateMutability": "view",
      "type": "function"
    },
    {
      "inputs": [
        {
          "internalType": "uint256",
          "name": "loanId",
          "type": "uint256"
        }
      ],
      "name": "acceptLoan",
      "outputs": [],
      "stateMutability": "nonpayable",
      "type": "function"
    },
    {
      "inputs": [
        {
          "internalType": "uint256",
          "name": "loanId",
          "type": "uint256"
        }
      ],
      "name": "activateLoan",
      "outputs": [],
      "stateMutability": "payable",
      "type": "function"
    },
    {
      "inputs": [
        {
          "internalType": "uint256",
          "name": "",
          "type": "uint256"
        }
      ],
      "name": "activeLoanRequests",
      "outputs": [
        {
          "internalType": "uint256",
          "name": "",
          "type": "uint256"
        }
      ],
      "stateMutability": "view",
      "type": "function"
    },
    {
      "inputs": [
        {
          "internalType": "uint256",
          "name": "loanId",
          "type": "uint256"
        }
      ],
      "name": "addCollateral",
      "outputs": [],
      "stateMutability": "payable",
      "type": "function"
    },
    {
      "inputs": [
        {
          "internalType": "address",
          "name": "",
          "type": "address"
        },
        {
          "internalType": "uint256",
          "name": "",
          "type": "uint256"
        }
      ],
      "name": "borrowerLoans",
      "outputs": [
        {
          "internalType": "uint256",
          "name": "",
          "type": "uint256"
        }
      ],
      "stateMutability": "view",
      "type": "function"
    },
    {
      "inputs": [
        {
          "internalType": "uint256",
          "name": "creditScore",
          "type": "uint256"
        }
      ],
      "name": "calculateInterestRate",
      "outputs": [
        {
          "internalType": "uint256",
          "name": "",
          "type": "uint256"
        }
      ],
      "stateMutability": "pure",
      "type": "function"
    },
    {
      "inputs": [
        {
          "internalType": "uint256",
          "name": "loanId",
          "type": "uint256"
        }
      ],
      "name": "calculateLTV",
      "outputs": [
        {
          "internalType": "uint256",
          "name": "ltv",
          "type": "uint256"
        },
        {
          "internalType": "uint256",
          "name": "healthFactor",
          "type": "uint256"
        }
      ],
      "stateMutability": "view",
      "type": "function"
    },
    {
      "inputs": [
        {
          "internalType": "uint256",
          "name": "borrowAmount",
          "type": "uint256"
        },
        {
          "internalType": "uint256",
          "name": "creditScore",
          "type": "uint256"
        }
      ],
      "name": "calculateRequiredCollateral",
      "outputs": [
        {
          "internalType": "uint256",
          "name": "",
          "type": "uint256"
        }
      ],
      "stateMutability": "pure",
      "type": "function"
    },
    {
      "inputs": [
        {
          "internalType": "uint256",
          "name": "loanId",
          "type": "uint256"
        }
      ],
      "name": "cancelLoan",
      "outputs": [],
      "stateMutability": "nonpayable",
      "type": "function"
    },
    {
      "inputs": [
        {
          "internalType": "address",
          "name": "",
          "type": "address"
        }
      ],
      "name": "creditScores",
      "outputs": [
        {
          "internalType": "uint256",
          "name": "",
          "type": "uint256"
        }
      ],
      "stateMutability": "view",
      "type": "function"
    },
    {
      "inputs": [],
      "name": "ethPriceFeed",
      "outputs": [
        {
          "internalType": "contract AggregatorV3Interface",
          "name": "",
          "type": "address"
        }
      ],
      "stateMutability": "view",
      "type": "function"
    },
    {
      "inputs": [],
      "name": "ethPriceFeedBackup",
      "outputs": [
        {
          "internalType": "contract AggregatorV3Interface",
          "name": "",
          "type": "address"
        }
      ],
      "stateMutability": "view",
      "type": "function"
    },
    {
      "inputs": [],
      "name": "getActiveLoanRequests",
      "outputs": [
        {
          "internalType": "uint256[]",
          "name": "",
          "type": "uint256[]"
        }
      ],
      "stateMutability": "view",
      "type": "function"
    },
    {
      "inputs": [],
      "name": "getETHPrice",
      "outputs": [
        {
          "internalType": "uint256",
          "name": "",
          "type": "uint256"
        }
      ],
      "stateMutability": "view",
      "type": "function"
    },
    {
      "inputs": [
        {
          "internalType": "uint256",
          "name": "loanId",
          "type": "uint256"
        }
      ],
      "name": "getLoanDetails",
      "outputs": [
        {
          "internalType": "address",
          "name": "borrower",
          "type": "address"
        },
        {
          "internalType": "address",
          "name": "lender",
          "type": "address"
        },
        {
          "internalType": "uint256",
          "name": "collateralAmount",
          "type": "uint256"
        },
        {
          "internalType": "uint256",
          "name": "outstandingDebt",
          "type": "uint256"
        },
        {
          "internalType": "uint256",
          "name": "currentLTV",
          "type": "uint256"
        },
        {
          "internalType": "uint256",
          "name": "healthFactor",
          "type": "uint256"
        },
        {
          "internalType": "enum DecentralizedP2PLending.LoanStatus",
          "name": "status",
          "type": "uint8"
        },
        {
          "internalType": "bool",
          "name": "collateralDeposited",
          "type": "bool"
        },
        {
          "internalType": "uint256",
          "name": "proposalExpiration",
          "type": "uint256"
        }
      ],
      "stateMutability": "view",
      "type": "function"
    },
    {
      "inputs": [
        {
          "internalType": "uint256",
          "name": "loanId",
          "type": "uint256"
        }
      ],
      "name": "isEligibleForLiquidation",
      "outputs": [
        {
          "internalType": "bool",
          "name": "eligible",
          "type": "bool"
        },
        {
          "internalType": "uint256",
          "name": "healthFactor",
          "type": "uint256"
        }
      ],
      "stateMutability": "view",
      "type": "function"
    },
    {
      "inputs": [
        {
          "internalType": "uint256",
          "name": "",
          "type": "uint256"
        }
      ],
      "name": "lastLiquidationTime",
      "outputs": [
        {
          "internalType": "uint256",
          "name": "",
          "type": "uint256"
        }
      ],
      "stateMutability": "view",
      "type": "function"
    },
    {
      "inputs": [
        {
          "internalType": "address",
          "name": "",
          "type": "address"
        },
        {
          "internalType": "uint256",
          "name": "",
          "type": "uint256"
        }
      ],
      "name": "lenderLoans",
      "outputs": [
        {
          "internalType": "uint256",
          "name": "",
          "type": "uint256"
        }
      ],
      "stateMutability": "view",
      "type": "function"
    },
    {
      "inputs": [],
      "name": "loanCounter",
      "outputs": [
        {
          "internalType": "uint256",
          "name": "",
          "type": "uint256"
        }
      ],
      "stateMutability": "view",
      "type": "function"
    },
    {
      "inputs": [
        {
          "internalType": "uint256",
          "name": "",
          "type": "uint256"
        }
      ],
      "name": "loanVaults",
      "outputs": [
        {
          "internalType": "address",
          "name": "borrower",
          "type": "address"
        },
        {
          "internalType": "address",
          "name": "lender",
          "type": "address"
        },
        {
          "internalType": "uint256",
          "name": "collateralAmount",
          "type": "uint256"
        },
        {
          "internalType": "uint256",
          "name": "principalAmount",
          "type": "uint256"
        },
        {
          "internalType": "uint256",
          "name": "outstandingDebt",
          "type": "uint256"
        },
        {
          "internalType": "uint256",
          "name": "interestRate",
          "type": "uint256"
        },
        {
          "internalType": "uint256",
          "name": "monthlyPayment",
          "type": "uint256"
        },
        {
          "internalType": "uint256",
          "name": "duration",
          "type": "uint256"
        },
        {
          "internalType": "uint256",
          "name": "proposalTime",
          "type": "uint256"
        },
        {
          "internalType": "uint256",
          "name": "startTime",
          "type": "uint256"
        },
        {
          "internalType": "uint256",
          "name": "lastPaymentTime",
          "type": "uint256"
        },
        {
          "internalType": "uint256",
          "name": "proposalExpiration",
          "type": "uint256"
        },
        {
          "internalType": "uint256",
          "name": "creditScore",
          "type": "uint256"
        },
        {
          "internalType": "address",
          "name": "stablecoin",
          "type": "address"
        },
        {
          "internalType": "enum DecentralizedP2PLending.LoanStatus",
          "name": "status",
          "type": "uint8"
        },
        {
          "internalType": "uint256",
          "name": "totalRepaid",
          "type": "uint256"
        },
        {
          "internalType": "uint256",
          "name": "liquidatedAmount",
          "type": "uint256"
        },
        {
          "internalType": "bool",
          "name": "collateralDeposited",
          "type": "bool"
        },
        {
          "internalType": "address",
          "name": "collateralHolder",
          "type": "address"
        }
      ],
      "stateMutability": "view",
      "type": "function"
    },
    {
      "inputs": [
        {
          "internalType": "uint256",
          "name": "loanId",
          "type": "uint256"
        }
      ],
      "name": "makePayment",
      "outputs": [],
      "stateMutability": "nonpayable",
      "type": "function"
    },
    {
      "inputs": [
        {
          "internalType": "uint256",
          "name": "",
          "type": "uint256"
        }
      ],
      "name": "openLoanRequests",
      "outputs": [
        {
          "internalType": "bool",
          "name": "",
          "type": "bool"
        }
      ],
      "stateMutability": "view",
      "type": "function"
    },
    {
      "inputs": [],
      "name": "owner",
      "outputs": [
        {
          "internalType": "address",
          "name": "",
          "type": "address"
        }
      ],
      "stateMutability": "view",
      "type": "function"
    },
    {
      "inputs": [
        {
          "internalType": "uint256",
          "name": "loanId",
          "type": "uint256"
        }
      ],
      "name": "partialLiquidation",
      "outputs": [],
      "stateMutability": "nonpayable",
      "type": "function"
    },
    {
      "inputs": [],
      "name": "pause",
      "outputs": [],
      "stateMutability": "nonpayable",
      "type": "function"
    },
    {
      "inputs": [],
      "name": "paused",
      "outputs": [
        {
          "internalType": "bool",
          "name": "",
          "type": "bool"
        }
      ],
      "stateMutability": "view",
      "type": "function"
    },
    {
      "inputs": [
        {
          "internalType": "uint256",
          "name": "borrowAmount",
          "type": "uint256"
        },
        {
          "internalType": "uint256",
          "name": "duration",
          "type": "uint256"
        },
        {
          "internalType": "address",
          "name": "stablecoin",
          "type": "address"
        },
        {
          "internalType": "uint256",
          "name": "creditScore",
          "type": "uint256"
        }
      ],
      "name": "proposeLoan",
      "outputs": [
        {
          "internalType": "uint256",
          "name": "loanId",
          "type": "uint256"
        }
      ],
      "stateMutability": "nonpayable",
      "type": "function"
    },
    {
      "inputs": [],
      "name": "renounceOwnership",
      "outputs": [],
      "stateMutability": "nonpayable",
      "type": "function"
    },
    {
      "inputs": [
        {
          "internalType": "address",
          "name": "newOwner",
          "type": "address"
        }
      ],
      "name": "transferOwnership",
      "outputs": [],
      "stateMutability": "nonpayable",
      "type": "function"
    },
    {
      "inputs": [],
      "name": "unpause",
      "outputs": [],
      "stateMutability": "nonpayable",
      "type": "function"
    },
    {
      "inputs": [],
      "name": "usdc",
      "outputs": [
        {
          "internalType": "contract IERC20",
          "name": "",
          "type": "address"
        }
      ],
      "stateMutability": "view",
      "type": "function"
    },
    {
      "inputs": [],
      "name": "usdt",
      "outputs": [
        {
          "internalType": "contract IERC20",
          "name": "",
          "type": "address"
        }
      ],
      "stateMutability": "view",
      "type": "function"
    },
    {
      "inputs": [],
      "name": "weth",
      "outputs": [
        {
          "internalType": "contract IWETH",
          "name": "",
          "type": "address"
        }
      ],
      "stateMutability": "view",
      "type": "function"
    },
    {
      "inputs": [
        {
          "internalType": "uint256",
          "name": "loanId",
          "type": "uint256"
        },
        {
          "internalType": "uint256",
          "name": "amount",
          "type": "uint256"
        }
      ],
      "name": "withdrawExcessCollateral",
      "outputs": [],
      "stateMutability": "nonpayable",
      "type": "function"
    },
    {
      "stateMutability": "payable",
      "type": "receive"
    }
  ],
  "bytecode": "0x610120346200033257601f6200332138819003918201601f1916830191906001600160401b0383118484101762000337578160a09285926040958652833981010312620003325762000051826200034d565b602092620000618482016200034d565b6200006e8483016200034d565b906200008b608062000083606086016200034d565b94016200034d565b93600160005533156200031a5760018054610100600160a81b0319811633600881811b610100600160a81b0316929092179093558851946001600160a01b03949093859391929091901c83167f8be0079c531659141344cd1fd0a4f28419497f9722a3daafe3b4186f6b6457e0600080a316928315620002d85750811692831562000294578116938415620002505781169485156200020c5716958615620001bf575060805260a05260c05260e05261010091825251612fbe91826200036383396080518281816105970152818161141a015281816115a60152818161175a0152818161294801528181612b3b0152612d77015260a05182818161180a01526118ef015260c051828181611d900152611e1f015260e05182818161070301526125c7015251818181610dc101526126090152f35b60849086519062461bcd60e51b82526004820152602160248201527f496e76616c6964206261636b75702070726963652066656564206164647265736044820152607360f81b6064820152fd5b865162461bcd60e51b815260048101899052601a60248201527f496e76616c6964207072696365206665656420616464726573730000000000006044820152606490fd5b865162461bcd60e51b815260048101899052601460248201527f496e76616c6964205553445420616464726573730000000000000000000000006044820152606490fd5b865162461bcd60e51b815260048101899052601460248201527f496e76616c6964205553444320616464726573730000000000000000000000006044820152606490fd5b62461bcd60e51b815260048101899052601460248201527f496e76616c6964205745544820616464726573730000000000000000000000006044820152606490fd5b8551631e4fbdf760e01b815260006004820152602490fd5b600080fd5b634e487b7160e01b600052604160045260246000fd5b51906001600160a01b0382168203620003325756fe60e0806040526004361015610060575b50361561001b57600080fd5b60405162461bcd60e51b815260206004820152601760248201527f44697265637420455448206e6f742061636365707465640000000000000000006044820152606490fd5b600090813560e01c908163015895c914611e79575080630a1d138e14611e4e5780632f48ab7d14611e09578063317e5f05146118ad57806334d9289e1461188f5780633cdb72f1146118395780633e413bee146117f45780633f4ba83a146117895780633fc8cef3146117445780634644004d1461150657806347a4a7cf146112f45780635114cb52146111985780635178f7bc146110325780635aeb44fd146110055780635c975abb14610fe25780635dc565c214610fc55780635fd1a5f514610faa5780636120706f14610f8d57806366877b8d14610df0578063677fd55414610dab57806369679f5a14610d7c578063698eec2914610d5f578063715018a614610cfd57806374c7ce7514610ce057806380bb727314610ca75780638456cb5914610c4d5780638da5cb5b14610c2057806390a8ae9b14610c0357806390d3b37914610be45780639772d7ee14610acc578063a02d8c3a14610aa1578063a5905b5514610a84578063a607a8d914610a61578063aaf5eb6814610a3e578063adfbe22f14610732578063af7665ce146106ed578063b5627e42146106d0578063b66dc774146106a6578063bcc46e8314610542578063bdbfa3de146103e3578063c4cca327146103af578063cc60441214610391578063e256888f14610374578063e3ed19021461031d578063e8f90360146103005763f2fde38b0361000f57346102fd5760203660031901126102fd5761027c611efa565b610284612be6565b6001600160a01b038181169182156102e45760018054610100600160a81b03198116600893841b610100600160a81b031617909155901c167f8be0079c531659141344cd1fd0a4f28419497f9722a3daafe3b4186f6b6457e0600080a380f35b604051631e4fbdf760e01b815260048101859052602490fd5b80fd5b50346102fd57806003193601126102fd57602060405161028a8152f35b50346102fd5760403660031901126102fd57610337611efa565b6001600160a01b03168152600360205260408120805460243592908310156102fd5760206103658484611ee2565b90549060031b1c604051908152f35b50346102fd57806003193601126102fd5760206040516127108152f35b50346102fd57806003193601126102fd57602060405162093a808152f35b50346102fd5760203660031901126102fd576103c9612c15565b6103d1612bc8565b6103dc600435612809565b6001815580f35b50346102fd5760203660031901126102fd57600435610400612bc8565b808252600260205260408220600d81019081549060ff8260a01c16600681101561052e576001036104e9578054336001600160a01b03918216149081156104d9575b50156104a35760ff601061045992015416156120aa565b60ff60a01b1916600560a01b179055808252600760205260408220805460ff191690557fb71becc91961a6b43bcc5b3b630f3dce02c7fd444cf3738c4f188062b1caf5bc8280a280f35b60405162461bcd60e51b815260206004820152600e60248201526d139bdd08185d5d1a1bdc9a5e995960921b6044820152606490fd5b9050600182015416331438610442565b60405162461bcd60e51b815260206004820152601960248201527f43616e6e6f742063616e63656c20616374697665206c6f616e000000000000006044820152606490fd5b634e487b7160e01b86526021600452602486fd5b5060203660031901126102fd5760043561055a612c15565b610562612bc8565b80825260026020526040822060ff600d82015460a01c16600681101561069257600261058e911461213a565b341561065457827f00000000000000000000000000000000000000000000000000000000000000006001600160a01b0316803b15610650578160049160405192838092630d0e30db60e41b825234905af180156106455761062d575b50506002016105fa348254611fb8565b90557f244160b15e69cc411f041d94ae7fab6f6bba85dade8403216c05ff4b920d54496020604051348152a26001815580f35b61063690611ff8565b6106415782386105ea565b8280fd5b6040513d84823e3d90fd5b5080fd5b60405162461bcd60e51b8152602060048201526016602482015275139bc818dbdb1b185d195c985b081c1c9bdd9a59195960521b6044820152606490fd5b634e487b7160e01b84526021600452602484fd5b50346102fd5760203660031901126102fd5760406020916004358152600683522054604051908152f35b50346102fd57806003193601126102fd576020604051612cec8152f35b50346102fd57806003193601126102fd576040517f00000000000000000000000000000000000000000000000000000000000000006001600160a01b03168152602090f35b50346102fd576020806003193601126106505760043590610751612c15565b610759612bc8565b8183526002815260408320600d81015460ff8160a01c16600681101561052e57600103610a0457600182018054909290916001600160a01b03908184166109c757818354163314610982576107b4600b8401544211156120f6565b16604051916370a0823160e01b83523360048401528583602481855afa928315610977578893610947575b506003015480921061090b57604051636eb1769f60e11b8152336004820152306024820152908590829060449082905afa9081156109005787916108ce575b501061089057906007929133906bffffffffffffffffffffffff60a01b1617905533845260048152610853836040862061203a565b8284525260408220805460ff1916905533907f3ad02261725390771e704d06848ed8e414d628daf1b8dbffe111f437c848d6208380a36001815580f35b60405162461bcd60e51b8152600481018490526016602482015275496e73756666696369656e7420616c6c6f77616e636560501b6044820152606490fd5b90508481813d83116108f9575b6108e5818361200c565b810103126108f457513861081e565b600080fd5b503d6108db565b6040513d89823e3d90fd5b60405162461bcd60e51b8152600481018690526014602482015273496e73756666696369656e742062616c616e636560601b6044820152606490fd5b9092508581813d8311610970575b61095f818361200c565b810103126108f457519160036107df565b503d610955565b6040513d8a823e3d90fd5b60405162461bcd60e51b815260048101879052601760248201527f43616e6e6f74206c656e6420746f20796f757273656c660000000000000000006044820152606490fd5b60405162461bcd60e51b8152600481018790526015602482015274131bd85b88185b1c9958591e481858d8d95c1d1959605a1b6044820152606490fd5b60405162461bcd60e51b81526004810184905260126024820152714c6f616e206e6f7420617661696c61626c6560701b6044820152606490fd5b50346102fd57806003193601126102fd576020604051670de0b6b3a76400008152f35b50346102fd57806003193601126102fd576020610a7c6125a1565b604051908152f35b50346102fd57806003193601126102fd5760206040516154608152f35b50346102fd5760203660031901126102fd576040610ac06004356123b4565b82519182526020820152f35b50346102fd57806003193601126102fd5760085490610aea8261236e565b8192825b818110610b76575050610b008361236e565b92825b818110610b52575050506040519182916020808401906020855283518092526020604086019401925b828110610b3b57505050500390f35b835185528695509381019392810192600101610b2c565b80610b616001928597956123a0565b51610b6c82866123a0565b5201939193610b03565b80610b85600192969496611e95565b90549060031b1c80865260206007815260ff6040882054169081610bce575b50610bb4575b5001939193610aee565b610bc7610bc086611fa9565b95886123a0565b5238610baa565b6002915052600b60408720015442111538610ba4565b50346102fd5760203660031901126102fd576020610a7c600435612320565b50346102fd57806003193601126102fd576020604051612af88152f35b50346102fd57806003193601126102fd5760015460405160089190911c6001600160a01b03168152602090f35b50346102fd57806003193601126102fd57610c66612be6565b610c6e612bc8565b600160ff19815416176001557f62e78cea01bee320cd4e420270b5ea74000d11b0c9f74754ebdbfc544b05a2586020604051338152a180f35b50346102fd5760203660031901126102fd576020906040906001600160a01b03610ccf611efa565b168152600583522054604051908152f35b50346102fd57806003193601126102fd5760206040516101f48152f35b50346102fd57806003193601126102fd57610d16612be6565b60018054610100600160a81b0319811690915560009060081c6001600160a01b03167f8be0079c531659141344cd1fd0a4f28419497f9722a3daafe3b4186f6b6457e08280a380f35b50346102fd57806003193601126102fd5760206040516130d48152f35b50346102fd5760203660031901126102fd5760ff60406020926004358152600784522054166040519015158152f35b50346102fd57806003193601126102fd576040517f00000000000000000000000000000000000000000000000000000000000000006001600160a01b03168152602090f35b50346102fd5760203660031901126102fd576004358082526002602052604082209060405190610e1f82611fc5565b60018060a01b0391828454168152826001850154169260208201938452600285015492604083019384526003860154606084015260048601549160808401928352600587015460a0850152600687015460c0850152600787015460e085015260088701549361010094858201526009880154976101209889830152600a810154610140830152600b810154946101608301958652600c82015461018084015283610f1f6010600d850154948386166101a0880152610ee860ff6101c089019760a01c168761202e565b600e8101546101e0880152600f8101546102008801520154968261022087019860ff811615158a5260081c166102408701526123b4565b9590945116995116975190519151946006861015610f795790610f6f95949392915115159651986040519a8b5260208b015260408a01526060890152608088015260a087015260c0860190611f26565b60e0840152820152f35b634e487b7160e01b8c52602160045260248cfd5b50346102fd57806003193601126102fd5760206040516102ee8152f35b50346102fd576020610a7c610fbe36611f10565b90506122ec565b50346102fd57806003193601126102fd576020604051610e108152f35b50346102fd57806003193601126102fd57602060ff600154166040519015158152f35b50346102fd5760203660031901126102fd576040611024600435612185565b825191151582526020820152f35b50346102fd5760203660031901126102fd5760043581526002602052604090208080600160a01b60019003815416600160a01b6001900360018301541660c05260028201546003830154600484015460058501546006860154600787015490600888015492600989015494600a8a015496600b8b015498600c8c01549a600d8d01549c600e01549d600f01549e6010015460805260405160a05260a0515260c05160a0516020015260a0516040015260a0516060015260a0516080015260a05160a0015260a05160c0015260a05160e0015260a051610100015260a051610120015260a051610140015260a051610160015260a0516101800152600160a01b60019003811660a0516101a0015260a0516101c0019060a01c60ff169061115791611f26565b60a0516101e0015260a051610200015260805160ff16151560a0516102200152600160a01b6001900360805160081c1660a051610240015260a05161026090f35b50346102fd5760203660031901126102fd576004356111b5612c15565b6111bd612bc8565b808252600260205260408220600d81015460ff8160a01c1660068110156112e05760026111ea911461213a565b600482019182549182156112a55784928260409260067fcf358e925a8e033c6db877f18d10df6f21cd04ef165537bad5fc814eb23af9609501549280841161129b575b50600182015461124d9184916001600160a01b0390811691339116612c38565b611258828754612178565b809655600e810161126a838254611fb8565b9055600a429101558151908152846020820152a21561128c575b506001815580f35b61129590612ce1565b38611284565b925061124d61122d565b60405162461bcd60e51b8152602060048201526013602482015272131bd85b88185b1c9958591e481c995c185a59606a1b6044820152606490fd5b634e487b7160e01b85526021600452602485fd5b50346102fd5761130336611f10565b61130b612c15565b611313612bc8565b8183526002602052604083209060ff600d83015460a01c1660068110156112e0576002611340911461213a565b81546001600160a01b039190611359908316331461206f565b80156114c1576113676125a1565b61271061138461137a600c8701546122ec565b6004870154611f76565b04670de0b6b3a7640000908181029181830414901517156114ad57906113a991611f89565b606981029080820460691490151715611499576064600291049301805493808511600014611492576113db9085612178565b821161144d578160209361143f92611414837f418fa546da9a59e023019f8534c2637a41893ae085076065f69f0a493dd12e0398612178565b905533907f000000000000000000000000000000000000000000000000000000000000000016612c91565b604051908152a26001815580f35b60405162461bcd60e51b815260206004820152601b60248201527f4578636565647320776974686472617761626c6520616d6f756e7400000000006044820152606490fd5b50856113db565b634e487b7160e01b86526011600452602486fd5b634e487b7160e01b87526011600452602487fd5b60405162461bcd60e51b815260206004820152601d60248201527f416d6f756e74206d7573742062652067726561746572207468616e20300000006044820152606490fd5b5060203660031901126102fd5760043561151e612c15565b611526612bc8565b80825260026020526040822080546001600160a01b039061154a908216331461206f565b600d82019060ff825460a01c16600681101561052e5760010361170e57600183019080825416156116d457600284018054341061168f576010850161159360ff825416156120aa565b6115a3600b8701544211156120f6565b827f00000000000000000000000000000000000000000000000000000000000000001688813b156102fd57604051630d0e30db60e41b8152918290600490829034905af1801561168457611669575b50805460ff19166001179055349055825491548454600386015461161f9490939182169282169116612c38565b805460ff60a01b1916600160a11b1790554260098201819055600a909101557fcb4c701313b0db2ed5902d923d21b853d01e3a14cb2af2dce00e309eaa0e134c8280a26001815580f35b9761167a61161f9594939299611ff8565b97909192936115f2565b6040513d8b823e3d90fd5b60405162461bcd60e51b815260206004820152601760248201527f496e73756666696369656e7420636f6c6c61746572616c0000000000000000006044820152606490fd5b60405162461bcd60e51b8152602060048201526012602482015271139bc81b195b99195c88185cdcda59db995960721b6044820152606490fd5b60405162461bcd60e51b815260206004820152600e60248201526d496e76616c69642073746174757360901b6044820152606490fd5b50346102fd57806003193601126102fd576040517f00000000000000000000000000000000000000000000000000000000000000006001600160a01b03168152602090f35b50346102fd57806003193601126102fd576117a2612be6565b60015460ff8116156117e25760ff19166001557f5db9ee0a495bf2e6ff9c91a7834c1ba4fdd244a5e8aa4e537bd38aeae4b073aa6020604051338152a180f35b604051638dfc202b60e01b8152600490fd5b50346102fd57806003193601126102fd576040517f00000000000000000000000000000000000000000000000000000000000000006001600160a01b03168152602090f35b50346102fd5760403660031901126102fd57611853611efa565b6001600160a01b03168152600460205260408120805460243592908310156102fd5760206118818484611ee2565b90546040519160031b1c8152f35b50346102fd57806003193601126102fd576020600954604051908152f35b50346102fd5760803660031901126102fd576044356001600160a01b0381168103610650576118da612bc8565b60043515611db8576001600160a01b038181167f0000000000000000000000000000000000000000000000000000000000000000909116148015611d82575b15611d485761012c606435101580611d3a575b15611cfe5762278d0080602435101580611cee575b15611cb6576119516064356122ec565b61271061196861195f6125a1565b92600435611f76565b04670de0b6b3a764000090818102918183041490151715611ca2579061198d91611f89565b90611999606435612320565b926119d16119c664496cebb8006119bd6024356119b889600435611f76565b611f76565b04600435611fb8565b926024350483611f89565b6119dc600954611fa9565b948560095562093a80420142116114ad57604051936119fa85611fc5565b3385528760208601528560408601526004356060860152608085015260a084015260c083015260243560e083015242610100830152846101208301528461014083015262093a80420161016083015260643561018083015260018060a01b03166101a082015260016101c0820152836101e082015283610200820152836102208201523061024082015282845260026020526040842060018060a01b038251166bffffffffffffffffffffffff60a01b9081835416178255600182019060018060a01b036020850151169082541617905560408201516002820155606082015160038201556080820151600482015560a0820151600582015560c0820151600682015560e0820151600782015561010082015160088201556101208201516009820155610140820151600a820155610160820151600b820155610180820151600c820155600d81019060018060a01b036101a0840151169180546101c0850151936006851015611c8e579060109392916affffffffffffffffffffff60a81b809660ff60a01b9060a01b169216171790556101e0840151600e820155610200840151600f820155019161022081015115159160ff845492610240610100600160a81b0391015160081b1693169116171790553383526003602052611be1826040852061203a565b818352600760205260408320805460ff19166001179055600854600160401b811015611c7a5792611c1a84600160209601600855611e95565b81549060031b9085821b91600019901b191617905533815260058452604060643591205560405190600435825283820152817fb95b715564424faaea3405321c2fca777cec2d0cce8026437155361f28211e9060403393a3604051908152f35b634e487b7160e01b84526041600452602484fd5b634e487b7160e01b89526021600452602489fd5b634e487b7160e01b85526011600452602485fd5b60405162461bcd60e51b815260206004820152601060248201526f24b73b30b634b210323ab930ba34b7b760811b6044820152606490fd5b506301e133806024351115611941565b60405162461bcd60e51b8152602060048201526014602482015273496e76616c6964206372656469742073636f726560601b6044820152606490fd5b50610352606435111561192c565b60405162461bcd60e51b815260206004820152601260248201527124b73b30b634b21039ba30b13632b1b7b4b760711b6044820152606490fd5b506001600160a01b038181167f000000000000000000000000000000000000000000000000000000000000000090911614611919565b60405162461bcd60e51b8152602060048201526024808201527f426f72726f7720616d6f756e74206d75737420626520677265617465722074686044820152630616e20360e41b6064820152608490fd5b50346102fd57806003193601126102fd576040517f00000000000000000000000000000000000000000000000000000000000000006001600160a01b03168152602090f35b50346102fd5760203660031901126102fd57600435906008548210156102fd57602061188183611e95565b9050346106505781600319360112610650578061022660209252f35b600854811015611ecc5760086000527ff3f7a9fe364faab93b216da50a3214154f22a0a2b415b23a84c8169e8b636ee30190600090565b634e487b7160e01b600052603260045260246000fd5b8054821015611ecc5760005260206000200190600090565b600435906001600160a01b03821682036108f457565b60409060031901126108f4576004359060243590565b906006821015611f335752565b634e487b7160e01b600052602160045260246000fd5b9061251c91828102928184041490151715611f6057565b634e487b7160e01b600052601160045260246000fd5b81810292918115918404141715611f6057565b8115611f93570490565b634e487b7160e01b600052601260045260246000fd5b6000198114611f605760010190565b91908201809211611f6057565b610260810190811067ffffffffffffffff821117611fe257604052565b634e487b7160e01b600052604160045260246000fd5b67ffffffffffffffff8111611fe257604052565b90601f8019910116810190811067ffffffffffffffff821117611fe257604052565b6006821015611f335752565b8054600160401b811015611fe25761205791600182018155611ee2565b819291549060031b91821b91600019901b1916179055565b1561207657565b60405162461bcd60e51b815260206004820152600c60248201526b2737ba103137b93937bbb2b960a11b6044820152606490fd5b156120b157565b60405162461bcd60e51b815260206004820152601c60248201527f436f6c6c61746572616c20616c7265616479206465706f7369746564000000006044820152606490fd5b156120fd57565b60405162461bcd60e51b8152602060048201526015602482015274131bd85b881c1c9bdc1bdcd85b08195e1c1a5c9959605a1b6044820152606490fd5b1561214157565b60405162461bcd60e51b815260206004820152600f60248201526e4c6f616e206e6f742061637469766560881b6044820152606490fd5b91908203918211611f6057565b906000918083526002602052604083206040516121a181611fc5565b61024060018060a01b03808454168352806001850154166020840152600284015460408401526003840154606084015260048401546080840152600584015460a0840152600684015460c0840152600784015460e084015260088401546101008401526009840154610120840152600a840154610140840152600b840154610160840152600c8401546101808401526010600d850154948286166101a086015261225660ff6101c087019760a01c168761202e565b600e8101546101e0860152600f810154610200860152015460ff8116151561022085015260081c16910152516006811015610692576002036122e75761229b816123b4565b939050612af8841091826122b0575b50509190565b8152600660205260408120546154608101925082106122d35750421138806122aa565b634e487b7160e01b81526011600452602490fd5b508190565b6102ee81106122fc57506132c890565b61028a811061230c57506136b090565b6102261161231a57613a9890565b61445c90565b6102ee908181106123335750506101f490565b61028a8110612340575090565b610226119050612350576103e890565b6105dc90565b67ffffffffffffffff8111611fe25760051b60200190565b9061237882612356565b612385604051918261200c565b8281528092612396601f1991612356565b0190602036910137565b8051821015611ecc5760209160051b010190565b9060009182526002602052604082206040516123cf81611fc5565b60018060a01b0391828154168252826001820154166020830152600281015491604081019283526003820154606082015261024060048301549460808301958652600584015460a0840152600684015460c0840152600784015460e084015260088401546101008401526009840154610120840152600a840154610140840152600b840154610160840152600c8401546101808401526010600d850154948286166101a086015261248b60ff6101c087019760a01c168761202e565b600e8101546101e0860152600f810154610200860152015460ff8116151561022085015260081c169101525160068110156112e057600203612552576124e3670de0b6b3a7640000916124dc6125a1565b9051611f76565b0490805193841561254757821561253c57612710948581029081048603612528578361250e91611f89565b94808402938404036122d357505161252591611f89565b90565b634e487b7160e01b82526011600452602482fd5b600019945092915050565b935060001992915050565b50508190565b519069ffffffffffffffffffff821682036108f457565b908160a09103126108f45761258381612558565b91602082015191604081015191612525608060608401519301612558565b60408051633fabe5a360e21b80825260a09260049290916001600160a01b0391858186817f000000000000000000000000000000000000000000000000000000000000000087165afa8060009283926127e2575b5061274057505084908484518094819382527f0000000000000000000000000000000000000000000000000000000000000000165afa9081156127355760009485926126fd575b505060008413156126c357612654610e109142612178565b101561268b57506402540be40091828102928184041490151715612676575090565b601190634e487b7160e01b6000525260246000fd5b906020606492519162461bcd60e51b835282015260126024820152715374616c65206261636b757020707269636560701b6044820152fd5b815162461bcd60e51b81526020818501526014602482015273496e76616c6964206261636b757020707269636560601b6044820152606490fd5b61272193955080919250903d1061272e575b612719818361200c565b81019061256f565b509492505092388061263c565b503d61270f565b82513d6000823e3d90fd5b92508095506000915013156127af5761275c610e109142612178565b101561277e57506402540be40091828102928184041490151715612676575090565b906020606492519162461bcd60e51b8352820152600b60248201526a5374616c6520707269636560a81b6044820152fd5b815162461bcd60e51b8152602081850152600d60248201526c496e76616c696420707269636560981b6044820152606490fd5b9092506127fc9150873d891161272e57612719818361200c565b50939250509190386125f5565b906000918083526020926002845260409384822094600d86019160ff835460a01c1660068110156112e0576002612840911461213a565b84845260068152818420546154608101809111611ca257421115612b86576128688588612dc4565b9291949094612ac4575483516370a0823160e01b81523360048201526001600160a01b03918216908381602481855afa908115612a39579085918991612a93575b5010612a43578451636eb1769f60e11b81523360048201523060248201528381604481855afa908115612a39579085918991612a04575b50106129b15783828b60048b9c9d9b9a9b019a838c549061290091612178565b8c55600282018a81549061291391612178565b9055600f82018a81549061292691611fb8565b90558a815260068752884291205560010154163361294393612c38565b8433917f0000000000000000000000000000000000000000000000000000000000000000169161297292612c91565b82519384528301527f34656211e4d5cc1a3c219c74290bcf60ea54c774a8d5594bcd378723721640ce91a254156129a65750565b6129af90612ce1565b565b845162461bcd60e51b815260048101849052602660248201527f496e73756666696369656e7420616c6c6f77616e636520666f72206c697175696044820152653230ba34b7b760d11b6064820152608490fd5b809250858092503d8311612a32575b612a1d818361200c565b81010312612a2e57849051386128e0565b8780fd5b503d612a13565b86513d8a823e3d90fd5b845162461bcd60e51b8152600481018490526024808201527f496e73756666696369656e742062616c616e636520666f72206c6971756964616044820152633a34b7b760e11b6064820152608490fd5b809250858092503d8311612abd575b612aac818361200c565b81010312612a2e57849051386128a9565b503d612aa2565b509050847f054ec7ece823327cac62b619c1ad0d5ec021821029747486a9635b77a351be6095969750846002939594505252612b81828220600281019280845494556004820155600d8101600160a21b60ff60a01b1982541617905582600f8201556001808060a01b039101612b608483835416847f000000000000000000000000000000000000000000000000000000000000000016612c91565b5493519283529092166001600160a01b031660208201529081906040820190565b0390a2565b606491519062461bcd60e51b82526004820152601b60248201527f4c69717569646174696f6e20636f6f6c646f776e2061637469766500000000006044820152fd5b60ff60015416612bd457565b60405163d93c066560e01b8152600490fd5b60015460081c6001600160a01b03163303612bfd57565b60405163118cdaa760e01b8152336004820152602490fd5b600260005414612c26576002600055565b604051633ee5aeb560e01b8152600490fd5b6040516323b872dd60e01b60208201526001600160a01b03928316602482015292909116604483015260648083019390935291815260a081019181831067ffffffffffffffff841117611fe2576129af92604052612f20565b60405163a9059cbb60e01b60208201526001600160a01b039092166024830152604480830193909352918152608081019167ffffffffffffffff831182841017611fe2576129af92604052612f20565b600081815260026020819052604082209081018054929055600d8101805460ff60a01b1916600360a01b179055829180612d40575b5050507f02ca5489b37dd363d1302bac719e8ee40e540ffbe8c12253570fea63e11cad71600080a2565b81547f054ec7ece823327cac62b619c1ad0d5ec021821029747486a9635b77a351be60926001600160a01b0391612d9d90849084167f00000000000000000000000000000000000000000000000000000000000000008516612c91565b546040805193845291166001600160a01b03166020830152819081010390a2803880612d16565b9190612dd2612af8916123b4565b90501015612edb57612de26125a1565b906004830154916130d49081840284159285820414831715611f605760029561271080920490612e1f84670de0b6b3a7640000998a930154611f76565b0481811115612ec85790612e3291612178565b86810290808204881490151715611f605782612e4d91611f89565b9569021e19e0c9bab240000080612e6c612e67868b611f76565b611f49565b0496808811612e83575b5050505050506000929190565b919395975091939550809583820293828504141715611f605702918183041490151715611f6057612eb6612ebc92611f49565b90611f89565b91388080808080612e76565b5050505050915050600190600090600090565b60405162461bcd60e51b815260206004820152601860248201527f4c69717569646174696f6e206e6f7420726571756972656400000000000000006044820152606490fd5b906000602091828151910182855af115612f7c576000513d612f7357506001600160a01b0381163b155b612f515750565b604051635274afe760e01b81526001600160a01b039091166004820152602490fd5b60011415612f4a565b6040513d6000823e3d90fdfea26469706673582212203b1651446c649e61c8e944958deea5b2afd714d6b37ce6785e00ba8780e1c5ca64736f6c63430008180033",
  "linkReferences": {},
  "deployedLinkReferences": {}
}