{
  "_format": "hh-sol-artifact-1",
  "contractName": "MockChainlinkPriceFeed",
  "sourceName": "contracts/mocks/MockChainlinkPriceFeed.sol",
  "abi": [
    {
      "inputs": [
        {
          "internalType": "uint8",
          "name": "_decimals",
          "type": "uint8"
        },
        {
          "internalType": "string",
          "name": "_description",
          "type": "string"
        },
        {
          "internalType": "uint256",
          "name": "_version",
          "type": "uint256"
        },
        {
          "internalType": "int256",
          "name": "_initialPrice",
          "type": "int256"
        }
      ],
      "stateMutability": "nonpayable",
      "type": "constructor"
    },
    {
      "inputs": [],
      "name": "decimals",
      "outputs": [
        {
          "internalType": "uint8",
          "name": "",
          "type": "uint8"
        }
      ],
      "stateMutability": "view",
      "type": "function"
    },
    {
      "inputs": [],
      "name": "description",
      "outputs": [
        {
          "internalType": "string",
          "name": "",
          "type": "string"
        }
      ],
      "stateMutability": "view",
      "type": "function"
    },
    {
      "inputs": [
        {
          "internalType": "uint80",
          "name": "roundId_",
          "type": "uint80"
        }
      ],
      "name": "getRoundData",
      "outputs": [
        {
          "internalType": "uint80",
          "name": "roundId",
          "type": "uint80"
        },
        {
          "internalType": "int256",
          "name": "answer",
          "type": "int256"
        },
        {
          "internalType": "uint256",
          "name": "startedAt",
          "type": "uint256"
        },
        {
          "internalType": "uint256",
          "name": "updatedAt",
          "type": "uint256"
        },
        {
          "internalType": "uint80",
          "name": "answeredInRound",
          "type": "uint80"
        }
      ],
      "stateMutability": "view",
      "type": "function"
    },
    {
      "inputs": [],
      "name": "latestRoundData",
      "outputs": [
        {
          "internalType": "uint80",
          "name": "roundId",
          "type": "uint80"
        },
        {
          "internalType": "int256",
          "name": "answer",
          "type": "int256"
        },
        {
          "internalType": "uint256",
          "name": "startedAt",
          "type": "uint256"
        },
        {
          "internalType": "uint256",
          "name": "updatedAt",
          "type": "uint256"
        },
        {
          "internalType": "uint80",
          "name": "answeredInRound",
          "type": "uint80"
        }
      ],
      "stateMutability": "view",
      "type": "function"
    },
    {
      "inputs": [
        {
          "internalType": "int256",
          "name": "_answer",
          "type": "int256"
        }
      ],
      "name": "updateAnswer",
      "outputs": [],
      "stateMutability": "nonpayable",
      "type": "function"
    },
    {
      "inputs": [
        {
          "internalType": "uint256",
          "name": "_timestamp",
          "type": "uint256"
        }
      ],
      "name": "updateTimestamp",
      "outputs": [],
      "stateMutability": "nonpayable",
      "type": "function"
    },
    {
      "inputs": [],
      "name": "version",
      "outputs": [
        {
          "internalType": "uint256",
          "name": "",
          "type": "uint256"
        }
      ],
      "stateMutability": "view",
      "type": "function"
    }
  ],
  "bytecode": "0x608060405234610239576105d2803803806100198161023e565b92833981019060808183031261023957805160ff8116809103610239576020828101519092906001600160401b039081811161023957820193601f9086828701121561023957855183811161020f57601f199661007b8285018916840161023e565b98828a5283838301011161023957829060005b83811061022557505060009189010152606060408501519401519460ff196000541617600055865192831161020f5760019586548781811c91168015610205575b838210146101ef578381116101a9575b5081928411600114610146575050819293949560009261013b575b5050600019600383901b1c191690841b1783555b60025560035542600455600580546001600160501b03191691909117905560405161036e90816102648239f35b0151905038806100fa565b6000878152828120918516989193925b8982106101925750508387989795969710610179575b505050811b01835561010e565b015160001960f88460031b161c1916905538808061016c565b808985968294968601518155019501930190610156565b87600052826000208480870160051c8201928588106101e6575b0160051c019088905b8281106101da5750506100df565b600081550188906101cc565b925081926101c3565b634e487b7160e01b600052602260045260246000fd5b90607f16906100cf565b634e487b7160e01b600052604160045260246000fd5b8181018301518b820184015284920161008e565b600080fd5b6040519190601f01601f191682016001600160401b0381118382101761020f5760405256fe60806040908082526004908136101561001757600080fd5b600090813560e01c908163313ce5671461031b5750806351ab28a91461030157806354fd4d50146102e25780637284e4161461017d5780639a6fc8f514610120578063a87a20ce146100bf5763feaf968c1461007257600080fd5b346100bc57806003193601126100bc5750600554600354915492516001600160501b039091168082526020820192909252604081018390526060810192909252608082015260a090f35b80fd5b50903461011c57602036600319011261011c578035600355428155600554906001600160501b039081831690828214610109575060010116906001600160501b0319161760055580f35b634e487b7160e01b855260119052602484fd5b5080fd5b50346100bc5760203660031901126100bc578135906001600160501b03821682036100bc5750600354915492516001600160501b03919091168082526020820192909252604081018390526060810192909252608082015260a090f35b5091346102de57826003193601126102de57805183600194600154908160011c600183169788156102d4575b6020938483108a146102c157848798999a84895291826000146102a5575050600114610251575b5050601f801995869203011683019583871067ffffffffffffffff88111761023e575085929391838652818452845191828186015281955b8387106102265750508394508582601f949501015201168101030190f35b86810182015189880189015295810195889550610208565b634e487b7160e01b835260419052602482fd5b600185528492507fb10e2d527612073b26eecdfd717e6a320cf44b4afac2b0732d9fcbe2b7fa0cf65b82841061028f575050508301810138806101d0565b805488850186015287965092840192810161027a565b925093505060ff191682860152151560051b84010138806101d0565b634e487b7160e01b865260228952602486fd5b90607f16906101a9565b8280fd5b50823461011c578160031936011261011c576020906002549051908152f35b50903461011c57602036600319011261011c578035905580f35b90503461011c578160031936011261011c5760ff60209254168152f3fea2646970667358221220a8c84bc620b6e810d039c190b93947f9104cef0ac87bc8f024d280ad4c74213564736f6c63430008180033",
  "linkReferences": {},
  "deployedLinkReferences": {}
}